{
  "contractName": "TheGame",
  "abi": [
    {
      "inputs": [],
      "stateMutability": "nonpayable",
      "type": "constructor"
    },
    {
      "anonymous": false,
      "inputs": [
        {
          "indexed": true,
          "internalType": "address",
          "name": "owner",
          "type": "address"
        },
        {
          "indexed": true,
          "internalType": "address",
          "name": "approved",
          "type": "address"
        },
        {
          "indexed": true,
          "internalType": "uint256",
          "name": "tokenId",
          "type": "uint256"
        }
      ],
      "name": "Approval",
      "type": "event"
    },
    {
      "anonymous": false,
      "inputs": [
        {
          "indexed": true,
          "internalType": "address",
          "name": "owner",
          "type": "address"
        },
        {
          "indexed": true,
          "internalType": "address",
          "name": "operator",
          "type": "address"
        },
        {
          "indexed": false,
          "internalType": "bool",
          "name": "approved",
          "type": "bool"
        }
      ],
      "name": "ApprovalForAll",
      "type": "event"
    },
    {
      "anonymous": false,
      "inputs": [
        {
          "indexed": true,
          "internalType": "address",
          "name": "previousOwner",
          "type": "address"
        },
        {
          "indexed": true,
          "internalType": "address",
          "name": "newOwner",
          "type": "address"
        }
      ],
      "name": "OwnershipTransferred",
      "type": "event"
    },
    {
      "anonymous": false,
      "inputs": [
        {
          "indexed": true,
          "internalType": "address",
          "name": "from",
          "type": "address"
        },
        {
          "indexed": true,
          "internalType": "address",
          "name": "to",
          "type": "address"
        },
        {
          "indexed": true,
          "internalType": "uint256",
          "name": "tokenId",
          "type": "uint256"
        }
      ],
      "name": "Transfer",
      "type": "event"
    },
    {
      "inputs": [],
      "name": "GameStarts",
      "outputs": [
        {
          "internalType": "bool",
          "name": "",
          "type": "bool"
        }
      ],
      "stateMutability": "view",
      "type": "function",
      "constant": true
    },
    {
      "inputs": [],
      "name": "LossBasePrice",
      "outputs": [
        {
          "internalType": "uint256",
          "name": "",
          "type": "uint256"
        }
      ],
      "stateMutability": "view",
      "type": "function",
      "constant": true
    },
    {
      "inputs": [
        {
          "internalType": "address",
          "name": "to",
          "type": "address"
        },
        {
          "internalType": "uint256",
          "name": "tokenId",
          "type": "uint256"
        }
      ],
      "name": "approve",
      "outputs": [],
      "stateMutability": "nonpayable",
      "type": "function"
    },
    {
      "inputs": [
        {
          "internalType": "address",
          "name": "owner",
          "type": "address"
        }
      ],
      "name": "balanceOf",
      "outputs": [
        {
          "internalType": "uint256",
          "name": "",
          "type": "uint256"
        }
      ],
      "stateMutability": "view",
      "type": "function",
      "constant": true
    },
    {
      "inputs": [],
      "name": "baseURI",
      "outputs": [
        {
          "internalType": "string",
          "name": "",
          "type": "string"
        }
      ],
      "stateMutability": "view",
      "type": "function",
      "constant": true
    },
    {
      "inputs": [
        {
          "internalType": "uint256",
          "name": "tokenId",
          "type": "uint256"
        }
      ],
      "name": "getApproved",
      "outputs": [
        {
          "internalType": "address",
          "name": "",
          "type": "address"
        }
      ],
      "stateMutability": "view",
      "type": "function",
      "constant": true
    },
    {
      "inputs": [
        {
          "internalType": "address",
          "name": "owner",
          "type": "address"
        },
        {
          "internalType": "address",
          "name": "operator",
          "type": "address"
        }
      ],
      "name": "isApprovedForAll",
      "outputs": [
        {
          "internalType": "bool",
          "name": "",
          "type": "bool"
        }
      ],
      "stateMutability": "view",
      "type": "function",
      "constant": true
    },
    {
      "inputs": [],
      "name": "name",
      "outputs": [
        {
          "internalType": "string",
          "name": "",
          "type": "string"
        }
      ],
      "stateMutability": "view",
      "type": "function",
      "constant": true
    },
    {
      "inputs": [],
      "name": "owner",
      "outputs": [
        {
          "internalType": "address",
          "name": "",
          "type": "address"
        }
      ],
      "stateMutability": "view",
      "type": "function",
      "constant": true
    },
    {
      "inputs": [
        {
          "internalType": "uint256",
          "name": "tokenId",
          "type": "uint256"
        }
      ],
      "name": "ownerOf",
      "outputs": [
        {
          "internalType": "address",
          "name": "",
          "type": "address"
        }
      ],
      "stateMutability": "view",
      "type": "function",
      "constant": true
    },
    {
      "inputs": [],
      "name": "renounceOwnership",
      "outputs": [],
      "stateMutability": "nonpayable",
      "type": "function"
    },
    {
      "inputs": [
        {
          "internalType": "address",
          "name": "from",
          "type": "address"
        },
        {
          "internalType": "address",
          "name": "to",
          "type": "address"
        },
        {
          "internalType": "uint256",
          "name": "tokenId",
          "type": "uint256"
        }
      ],
      "name": "safeTransferFrom",
      "outputs": [],
      "stateMutability": "nonpayable",
      "type": "function"
    },
    {
      "inputs": [
        {
          "internalType": "address",
          "name": "from",
          "type": "address"
        },
        {
          "internalType": "address",
          "name": "to",
          "type": "address"
        },
        {
          "internalType": "uint256",
          "name": "tokenId",
          "type": "uint256"
        },
        {
          "internalType": "bytes",
          "name": "_data",
          "type": "bytes"
        }
      ],
      "name": "safeTransferFrom",
      "outputs": [],
      "stateMutability": "nonpayable",
      "type": "function"
    },
    {
      "inputs": [
        {
          "internalType": "address",
          "name": "operator",
          "type": "address"
        },
        {
          "internalType": "bool",
          "name": "approved",
          "type": "bool"
        }
      ],
      "name": "setApprovalForAll",
      "outputs": [],
      "stateMutability": "nonpayable",
      "type": "function"
    },
    {
      "inputs": [
        {
          "internalType": "bytes4",
          "name": "interfaceId",
          "type": "bytes4"
        }
      ],
      "name": "supportsInterface",
      "outputs": [
        {
          "internalType": "bool",
          "name": "",
          "type": "bool"
        }
      ],
      "stateMutability": "view",
      "type": "function",
      "constant": true
    },
    {
      "inputs": [],
      "name": "symbol",
      "outputs": [
        {
          "internalType": "string",
          "name": "",
          "type": "string"
        }
      ],
      "stateMutability": "view",
      "type": "function",
      "constant": true
    },
    {
      "inputs": [],
      "name": "totalLosses",
      "outputs": [
        {
          "internalType": "uint256",
          "name": "",
          "type": "uint256"
        }
      ],
      "stateMutability": "view",
      "type": "function",
      "constant": true
    },
    {
      "inputs": [],
      "name": "totalSupply",
      "outputs": [
        {
          "internalType": "uint256",
          "name": "",
          "type": "uint256"
        }
      ],
      "stateMutability": "view",
      "type": "function",
      "constant": true
    },
    {
      "inputs": [
        {
          "internalType": "address",
          "name": "from",
          "type": "address"
        },
        {
          "internalType": "address",
          "name": "to",
          "type": "address"
        },
        {
          "internalType": "uint256",
          "name": "tokenId",
          "type": "uint256"
        }
      ],
      "name": "transferFrom",
      "outputs": [],
      "stateMutability": "nonpayable",
      "type": "function"
    },
    {
      "inputs": [
        {
          "internalType": "address",
          "name": "newOwner",
          "type": "address"
        }
      ],
      "name": "transferOwnership",
      "outputs": [],
      "stateMutability": "nonpayable",
      "type": "function"
    },
    {
      "inputs": [],
      "name": "FirstLoser",
      "outputs": [],
      "stateMutability": "payable",
      "type": "function",
      "payable": true
    },
    {
      "inputs": [
        {
          "internalType": "address",
          "name": "to",
          "type": "address"
        },
        {
          "internalType": "uint256",
          "name": "amountOfLosses",
          "type": "uint256"
        }
      ],
      "name": "HandOutLs",
      "outputs": [],
      "stateMutability": "payable",
      "type": "function",
      "payable": true
    },
    {
      "inputs": [
        {
          "internalType": "uint256",
          "name": "tokenId",
          "type": "uint256"
        }
      ],
      "name": "tokenURI",
      "outputs": [
        {
          "internalType": "string",
          "name": "",
          "type": "string"
        }
      ],
      "stateMutability": "view",
      "type": "function",
      "constant": true
    },
    {
      "inputs": [
        {
          "internalType": "address",
          "name": "ad",
          "type": "address"
        }
      ],
      "name": "lossFinder",
      "outputs": [
        {
          "internalType": "uint256",
          "name": "",
          "type": "uint256"
        }
      ],
      "stateMutability": "view",
      "type": "function",
      "constant": true
    },
    {
      "inputs": [],
      "name": "withdraw",
      "outputs": [],
      "stateMutability": "payable",
      "type": "function",
      "payable": true
    },
    {
      "inputs": [],
      "name": "beginTheGame",
      "outputs": [],
      "stateMutability": "nonpayable",
      "type": "function"
    }
  ],
  "bytecode": "0x60806040526000600760146101000a81548160ff0219169083151502179055507fffffffffffffffffffffffffffffffffffffffffffffffffffffffffffffffff600855600060095560405180608001604052806053815260200162003e4360539139600a90805190602001906200007992919062000226565b5065e35fa931a000600b553480156200009157600080fd5b506040518060400160405280600781526020017f54686547616d65000000000000000000000000000000000000000000000000008152506040518060400160405280600481526020017f445441490000000000000000000000000000000000000000000000000000000081525081600090805190602001906200011692919062000226565b5080600190805190602001906200012f92919062000226565b50505062000152620001466200015860201b60201c565b6200016060201b60201c565b6200033b565b600033905090565b6000600760009054906101000a900473ffffffffffffffffffffffffffffffffffffffff16905081600760006101000a81548173ffffffffffffffffffffffffffffffffffffffff021916908373ffffffffffffffffffffffffffffffffffffffff1602179055508173ffffffffffffffffffffffffffffffffffffffff168173ffffffffffffffffffffffffffffffffffffffff167f8be0079c531659141344cd1fd0a4f28419497f9722a3daafe3b4186f6b6457e060405160405180910390a35050565b828054620002349062000305565b90600052602060002090601f016020900481019282620002585760008555620002a4565b82601f106200027357805160ff1916838001178555620002a4565b82800160010185558215620002a4579182015b82811115620002a357825182559160200191906001019062000286565b5b509050620002b39190620002b7565b5090565b5b80821115620002d2576000816000905550600101620002b8565b5090565b7f4e487b7100000000000000000000000000000000000000000000000000000000600052602260045260246000fd5b600060028204905060018216806200031e57607f821691505b60208210811415620003355762000334620002d6565b5b50919050565b613af8806200034b6000396000f3fe6080604052600436106101815760003560e01c8063715018a6116100d1578063b88d4fde1161008a578063e985e9c511610064578063e985e9c51461050f578063ef50c1291461054c578063f2fde38b14610589578063f34e73d9146105b257610181565b8063b88d4fde1461047e578063bf04820b146104a7578063c87b56dd146104d257610181565b8063715018a6146103b357806383037fa8146103ca5780638da5cb5b146103d457806395d89b41146103ff578063a1f2ff381461042a578063a22cb4651461045557610181565b80633ccfd60b1161013e5780636352211e116101185780636352211e146102f757806366eabfd4146103345780636c0360eb1461034b57806370a082311461037657610181565b80633ccfd60b146102a857806342842e0e146102b25780635731a234146102db57610181565b806301ffc9a71461018657806306fdde03146101c3578063081812fc146101ee578063095ea7b31461022b57806318160ddd1461025457806323b872dd1461027f575b600080fd5b34801561019257600080fd5b506101ad60048036038101906101a89190612597565b6105dd565b6040516101ba91906125df565b60405180910390f35b3480156101cf57600080fd5b506101d86106bf565b6040516101e59190612693565b60405180910390f35b3480156101fa57600080fd5b50610215600480360381019061021091906126eb565b610751565b6040516102229190612759565b60405180910390f35b34801561023757600080fd5b50610252600480360381019061024d91906127a0565b6107d6565b005b34801561026057600080fd5b506102696108ee565b60405161027691906127ef565b60405180910390f35b34801561028b57600080fd5b506102a660048036038101906102a1919061280a565b6108f4565b005b6102b0610954565b005b3480156102be57600080fd5b506102d960048036038101906102d4919061280a565b610a1f565b005b6102f560048036038101906102f091906127a0565b610a3f565b005b34801561030357600080fd5b5061031e600480360381019061031991906126eb565b610bf8565b60405161032b9190612759565b60405180910390f35b34801561034057600080fd5b50610349610caa565b005b34801561035757600080fd5b50610360610d52565b60405161036d9190612693565b60405180910390f35b34801561038257600080fd5b5061039d6004803603810190610398919061285d565b610de0565b6040516103aa91906127ef565b60405180910390f35b3480156103bf57600080fd5b506103c8610e98565b005b6103d2610f20565b005b3480156103e057600080fd5b506103e9611138565b6040516103f69190612759565b60405180910390f35b34801561040b57600080fd5b50610414611162565b6040516104219190612693565b60405180910390f35b34801561043657600080fd5b5061043f6111f4565b60405161044c91906127ef565b60405180910390f35b34801561046157600080fd5b5061047c600480360381019061047791906128b6565b6111fa565b005b34801561048a57600080fd5b506104a560048036038101906104a09190612a2b565b611210565b005b3480156104b357600080fd5b506104bc611272565b6040516104c991906127ef565b60405180910390f35b3480156104de57600080fd5b506104f960048036038101906104f491906126eb565b611278565b6040516105069190612693565b60405180910390f35b34801561051b57600080fd5b5061053660048036038101906105319190612aae565b61128a565b60405161054391906125df565b60405180910390f35b34801561055857600080fd5b50610573600480360381019061056e919061285d565b61131e565b60405161058091906127ef565b60405180910390f35b34801561059557600080fd5b506105b060048036038101906105ab919061285d565b611367565b005b3480156105be57600080fd5b506105c761145f565b6040516105d491906125df565b60405180910390f35b60007f80ac58cd000000000000000000000000000000000000000000000000000000007bffffffffffffffffffffffffffffffffffffffffffffffffffffffff1916827bffffffffffffffffffffffffffffffffffffffffffffffffffffffff191614806106a857507f5b5e139f000000000000000000000000000000000000000000000000000000007bffffffffffffffffffffffffffffffffffffffffffffffffffffffff1916827bffffffffffffffffffffffffffffffffffffffffffffffffffffffff1916145b806106b857506106b782611472565b5b9050919050565b6060600080546106ce90612b1d565b80601f01602080910402602001604051908101604052809291908181526020018280546106fa90612b1d565b80156107475780601f1061071c57610100808354040283529160200191610747565b820191906000526020600020905b81548152906001019060200180831161072a57829003601f168201915b5050505050905090565b600061075c826114dc565b61079b576040517f08c379a000000000000000000000000000000000000000000000000000000000815260040161079290612bc1565b60405180910390fd5b6004600083815260200190815260200160002060009054906101000a900473ffffffffffffffffffffffffffffffffffffffff169050919050565b60006107e182610bf8565b90508073ffffffffffffffffffffffffffffffffffffffff168373ffffffffffffffffffffffffffffffffffffffff161415610852576040517f08c379a000000000000000000000000000000000000000000000000000000000815260040161084990612c53565b60405180910390fd5b8073ffffffffffffffffffffffffffffffffffffffff16610871611548565b73ffffffffffffffffffffffffffffffffffffffff1614806108a0575061089f8161089a611548565b61128a565b5b6108df576040517f08c379a00000000000000000000000000000000000000000000000000000000081526004016108d690612ce5565b60405180910390fd5b6108e98383611550565b505050565b60085481565b6109056108ff611548565b82611609565b610944576040517f08c379a000000000000000000000000000000000000000000000000000000000815260040161093b90612d77565b60405180910390fd5b61094f8383836116e7565b505050565b61095c611548565b73ffffffffffffffffffffffffffffffffffffffff1661097a611138565b73ffffffffffffffffffffffffffffffffffffffff16146109d0576040517f08c379a00000000000000000000000000000000000000000000000000000000081526004016109c790612de3565b60405180910390fd5b60004790503373ffffffffffffffffffffffffffffffffffffffff166108fc829081150290604051600060405180830381858888f19350505050158015610a1b573d6000803e3d6000fd5b5050565b610a3a83838360405180602001604052806000815250611210565b505050565b60011515600760149054906101000a900460ff16151514610a95576040517f08c379a0000000000000000000000000000000000000000000000000000000008152600401610a8c90612e4f565b60405180910390fd5b620186a0811115610adb576040517f08c379a0000000000000000000000000000000000000000000000000000000008152600401610ad290612ebb565b60405180910390fd5b80600b54610ae99190612f0a565b3414610b2a576040517f08c379a0000000000000000000000000000000000000000000000000000000008152600401610b2190612fd6565b60405180910390fd5b60005b81811015610b5157610b3e83611943565b8080610b4990612ff6565b915050610b2d565b5080600954610b60919061303f565b60098190555080600c60003373ffffffffffffffffffffffffffffffffffffffff1673ffffffffffffffffffffffffffffffffffffffff16815260200190815260200160002054610bb1919061303f565b600c60003373ffffffffffffffffffffffffffffffffffffffff1673ffffffffffffffffffffffffffffffffffffffff168152602001908152602001600020819055505050565b6000806002600084815260200190815260200160002060009054906101000a900473ffffffffffffffffffffffffffffffffffffffff169050600073ffffffffffffffffffffffffffffffffffffffff168173ffffffffffffffffffffffffffffffffffffffff161415610ca1576040517f08c379a0000000000000000000000000000000000000000000000000000000008152600401610c9890613107565b60405180910390fd5b80915050919050565b610cb2611548565b73ffffffffffffffffffffffffffffffffffffffff16610cd0611138565b73ffffffffffffffffffffffffffffffffffffffff1614610d26576040517f08c379a0000000000000000000000000000000000000000000000000000000008152600401610d1d90612de3565b60405180910390fd5b600760149054906101000a900460ff1615600760146101000a81548160ff021916908315150217905550565b600a8054610d5f90612b1d565b80601f0160208091040260200160405190810160405280929190818152602001828054610d8b90612b1d565b8015610dd85780601f10610dad57610100808354040283529160200191610dd8565b820191906000526020600020905b815481529060010190602001808311610dbb57829003601f168201915b505050505081565b60008073ffffffffffffffffffffffffffffffffffffffff168273ffffffffffffffffffffffffffffffffffffffff161415610e51576040517f08c379a0000000000000000000000000000000000000000000000000000000008152600401610e4890613199565b60405180910390fd5b600360008373ffffffffffffffffffffffffffffffffffffffff1673ffffffffffffffffffffffffffffffffffffffff168152602001908152602001600020549050919050565b610ea0611548565b73ffffffffffffffffffffffffffffffffffffffff16610ebe611138565b73ffffffffffffffffffffffffffffffffffffffff1614610f14576040517f08c379a0000000000000000000000000000000000000000000000000000000008152600401610f0b90612de3565b60405180910390fd5b610f1e6000611a09565b565b610f28611548565b73ffffffffffffffffffffffffffffffffffffffff16610f46611138565b73ffffffffffffffffffffffffffffffffffffffff1614610f9c576040517f08c379a0000000000000000000000000000000000000000000000000000000008152600401610f9390612de3565b60405180910390fd5b610fa4610caa565b610fac611138565b73ffffffffffffffffffffffffffffffffffffffff163373ffffffffffffffffffffffffffffffffffffffff1614611019576040517f08c379a00000000000000000000000000000000000000000000000000000000081526004016110109061322b565b60405180910390fd5b600a600b546110289190612f0a565b3414611069576040517f08c379a000000000000000000000000000000000000000000000000000000000815260040161106090613297565b60405180910390fd5b60005b600a8110156110915761107e33611943565b808061108990612ff6565b91505061106c565b50600a6009546110a1919061303f565b600981905550600a600c60003373ffffffffffffffffffffffffffffffffffffffff1673ffffffffffffffffffffffffffffffffffffffff168152602001908152602001600020546110f3919061303f565b600c60003373ffffffffffffffffffffffffffffffffffffffff1673ffffffffffffffffffffffffffffffffffffffff16815260200190815260200160002081905550565b6000600760009054906101000a900473ffffffffffffffffffffffffffffffffffffffff16905090565b60606001805461117190612b1d565b80601f016020809104026020016040519081016040528092919081815260200182805461119d90612b1d565b80156111ea5780601f106111bf576101008083540402835291602001916111ea565b820191906000526020600020905b8154815290600101906020018083116111cd57829003601f168201915b5050505050905090565b600b5481565b61120c611205611548565b8383611acf565b5050565b61122161121b611548565b83611609565b611260576040517f08c379a000000000000000000000000000000000000000000000000000000000815260040161125790612d77565b60405180910390fd5b61126c84848484611c3c565b50505050565b60095481565b606061128382611c98565b9050919050565b6000600560008473ffffffffffffffffffffffffffffffffffffffff1673ffffffffffffffffffffffffffffffffffffffff16815260200190815260200160002060008373ffffffffffffffffffffffffffffffffffffffff1673ffffffffffffffffffffffffffffffffffffffff16815260200190815260200160002060009054906101000a900460ff16905092915050565b6000600c60008373ffffffffffffffffffffffffffffffffffffffff1673ffffffffffffffffffffffffffffffffffffffff168152602001908152602001600020549050919050565b61136f611548565b73ffffffffffffffffffffffffffffffffffffffff1661138d611138565b73ffffffffffffffffffffffffffffffffffffffff16146113e3576040517f08c379a00000000000000000000000000000000000000000000000000000000081526004016113da90612de3565b60405180910390fd5b600073ffffffffffffffffffffffffffffffffffffffff168173ffffffffffffffffffffffffffffffffffffffff161415611453576040517f08c379a000000000000000000000000000000000000000000000000000000000815260040161144a90613329565b60405180910390fd5b61145c81611a09565b50565b600760149054906101000a900460ff1681565b60007f01ffc9a7000000000000000000000000000000000000000000000000000000007bffffffffffffffffffffffffffffffffffffffffffffffffffffffff1916827bffffffffffffffffffffffffffffffffffffffffffffffffffffffff1916149050919050565b60008073ffffffffffffffffffffffffffffffffffffffff166002600084815260200190815260200160002060009054906101000a900473ffffffffffffffffffffffffffffffffffffffff1673ffffffffffffffffffffffffffffffffffffffff1614159050919050565b600033905090565b816004600083815260200190815260200160002060006101000a81548173ffffffffffffffffffffffffffffffffffffffff021916908373ffffffffffffffffffffffffffffffffffffffff160217905550808273ffffffffffffffffffffffffffffffffffffffff166115c383610bf8565b73ffffffffffffffffffffffffffffffffffffffff167f8c5be1e5ebec7d5bd14f71427d1e84f3dd0314c0f7b2291e5b200ac8c7c3b92560405160405180910390a45050565b6000611614826114dc565b611653576040517f08c379a000000000000000000000000000000000000000000000000000000000815260040161164a906133bb565b60405180910390fd5b600061165e83610bf8565b90508073ffffffffffffffffffffffffffffffffffffffff168473ffffffffffffffffffffffffffffffffffffffff1614806116cd57508373ffffffffffffffffffffffffffffffffffffffff166116b584610751565b73ffffffffffffffffffffffffffffffffffffffff16145b806116de57506116dd818561128a565b5b91505092915050565b8273ffffffffffffffffffffffffffffffffffffffff1661170782610bf8565b73ffffffffffffffffffffffffffffffffffffffff161461175d576040517f08c379a00000000000000000000000000000000000000000000000000000000081526004016117549061344d565b60405180910390fd5b600073ffffffffffffffffffffffffffffffffffffffff168273ffffffffffffffffffffffffffffffffffffffff1614156117cd576040517f08c379a00000000000000000000000000000000000000000000000000000000081526004016117c4906134df565b60405180910390fd5b6117d8838383611dea565b6117e3600082611550565b6001600360008573ffffffffffffffffffffffffffffffffffffffff1673ffffffffffffffffffffffffffffffffffffffff168152602001908152602001600020600082825461183391906134ff565b925050819055506001600360008473ffffffffffffffffffffffffffffffffffffffff1673ffffffffffffffffffffffffffffffffffffffff168152602001908152602001600020600082825461188a919061303f565b92505081905550816002600083815260200190815260200160002060006101000a81548173ffffffffffffffffffffffffffffffffffffffff021916908373ffffffffffffffffffffffffffffffffffffffff160217905550808273ffffffffffffffffffffffffffffffffffffffff168473ffffffffffffffffffffffffffffffffffffffff167fddf252ad1be2c89b69c2b068fc378daa952ba7f163c4a11628f55a4df523b3ef60405160405180910390a4505050565b60006001611951600d611def565b61195b919061303f565b9050611967600d611dfd565b6119718282611e13565b611a0581600a805461198290612b1d565b80601f01602080910402602001604051908101604052809291908181526020018280546119ae90612b1d565b80156119fb5780601f106119d0576101008083540402835291602001916119fb565b820191906000526020600020905b8154815290600101906020018083116119de57829003601f168201915b5050505050611e31565b5050565b6000600760009054906101000a900473ffffffffffffffffffffffffffffffffffffffff16905081600760006101000a81548173ffffffffffffffffffffffffffffffffffffffff021916908373ffffffffffffffffffffffffffffffffffffffff1602179055508173ffffffffffffffffffffffffffffffffffffffff168173ffffffffffffffffffffffffffffffffffffffff167f8be0079c531659141344cd1fd0a4f28419497f9722a3daafe3b4186f6b6457e060405160405180910390a35050565b8173ffffffffffffffffffffffffffffffffffffffff168373ffffffffffffffffffffffffffffffffffffffff161415611b3e576040517f08c379a0000000000000000000000000000000000000000000000000000000008152600401611b359061357f565b60405180910390fd5b80600560008573ffffffffffffffffffffffffffffffffffffffff1673ffffffffffffffffffffffffffffffffffffffff16815260200190815260200160002060008473ffffffffffffffffffffffffffffffffffffffff1673ffffffffffffffffffffffffffffffffffffffff16815260200190815260200160002060006101000a81548160ff0219169083151502179055508173ffffffffffffffffffffffffffffffffffffffff168373ffffffffffffffffffffffffffffffffffffffff167f17307eab39ab6107e8899845ad3d59bd9653f200f220920489ca2b5937696c3183604051611c2f91906125df565b60405180910390a3505050565b611c478484846116e7565b611c5384848484611ea5565b611c92576040517f08c379a0000000000000000000000000000000000000000000000000000000008152600401611c8990613611565b60405180910390fd5b50505050565b6060611ca3826114dc565b611ce2576040517f08c379a0000000000000000000000000000000000000000000000000000000008152600401611cd9906136a3565b60405180910390fd5b6000600660008481526020019081526020016000208054611d0290612b1d565b80601f0160208091040260200160405190810160405280929190818152602001828054611d2e90612b1d565b8015611d7b5780601f10611d5057610100808354040283529160200191611d7b565b820191906000526020600020905b815481529060010190602001808311611d5e57829003601f168201915b505050505090506000611d8c61202d565b9050600081511415611da2578192505050611de5565b600082511115611dd7578082604051602001611dbf9291906136ff565b60405160208183030381529060405292505050611de5565b611de084612044565b925050505b919050565b505050565b600081600001549050919050565b6001816000016000828254019250508190555050565b611e2d8282604051806020016040528060008152506120eb565b5050565b611e3a826114dc565b611e79576040517f08c379a0000000000000000000000000000000000000000000000000000000008152600401611e7090613795565b60405180910390fd5b80600660008481526020019081526020016000209080519060200190611ea0929190612488565b505050565b6000611ec68473ffffffffffffffffffffffffffffffffffffffff16612146565b15612020578373ffffffffffffffffffffffffffffffffffffffff1663150b7a02611eef611548565b8786866040518563ffffffff1660e01b8152600401611f11949392919061380a565b6020604051808303816000875af1925050508015611f4d57506040513d601f19601f82011682018060405250810190611f4a919061386b565b60015b611fd0573d8060008114611f7d576040519150601f19603f3d011682016040523d82523d6000602084013e611f82565b606091505b50600081511415611fc8576040517f08c379a0000000000000000000000000000000000000000000000000000000008152600401611fbf90613611565b60405180910390fd5b805181602001fd5b63150b7a0260e01b7bffffffffffffffffffffffffffffffffffffffffffffffffffffffff1916817bffffffffffffffffffffffffffffffffffffffffffffffffffffffff191614915050612025565b600190505b949350505050565b606060405180602001604052806000815250905090565b606061204f826114dc565b61208e576040517f08c379a00000000000000000000000000000000000000000000000000000000081526004016120859061390a565b60405180910390fd5b600061209861202d565b905060008151116120b857604051806020016040528060008152506120e3565b806120c284612159565b6040516020016120d39291906136ff565b6040516020818303038152906040525b915050919050565b6120f583836122ba565b6121026000848484611ea5565b612141576040517f08c379a000000000000000000000000000000000000000000000000000000000815260040161213890613611565b60405180910390fd5b505050565b600080823b905060008111915050919050565b606060008214156121a1576040518060400160405280600181526020017f300000000000000000000000000000000000000000000000000000000000000081525090506122b5565b600082905060005b600082146121d35780806121bc90612ff6565b915050600a826121cc9190613959565b91506121a9565b60008167ffffffffffffffff8111156121ef576121ee612900565b5b6040519080825280601f01601f1916602001820160405280156122215781602001600182028036833780820191505090505b5090505b600085146122ae5760018261223a91906134ff565b9150600a85612249919061398a565b6030612255919061303f565b60f81b81838151811061226b5761226a6139bb565b5b60200101907effffffffffffffffffffffffffffffffffffffffffffffffffffffffffffff1916908160001a905350600a856122a79190613959565b9450612225565b8093505050505b919050565b600073ffffffffffffffffffffffffffffffffffffffff168273ffffffffffffffffffffffffffffffffffffffff16141561232a576040517f08c379a000000000000000000000000000000000000000000000000000000000815260040161232190613a36565b60405180910390fd5b612333816114dc565b15612373576040517f08c379a000000000000000000000000000000000000000000000000000000000815260040161236a90613aa2565b60405180910390fd5b61237f60008383611dea565b6001600360008473ffffffffffffffffffffffffffffffffffffffff1673ffffffffffffffffffffffffffffffffffffffff16815260200190815260200160002060008282546123cf919061303f565b92505081905550816002600083815260200190815260200160002060006101000a81548173ffffffffffffffffffffffffffffffffffffffff021916908373ffffffffffffffffffffffffffffffffffffffff160217905550808273ffffffffffffffffffffffffffffffffffffffff16600073ffffffffffffffffffffffffffffffffffffffff167fddf252ad1be2c89b69c2b068fc378daa952ba7f163c4a11628f55a4df523b3ef60405160405180910390a45050565b82805461249490612b1d565b90600052602060002090601f0160209004810192826124b657600085556124fd565b82601f106124cf57805160ff19168380011785556124fd565b828001600101855582156124fd579182015b828111156124fc5782518255916020019190600101906124e1565b5b50905061250a919061250e565b5090565b5b8082111561252757600081600090555060010161250f565b5090565b6000604051905090565b600080fd5b600080fd5b60007fffffffff0000000000000000000000000000000000000000000000000000000082169050919050565b6125748161253f565b811461257f57600080fd5b50565b6000813590506125918161256b565b92915050565b6000602082840312156125ad576125ac612535565b5b60006125bb84828501612582565b91505092915050565b60008115159050919050565b6125d9816125c4565b82525050565b60006020820190506125f460008301846125d0565b92915050565b600081519050919050565b600082825260208201905092915050565b60005b83811015612634578082015181840152602081019050612619565b83811115612643576000848401525b50505050565b6000601f19601f8301169050919050565b6000612665826125fa565b61266f8185612605565b935061267f818560208601612616565b61268881612649565b840191505092915050565b600060208201905081810360008301526126ad818461265a565b905092915050565b6000819050919050565b6126c8816126b5565b81146126d357600080fd5b50565b6000813590506126e5816126bf565b92915050565b60006020828403121561270157612700612535565b5b600061270f848285016126d6565b91505092915050565b600073ffffffffffffffffffffffffffffffffffffffff82169050919050565b600061274382612718565b9050919050565b61275381612738565b82525050565b600060208201905061276e600083018461274a565b92915050565b61277d81612738565b811461278857600080fd5b50565b60008135905061279a81612774565b92915050565b600080604083850312156127b7576127b6612535565b5b60006127c58582860161278b565b92505060206127d6858286016126d6565b9150509250929050565b6127e9816126b5565b82525050565b600060208201905061280460008301846127e0565b92915050565b60008060006060848603121561282357612822612535565b5b60006128318682870161278b565b93505060206128428682870161278b565b9250506040612853868287016126d6565b9150509250925092565b60006020828403121561287357612872612535565b5b60006128818482850161278b565b91505092915050565b612893816125c4565b811461289e57600080fd5b50565b6000813590506128b08161288a565b92915050565b600080604083850312156128cd576128cc612535565b5b60006128db8582860161278b565b92505060206128ec858286016128a1565b9150509250929050565b600080fd5b600080fd5b7f4e487b7100000000000000000000000000000000000000000000000000000000600052604160045260246000fd5b61293882612649565b810181811067ffffffffffffffff8211171561295757612956612900565b5b80604052505050565b600061296a61252b565b9050612976828261292f565b919050565b600067ffffffffffffffff82111561299657612995612900565b5b61299f82612649565b9050602081019050919050565b82818337600083830152505050565b60006129ce6129c98461297b565b612960565b9050828152602081018484840111156129ea576129e96128fb565b5b6129f58482856129ac565b509392505050565b600082601f830112612a1257612a116128f6565b5b8135612a228482602086016129bb565b91505092915050565b60008060008060808587031215612a4557612a44612535565b5b6000612a538782880161278b565b9450506020612a648782880161278b565b9350506040612a75878288016126d6565b925050606085013567ffffffffffffffff811115612a9657612a9561253a565b5b612aa2878288016129fd565b91505092959194509250565b60008060408385031215612ac557612ac4612535565b5b6000612ad38582860161278b565b9250506020612ae48582860161278b565b9150509250929050565b7f4e487b7100000000000000000000000000000000000000000000000000000000600052602260045260246000fd5b60006002820490506001821680612b3557607f821691505b60208210811415612b4957612b48612aee565b5b50919050565b7f4552433732313a20617070726f76656420717565727920666f72206e6f6e657860008201527f697374656e7420746f6b656e0000000000000000000000000000000000000000602082015250565b6000612bab602c83612605565b9150612bb682612b4f565b604082019050919050565b60006020820190508181036000830152612bda81612b9e565b9050919050565b7f4552433732313a20617070726f76616c20746f2063757272656e74206f776e6560008201527f7200000000000000000000000000000000000000000000000000000000000000602082015250565b6000612c3d602183612605565b9150612c4882612be1565b604082019050919050565b60006020820190508181036000830152612c6c81612c30565b9050919050565b7f4552433732313a20617070726f76652063616c6c6572206973206e6f74206f7760008201527f6e6572206e6f7220617070726f76656420666f7220616c6c0000000000000000602082015250565b6000612ccf603883612605565b9150612cda82612c73565b604082019050919050565b60006020820190508181036000830152612cfe81612cc2565b9050919050565b7f4552433732313a207472616e736665722063616c6c6572206973206e6f74206f60008201527f776e6572206e6f7220617070726f766564000000000000000000000000000000602082015250565b6000612d61603183612605565b9150612d6c82612d05565b604082019050919050565b60006020820190508181036000830152612d9081612d54565b9050919050565b7f4f776e61626c653a2063616c6c6572206973206e6f7420746865206f776e6572600082015250565b6000612dcd602083612605565b9150612dd882612d97565b602082019050919050565b60006020820190508181036000830152612dfc81612dc0565b9050919050565b7f5468652047616d6520686173206e6f7420626567756e00000000000000000000600082015250565b6000612e39601683612605565b9150612e4482612e03565b602082019050919050565b60006020820190508181036000830152612e6881612e2c565b9050919050565b7f53746f70207468696e6b696e672061626f7574205468652047616d652e000000600082015250565b6000612ea5601d83612605565b9150612eb082612e6f565b602082019050919050565b60006020820190508181036000830152612ed481612e98565b9050919050565b7f4e487b7100000000000000000000000000000000000000000000000000000000600052601160045260246000fd5b6000612f15826126b5565b9150612f20836126b5565b9250817fffffffffffffffffffffffffffffffffffffffffffffffffffffffffffffffff0483118215151615612f5957612f58612edb565b5b828202905092915050565b7f536f72727920667269656e642c202073656e642074686520657861637420616d60008201527f6f756e74206f6620457468657220726571756972656400000000000000000000602082015250565b6000612fc0603683612605565b9150612fcb82612f64565b604082019050919050565b60006020820190508181036000830152612fef81612fb3565b9050919050565b6000613001826126b5565b91507fffffffffffffffffffffffffffffffffffffffffffffffffffffffffffffffff82141561303457613033612edb565b5b600182019050919050565b600061304a826126b5565b9150613055836126b5565b9250827fffffffffffffffffffffffffffffffffffffffffffffffffffffffffffffffff0382111561308a57613089612edb565b5b828201905092915050565b7f4552433732313a206f776e657220717565727920666f72206e6f6e657869737460008201527f656e7420746f6b656e0000000000000000000000000000000000000000000000602082015250565b60006130f1602983612605565b91506130fc82613095565b604082019050919050565b60006020820190508181036000830152613120816130e4565b9050919050565b7f4552433732313a2062616c616e636520717565727920666f7220746865207a6560008201527f726f206164647265737300000000000000000000000000000000000000000000602082015250565b6000613183602a83612605565b915061318e82613127565b604082019050919050565b600060208201905081810360008301526131b281613176565b9050919050565b7f4f6e6c7920746865206f776e65722063616e2063616c6c20746869732066756e60008201527f6374696f6e2e0000000000000000000000000000000000000000000000000000602082015250565b6000613215602683612605565b9150613220826131b9565b604082019050919050565b6000602082019050818103600083015261324481613208565b9050919050565b7f4e6f7420656e6f756768204574686572207761732073656e7400000000000000600082015250565b6000613281601983612605565b915061328c8261324b565b602082019050919050565b600060208201905081810360008301526132b081613274565b9050919050565b7f4f776e61626c653a206e6577206f776e657220697320746865207a65726f206160008201527f6464726573730000000000000000000000000000000000000000000000000000602082015250565b6000613313602683612605565b915061331e826132b7565b604082019050919050565b6000602082019050818103600083015261334281613306565b9050919050565b7f4552433732313a206f70657261746f7220717565727920666f72206e6f6e657860008201527f697374656e7420746f6b656e0000000000000000000000000000000000000000602082015250565b60006133a5602c83612605565b91506133b082613349565b604082019050919050565b600060208201905081810360008301526133d481613398565b9050919050565b7f4552433732313a207472616e73666572206f6620746f6b656e2074686174206960008201527f73206e6f74206f776e0000000000000000000000000000000000000000000000602082015250565b6000613437602983612605565b9150613442826133db565b604082019050919050565b600060208201905081810360008301526134668161342a565b9050919050565b7f4552433732313a207472616e7366657220746f20746865207a65726f2061646460008201527f7265737300000000000000000000000000000000000000000000000000000000602082015250565b60006134c9602483612605565b91506134d48261346d565b604082019050919050565b600060208201905081810360008301526134f8816134bc565b9050919050565b600061350a826126b5565b9150613515836126b5565b92508282101561352857613527612edb565b5b828203905092915050565b7f4552433732313a20617070726f766520746f2063616c6c657200000000000000600082015250565b6000613569601983612605565b915061357482613533565b602082019050919050565b600060208201905081810360008301526135988161355c565b9050919050565b7f4552433732313a207472616e7366657220746f206e6f6e20455243373231526560008201527f63656976657220696d706c656d656e7465720000000000000000000000000000602082015250565b60006135fb603283612605565b91506136068261359f565b604082019050919050565b6000602082019050818103600083015261362a816135ee565b9050919050565b7f45524337323155524953746f726167653a2055524920717565727920666f722060008201527f6e6f6e6578697374656e7420746f6b656e000000000000000000000000000000602082015250565b600061368d603183612605565b915061369882613631565b604082019050919050565b600060208201905081810360008301526136bc81613680565b9050919050565b600081905092915050565b60006136d9826125fa565b6136e381856136c3565b93506136f3818560208601612616565b80840191505092915050565b600061370b82856136ce565b915061371782846136ce565b91508190509392505050565b7f45524337323155524953746f726167653a2055524920736574206f66206e6f6e60008201527f6578697374656e7420746f6b656e000000000000000000000000000000000000602082015250565b600061377f602e83612605565b915061378a82613723565b604082019050919050565b600060208201905081810360008301526137ae81613772565b9050919050565b600081519050919050565b600082825260208201905092915050565b60006137dc826137b5565b6137e681856137c0565b93506137f6818560208601612616565b6137ff81612649565b840191505092915050565b600060808201905061381f600083018761274a565b61382c602083018661274a565b61383960408301856127e0565b818103606083015261384b81846137d1565b905095945050505050565b6000815190506138658161256b565b92915050565b60006020828403121561388157613880612535565b5b600061388f84828501613856565b91505092915050565b7f4552433732314d657461646174613a2055524920717565727920666f72206e6f60008201527f6e6578697374656e7420746f6b656e0000000000000000000000000000000000602082015250565b60006138f4602f83612605565b91506138ff82613898565b604082019050919050565b60006020820190508181036000830152613923816138e7565b9050919050565b7f4e487b7100000000000000000000000000000000000000000000000000000000600052601260045260246000fd5b6000613964826126b5565b915061396f836126b5565b92508261397f5761397e61392a565b5b828204905092915050565b6000613995826126b5565b91506139a0836126b5565b9250826139b0576139af61392a565b5b828206905092915050565b7f4e487b7100000000000000000000000000000000000000000000000000000000600052603260045260246000fd5b7f4552433732313a206d696e7420746f20746865207a65726f2061646472657373600082015250565b6000613a20602083612605565b9150613a2b826139ea565b602082019050919050565b60006020820190508181036000830152613a4f81613a13565b9050919050565b7f4552433732313a20746f6b656e20616c7265616479206d696e74656400000000600082015250565b6000613a8c601c83612605565b9150613a9782613a56565b602082019050919050565b60006020820190508181036000830152613abb81613a7f565b905091905056fea264697066735822122076242e181f94c0ade19302f4070712309238f3022674225d25f9808c359b002564736f6c634300080a003368747470733a2f2f6261666b726569676d333374767762643374366c656437746c746235666636377a7662686f6669686a3761786966746f35663766666e736d67686d2e697066732e647765622e6c696e6b2f",
  "immutableReferences": {},
  "source": "// SPDX-License-Identifier: MIT\npragma solidity >=0.4.22 <0.9.0;\n\nimport \"@openzeppelin/contracts/token/ERC721/ERC721.sol\";\nimport \"@openzeppelin/contracts/token/ERC721/extensions/ERC721Burnable.sol\";\nimport \"@openzeppelin/contracts/token/ERC721/extensions/ERC721URIStorage.sol\";\nimport \"@openzeppelin/contracts/access/Ownable.sol\";\nimport \"@openzeppelin/contracts/utils/Counters.sol\";\n\n\n/// @title The Game-Don't think about it \n/// @author rubrixks.eth\n/// @notice Will only be available on testnets until deployed on a L2 scaling solution\n/// @dev All function calls are currently implemented without side effects\n/// @custom:experimental This is an experimental contract.\ncontract TheGame is ERC721,ERC721URIStorage, Ownable {\n\n  bool public GameStarts = false;\n  uint public totalSupply = 2**256-1;\n  uint public totalLosses =0;\n  string public baseURI = \"https://bafkreigm33tvwbd3t6led7tltb5ff67zvbhofihj7axifto5f7ffnsmghm.ipfs.dweb.link/\";\n  uint public LossBasePrice = .00025 ether;\n  mapping (address=>uint) LossTracker;\n  using Counters for Counters.Counter;\n    Counters.Counter private _tokenIdCounter;\n\n\n    constructor() ERC721(\"TheGame\", \"DTAI\") { \n    }\n    ///Needs to only allow owner to call\n\n    /// @notice Allows creator to mint the first 100 losses\n    /// @dev Only the owner can call this function\n    function FirstLoser() payable public onlyOwner  {\n      beginTheGame();\n      require(msg.sender == owner(), \"Only the owner can call this function.\");\n      require(msg.value == LossBasePrice * 10,\"Not enough Ether was sent\");\n        for (uint i = 0; i < 10; i++) {\n          safeMint(msg.sender);\n        }\n        totalLosses = totalLosses + 10;\n        LossTracker[msg.sender] = LossTracker[msg.sender] + 10;\n    } \n    ///Needs to HandOutLs after owner is given first 100 Ls;\n    /// notice Anyone who has thought about the game can mint as many Losses as they have thought of \n    /// dev Keeps track of how many Losses have been minted \n    /// param address wanting to mint and amount of losses wanted on the address\n    function HandOutLs(address to, uint amountOfLosses) payable public {\n      require(GameStarts == true,\"The Game has not begun\");\n      require(amountOfLosses <= 100000,\"Stop thinking about The Game.\");\n      require(msg.value == LossBasePrice * amountOfLosses,\"Sorry friend,  send the exact amount of Ether required\");\n        for (uint i = 0; i < amountOfLosses; i++) {\n          safeMint(to);\n        }\n        totalLosses = totalLosses + amountOfLosses;\n        LossTracker[msg.sender] = LossTracker[msg.sender] + amountOfLosses;\n        }\n  /// notice Calculate tree age in years, rounded up, for live trees\n    /// dev safely mints NFT\n    /// param to is the address of the address wanting to mint NFT\n    function safeMint(address to) internal {\n        uint tokenId = _tokenIdCounter.current()+1;\n        _tokenIdCounter.increment();\n        _safeMint(to, tokenId);\n        _setTokenURI(tokenId, baseURI);\n    }\n\n    // The following functions are overrides required by Solidity.\n    ///NEEDS TO BE FIXED\n    /// notice burns the Loss NFT from the address requesting to burn\n    /// dev Only the owner can burn their Loss\n    /// param tokenID so the address can identify which loss to get rid of the NFT\n    function _burn(uint256 tokenId) internal override(ERC721, ERC721URIStorage) {\n        super._burn(tokenId);\n    }\n    /// notice Returns JSON file of the The Game\n    /// dev Must return baseURI for all tokenURI requests\n    /// param tokenId is what makes the token nonfungible, it keeps track of when the NFT want minted\n    /// return URI\n    function tokenURI(uint256 tokenId) public view override(ERC721, ERC721URIStorage) returns (string memory) {\n        return super.tokenURI(tokenId);\n    }\n    /// notice Returns who the amount of Losses on in one address\n    /// dev Must return baseURI for all tokenURI requests\n    /// param ad is the address that tracks how many times the account has minted or has been transferred losses\n    /// returns a number\n    function lossFinder(address ad) public view returns(uint) {\n      return LossTracker[ad];\n    }\n    function withdraw() payable public onlyOwner {\n        uint balance = address(this).balance;\n        payable(msg.sender).transfer(balance);\n    }\n    function beginTheGame() public onlyOwner {\n        GameStarts = !GameStarts;\n    }\n}\n",
  "sourcePath": "/Users/rubengarcia/consensys-blockchain-developer-bootcamp-2021/Consensys-final-project/contracts/TheGame.sol",
  "compiler": {
    "name": "solc",
    "version": "0.8.10+commit.fc410830.Emscripten.clang"
  },
  "schemaVersion": "3.4.3",
  "updatedAt": "2021-12-18T23:28:10.745Z",
  "networkType": "ethereum",
  "devdoc": {
    "author": "rubrixks.eth",
    "custom:experimental": "This is an experimental contract.",
    "details": "All function calls are currently implemented without side effects",
    "kind": "dev",
    "methods": {
      "FirstLoser()": {
        "details": "Only the owner can call this function"
      },
      "approve(address,uint256)": {
        "details": "See {IERC721-approve}."
      },
      "balanceOf(address)": {
        "details": "See {IERC721-balanceOf}."
      },
      "getApproved(uint256)": {
        "details": "See {IERC721-getApproved}."
      },
      "isApprovedForAll(address,address)": {
        "details": "See {IERC721-isApprovedForAll}."
      },
      "name()": {
        "details": "See {IERC721Metadata-name}."
      },
      "owner()": {
        "details": "Returns the address of the current owner."
      },
      "ownerOf(uint256)": {
        "details": "See {IERC721-ownerOf}."
      },
      "renounceOwnership()": {
        "details": "Leaves the contract without owner. It will not be possible to call `onlyOwner` functions anymore. Can only be called by the current owner. NOTE: Renouncing ownership will leave the contract without an owner, thereby removing any functionality that is only available to the owner."
      },
      "safeTransferFrom(address,address,uint256)": {
        "details": "See {IERC721-safeTransferFrom}."
      },
      "safeTransferFrom(address,address,uint256,bytes)": {
        "details": "See {IERC721-safeTransferFrom}."
      },
      "setApprovalForAll(address,bool)": {
        "details": "See {IERC721-setApprovalForAll}."
      },
      "supportsInterface(bytes4)": {
        "details": "See {IERC165-supportsInterface}."
      },
      "symbol()": {
        "details": "See {IERC721Metadata-symbol}."
      },
      "transferFrom(address,address,uint256)": {
        "details": "See {IERC721-transferFrom}."
      },
      "transferOwnership(address)": {
        "details": "Transfers ownership of the contract to a new account (`newOwner`). Can only be called by the current owner."
      }
    },
    "title": "The Game-Don't think about it ",
    "version": 1
  },
  "userdoc": {
    "kind": "user",
    "methods": {
      "FirstLoser()": {
        "notice": "Allows creator to mint the first 100 losses"
      },
      "HandOutLs(address,uint256)": {
        "notice": "Needs to HandOutLs after owner is given first 100 Ls; notice Anyone who has thought about the game can mint as many Losses as they have thought of  dev Keeps track of how many Losses have been minted  param address wanting to mint and amount of losses wanted on the address"
      },
      "lossFinder(address)": {
        "notice": "notice Returns who the amount of Losses on in one address dev Must return baseURI for all tokenURI requests param ad is the address that tracks how many times the account has minted or has been transferred losses returns a number"
      },
      "tokenURI(uint256)": {
        "notice": "notice Returns JSON file of the The Game dev Must return baseURI for all tokenURI requests param tokenId is what makes the token nonfungible, it keeps track of when the NFT want minted return URI"
      }
    },
    "notice": "Will only be available on testnets until deployed on a L2 scaling solution",
    "version": 1
  }
}