{
  "contractName": "TheGame",
  "abi": [
    {
      "inputs": [],
      "stateMutability": "nonpayable",
      "type": "constructor"
    },
    {
      "anonymous": false,
      "inputs": [
        {
          "indexed": true,
          "internalType": "address",
          "name": "account",
          "type": "address"
        },
        {
          "indexed": true,
          "internalType": "address",
          "name": "operator",
          "type": "address"
        },
        {
          "indexed": false,
          "internalType": "bool",
          "name": "approved",
          "type": "bool"
        }
      ],
      "name": "ApprovalForAll",
      "type": "event"
    },
    {
      "anonymous": false,
      "inputs": [
        {
          "indexed": true,
          "internalType": "address",
          "name": "previousOwner",
          "type": "address"
        },
        {
          "indexed": true,
          "internalType": "address",
          "name": "newOwner",
          "type": "address"
        }
      ],
      "name": "OwnershipTransferred",
      "type": "event"
    },
    {
      "anonymous": false,
      "inputs": [
        {
          "indexed": true,
          "internalType": "address",
          "name": "operator",
          "type": "address"
        },
        {
          "indexed": true,
          "internalType": "address",
          "name": "from",
          "type": "address"
        },
        {
          "indexed": true,
          "internalType": "address",
          "name": "to",
          "type": "address"
        },
        {
          "indexed": false,
          "internalType": "uint256[]",
          "name": "ids",
          "type": "uint256[]"
        },
        {
          "indexed": false,
          "internalType": "uint256[]",
          "name": "values",
          "type": "uint256[]"
        }
      ],
      "name": "TransferBatch",
      "type": "event"
    },
    {
      "anonymous": false,
      "inputs": [
        {
          "indexed": true,
          "internalType": "address",
          "name": "operator",
          "type": "address"
        },
        {
          "indexed": true,
          "internalType": "address",
          "name": "from",
          "type": "address"
        },
        {
          "indexed": true,
          "internalType": "address",
          "name": "to",
          "type": "address"
        },
        {
          "indexed": false,
          "internalType": "uint256",
          "name": "id",
          "type": "uint256"
        },
        {
          "indexed": false,
          "internalType": "uint256",
          "name": "value",
          "type": "uint256"
        }
      ],
      "name": "TransferSingle",
      "type": "event"
    },
    {
      "anonymous": false,
      "inputs": [
        {
          "indexed": false,
          "internalType": "string",
          "name": "value",
          "type": "string"
        },
        {
          "indexed": true,
          "internalType": "uint256",
          "name": "id",
          "type": "uint256"
        }
      ],
      "name": "URI",
      "type": "event"
    },
    {
      "inputs": [
        {
          "internalType": "uint256",
          "name": "",
          "type": "uint256"
        }
      ],
      "name": "Loses",
      "outputs": [
        {
          "internalType": "uint256",
          "name": "",
          "type": "uint256"
        }
      ],
      "stateMutability": "view",
      "type": "function"
    },
    {
      "inputs": [
        {
          "internalType": "address",
          "name": "account",
          "type": "address"
        },
        {
          "internalType": "uint256",
          "name": "id",
          "type": "uint256"
        }
      ],
      "name": "balanceOf",
      "outputs": [
        {
          "internalType": "uint256",
          "name": "",
          "type": "uint256"
        }
      ],
      "stateMutability": "view",
      "type": "function"
    },
    {
      "inputs": [
        {
          "internalType": "address[]",
          "name": "accounts",
          "type": "address[]"
        },
        {
          "internalType": "uint256[]",
          "name": "ids",
          "type": "uint256[]"
        }
      ],
      "name": "balanceOfBatch",
      "outputs": [
        {
          "internalType": "uint256[]",
          "name": "",
          "type": "uint256[]"
        }
      ],
      "stateMutability": "view",
      "type": "function"
    },
    {
      "inputs": [],
      "name": "cost",
      "outputs": [
        {
          "internalType": "uint256",
          "name": "",
          "type": "uint256"
        }
      ],
      "stateMutability": "view",
      "type": "function"
    },
    {
      "inputs": [
        {
          "internalType": "address",
          "name": "account",
          "type": "address"
        },
        {
          "internalType": "address",
          "name": "operator",
          "type": "address"
        }
      ],
      "name": "isApprovedForAll",
      "outputs": [
        {
          "internalType": "bool",
          "name": "",
          "type": "bool"
        }
      ],
      "stateMutability": "view",
      "type": "function"
    },
    {
      "inputs": [],
      "name": "owner",
      "outputs": [
        {
          "internalType": "address",
          "name": "",
          "type": "address"
        }
      ],
      "stateMutability": "view",
      "type": "function"
    },
    {
      "inputs": [],
      "name": "renounceOwnership",
      "outputs": [],
      "stateMutability": "nonpayable",
      "type": "function"
    },
    {
      "inputs": [
        {
          "internalType": "address",
          "name": "from",
          "type": "address"
        },
        {
          "internalType": "address",
          "name": "to",
          "type": "address"
        },
        {
          "internalType": "uint256[]",
          "name": "ids",
          "type": "uint256[]"
        },
        {
          "internalType": "uint256[]",
          "name": "amounts",
          "type": "uint256[]"
        },
        {
          "internalType": "bytes",
          "name": "data",
          "type": "bytes"
        }
      ],
      "name": "safeBatchTransferFrom",
      "outputs": [],
      "stateMutability": "nonpayable",
      "type": "function"
    },
    {
      "inputs": [
        {
          "internalType": "address",
          "name": "from",
          "type": "address"
        },
        {
          "internalType": "address",
          "name": "to",
          "type": "address"
        },
        {
          "internalType": "uint256",
          "name": "id",
          "type": "uint256"
        },
        {
          "internalType": "uint256",
          "name": "amount",
          "type": "uint256"
        },
        {
          "internalType": "bytes",
          "name": "data",
          "type": "bytes"
        }
      ],
      "name": "safeTransferFrom",
      "outputs": [],
      "stateMutability": "nonpayable",
      "type": "function"
    },
    {
      "inputs": [
        {
          "internalType": "address",
          "name": "operator",
          "type": "address"
        },
        {
          "internalType": "bool",
          "name": "approved",
          "type": "bool"
        }
      ],
      "name": "setApprovalForAll",
      "outputs": [],
      "stateMutability": "nonpayable",
      "type": "function"
    },
    {
      "inputs": [
        {
          "internalType": "bytes4",
          "name": "interfaceId",
          "type": "bytes4"
        }
      ],
      "name": "supportsInterface",
      "outputs": [
        {
          "internalType": "bool",
          "name": "",
          "type": "bool"
        }
      ],
      "stateMutability": "view",
      "type": "function"
    },
    {
      "inputs": [],
      "name": "totalLoses",
      "outputs": [
        {
          "internalType": "uint256",
          "name": "",
          "type": "uint256"
        }
      ],
      "stateMutability": "view",
      "type": "function"
    },
    {
      "inputs": [
        {
          "internalType": "uint256",
          "name": "",
          "type": "uint256"
        }
      ],
      "name": "totalSupply",
      "outputs": [
        {
          "internalType": "uint256",
          "name": "",
          "type": "uint256"
        }
      ],
      "stateMutability": "view",
      "type": "function"
    },
    {
      "inputs": [
        {
          "internalType": "address",
          "name": "newOwner",
          "type": "address"
        }
      ],
      "name": "transferOwnership",
      "outputs": [],
      "stateMutability": "nonpayable",
      "type": "function"
    },
    {
      "inputs": [
        {
          "internalType": "uint256",
          "name": "",
          "type": "uint256"
        }
      ],
      "name": "uri",
      "outputs": [
        {
          "internalType": "string",
          "name": "",
          "type": "string"
        }
      ],
      "stateMutability": "view",
      "type": "function"
    },
    {
      "inputs": [
        {
          "internalType": "uint256",
          "name": "id",
          "type": "uint256"
        },
        {
          "internalType": "uint256",
          "name": "amount",
          "type": "uint256"
        }
      ],
      "name": "mint",
      "outputs": [],
      "stateMutability": "payable",
      "type": "function"
    },
    {
      "inputs": [],
      "name": "getBalance",
      "outputs": [
        {
          "internalType": "uint256",
          "name": "",
          "type": "uint256"
        }
      ],
      "stateMutability": "view",
      "type": "function"
    }
  ],
  "bytecode": "0x60806040526040518060400160405280633b9aca0063ffffffff168152602001633b9aca0063ffffffff1681525060049060026200003f929190620001c9565b506040518060400160405280600060ff168152602001600060ff1681525060059060026200006f92919062000223565b50655af3107a400060065560006007553480156200008c57600080fd5b506040518060800160405280605c815260200162003786605c9139620000b881620000df60201b60201c565b50620000d9620000cd620000fb60201b60201c565b6200010360201b60201c565b6200038f565b8060029080519060200190620000f79291906200027a565b5050565b600033905090565b6000600360009054906101000a900473ffffffffffffffffffffffffffffffffffffffff16905081600360006101000a81548173ffffffffffffffffffffffffffffffffffffffff021916908373ffffffffffffffffffffffffffffffffffffffff1602179055508173ffffffffffffffffffffffffffffffffffffffff168173ffffffffffffffffffffffffffffffffffffffff167f8be0079c531659141344cd1fd0a4f28419497f9722a3daafe3b4186f6b6457e060405160405180910390a35050565b82805482825590600052602060002090810192821562000210579160200282015b828111156200020f578251829063ffffffff16905591602001919060010190620001ea565b5b5090506200021f91906200030b565b5090565b82805482825590600052602060002090810192821562000267579160200282015b8281111562000266578251829060ff1690559160200191906001019062000244565b5b5090506200027691906200030b565b5090565b828054620002889062000359565b90600052602060002090601f016020900481019282620002ac5760008555620002f8565b82601f10620002c757805160ff1916838001178555620002f8565b82800160010185558215620002f8579182015b82811115620002f7578251825591602001919060010190620002da565b5b5090506200030791906200030b565b5090565b5b80821115620003265760008160009055506001016200030c565b5090565b7f4e487b7100000000000000000000000000000000000000000000000000000000600052602260045260246000fd5b600060028204905060018216806200037257607f821691505b602082108114156200038957620003886200032a565b5b50919050565b6133e7806200039f6000396000f3fe6080604052600436106100fd5760003560e01c8063715018a611610095578063bd85b03911610064578063bd85b03914610339578063d03322e314610376578063e985e9c5146103a1578063f242432a146103de578063f2fde38b14610407576100fd565b8063715018a6146102915780638da5cb5b146102a8578063a22cb465146102d3578063a8518e23146102fc576100fd565b806313faede6116100d157806313faede6146101e45780631b2ef1ca1461020f5780632eb2c2d61461022b5780634e1273f414610254576100fd565b8062fdd58e1461010257806301ffc9a71461013f5780630e89341c1461017c57806312065fe0146101b9575b600080fd5b34801561010e57600080fd5b5061012960048036038101906101249190611c69565b610430565b6040516101369190611cb8565b60405180910390f35b34801561014b57600080fd5b5061016660048036038101906101619190611d2b565b6104f9565b6040516101739190611d73565b60405180910390f35b34801561018857600080fd5b506101a3600480360381019061019e9190611d8e565b6105db565b6040516101b09190611e54565b60405180910390f35b3480156101c557600080fd5b506101ce61066f565b6040516101db9190611cb8565b60405180910390f35b3480156101f057600080fd5b506101f9610677565b6040516102069190611cb8565b60405180910390f35b61022960048036038101906102249190611e76565b61067d565b005b34801561023757600080fd5b50610252600480360381019061024d91906120b3565b6108ae565b005b34801561026057600080fd5b5061027b60048036038101906102769190612245565b61094f565b604051610288919061237b565b60405180910390f35b34801561029d57600080fd5b506102a6610a68565b005b3480156102b457600080fd5b506102bd610af0565b6040516102ca91906123ac565b60405180910390f35b3480156102df57600080fd5b506102fa60048036038101906102f591906123f3565b610b1a565b005b34801561030857600080fd5b50610323600480360381019061031e9190611d8e565b610b30565b6040516103309190611cb8565b60405180910390f35b34801561034557600080fd5b50610360600480360381019061035b9190611d8e565b610b54565b60405161036d9190611cb8565b60405180910390f35b34801561038257600080fd5b5061038b610b78565b6040516103989190611cb8565b60405180910390f35b3480156103ad57600080fd5b506103c860048036038101906103c39190612433565b610b7e565b6040516103d59190611d73565b60405180910390f35b3480156103ea57600080fd5b5061040560048036038101906104009190612473565b610c12565b005b34801561041357600080fd5b5061042e6004803603810190610429919061250a565b610cb3565b005b60008073ffffffffffffffffffffffffffffffffffffffff168373ffffffffffffffffffffffffffffffffffffffff1614156104a1576040517f08c379a0000000000000000000000000000000000000000000000000000000008152600401610498906125a9565b60405180910390fd5b60008083815260200190815260200160002060008473ffffffffffffffffffffffffffffffffffffffff1673ffffffffffffffffffffffffffffffffffffffff16815260200190815260200160002054905092915050565b60007fd9b67a26000000000000000000000000000000000000000000000000000000007bffffffffffffffffffffffffffffffffffffffffffffffffffffffff1916827bffffffffffffffffffffffffffffffffffffffffffffffffffffffff191614806105c457507f0e89341c000000000000000000000000000000000000000000000000000000007bffffffffffffffffffffffffffffffffffffffffffffffffffffffff1916827bffffffffffffffffffffffffffffffffffffffffffffffffffffffff1916145b806105d457506105d382610dab565b5b9050919050565b6060600280546105ea906125f8565b80601f0160208091040260200160405190810160405280929190818152602001828054610616906125f8565b80156106635780601f1061063857610100808354040283529160200191610663565b820191906000526020600020905b81548152906001019060200180831161064657829003601f168201915b50505050509050919050565b600047905090565b60065481565b6004805490508211156106c5576040517f08c379a00000000000000000000000000000000000000000000000000000000081526004016106bc906126c2565b60405180910390fd5b60008211610708576040517f08c379a00000000000000000000000000000000000000000000000000000000081526004016106ff9061272e565b60405180910390fd5b6001811461074b576040517f08c379a0000000000000000000000000000000000000000000000000000000008152600401610742906127c0565b60405180910390fd5b600060018361075a919061280f565b9050600481815481106107705761076f612843565b5b90600052602060002001546005828154811061078f5761078e612843565b5b906000526020600020015411156107db576040517f08c379a00000000000000000000000000000000000000000000000000000000081526004016107d290612930565b60405180910390fd5b600654341461081f576040517f08c379a0000000000000000000000000000000000000000000000000000000008152600401610816906129c2565b60405180910390fd5b6108603384846040518060400160405280600481526020017f3078303000000000000000000000000000000000000000000000000000000000815250610e15565b816005828154811061087557610874612843565b5b90600052602060002001600082825461088e91906129e2565b92505081905550816007546108a391906129e2565b600781905550505050565b6108b6610fab565b73ffffffffffffffffffffffffffffffffffffffff168573ffffffffffffffffffffffffffffffffffffffff1614806108fc57506108fb856108f6610fab565b610b7e565b5b61093b576040517f08c379a000000000000000000000000000000000000000000000000000000000815260040161093290612aaa565b60405180910390fd5b6109488585858585610fb3565b5050505050565b60608151835114610995576040517f08c379a000000000000000000000000000000000000000000000000000000000815260040161098c90612b3c565b60405180910390fd5b6000835167ffffffffffffffff8111156109b2576109b1611ebb565b5b6040519080825280602002602001820160405280156109e05781602001602082028036833780820191505090505b50905060005b8451811015610a5d57610a2d858281518110610a0557610a04612843565b5b6020026020010151858381518110610a2057610a1f612843565b5b6020026020010151610430565b828281518110610a4057610a3f612843565b5b60200260200101818152505080610a5690612b5c565b90506109e6565b508091505092915050565b610a70610fab565b73ffffffffffffffffffffffffffffffffffffffff16610a8e610af0565b73ffffffffffffffffffffffffffffffffffffffff1614610ae4576040517f08c379a0000000000000000000000000000000000000000000000000000000008152600401610adb90612bf1565b60405180910390fd5b610aee60006112c7565b565b6000600360009054906101000a900473ffffffffffffffffffffffffffffffffffffffff16905090565b610b2c610b25610fab565b838361138d565b5050565b60058181548110610b4057600080fd5b906000526020600020016000915090505481565b60048181548110610b6457600080fd5b906000526020600020016000915090505481565b60075481565b6000600160008473ffffffffffffffffffffffffffffffffffffffff1673ffffffffffffffffffffffffffffffffffffffff16815260200190815260200160002060008373ffffffffffffffffffffffffffffffffffffffff1673ffffffffffffffffffffffffffffffffffffffff16815260200190815260200160002060009054906101000a900460ff16905092915050565b610c1a610fab565b73ffffffffffffffffffffffffffffffffffffffff168573ffffffffffffffffffffffffffffffffffffffff161480610c605750610c5f85610c5a610fab565b610b7e565b5b610c9f576040517f08c379a0000000000000000000000000000000000000000000000000000000008152600401610c9690612c83565b60405180910390fd5b610cac85858585856114fa565b5050505050565b610cbb610fab565b73ffffffffffffffffffffffffffffffffffffffff16610cd9610af0565b73ffffffffffffffffffffffffffffffffffffffff1614610d2f576040517f08c379a0000000000000000000000000000000000000000000000000000000008152600401610d2690612bf1565b60405180910390fd5b600073ffffffffffffffffffffffffffffffffffffffff168173ffffffffffffffffffffffffffffffffffffffff161415610d9f576040517f08c379a0000000000000000000000000000000000000000000000000000000008152600401610d9690612d15565b60405180910390fd5b610da8816112c7565b50565b60007f01ffc9a7000000000000000000000000000000000000000000000000000000007bffffffffffffffffffffffffffffffffffffffffffffffffffffffff1916827bffffffffffffffffffffffffffffffffffffffffffffffffffffffff1916149050919050565b600073ffffffffffffffffffffffffffffffffffffffff168473ffffffffffffffffffffffffffffffffffffffff161415610e85576040517f08c379a0000000000000000000000000000000000000000000000000000000008152600401610e7c90612da7565b60405180910390fd5b6000610e8f610fab565b9050610eb081600087610ea18861177c565b610eaa8861177c565b876117f6565b8260008086815260200190815260200160002060008773ffffffffffffffffffffffffffffffffffffffff1673ffffffffffffffffffffffffffffffffffffffff1681526020019081526020016000206000828254610f0f91906129e2565b925050819055508473ffffffffffffffffffffffffffffffffffffffff16600073ffffffffffffffffffffffffffffffffffffffff168273ffffffffffffffffffffffffffffffffffffffff167fc3d58168c5ae7397731d063d5bbf3d657854427343f4c083240f7aacaa2d0f628787604051610f8d929190612dc7565b60405180910390a4610fa4816000878787876117fe565b5050505050565b600033905090565b8151835114610ff7576040517f08c379a0000000000000000000000000000000000000000000000000000000008152600401610fee90612e62565b60405180910390fd5b600073ffffffffffffffffffffffffffffffffffffffff168473ffffffffffffffffffffffffffffffffffffffff161415611067576040517f08c379a000000000000000000000000000000000000000000000000000000000815260040161105e90612ef4565b60405180910390fd5b6000611071610fab565b90506110818187878787876117f6565b60005b84518110156112325760008582815181106110a2576110a1612843565b5b6020026020010151905060008583815181106110c1576110c0612843565b5b60200260200101519050600080600084815260200190815260200160002060008b73ffffffffffffffffffffffffffffffffffffffff1673ffffffffffffffffffffffffffffffffffffffff16815260200190815260200160002054905081811015611162576040517f08c379a000000000000000000000000000000000000000000000000000000000815260040161115990612f86565b60405180910390fd5b81810360008085815260200190815260200160002060008c73ffffffffffffffffffffffffffffffffffffffff1673ffffffffffffffffffffffffffffffffffffffff168152602001908152602001600020819055508160008085815260200190815260200160002060008b73ffffffffffffffffffffffffffffffffffffffff1673ffffffffffffffffffffffffffffffffffffffff168152602001908152602001600020600082825461121791906129e2565b925050819055505050508061122b90612b5c565b9050611084565b508473ffffffffffffffffffffffffffffffffffffffff168673ffffffffffffffffffffffffffffffffffffffff168273ffffffffffffffffffffffffffffffffffffffff167f4a39dc06d4c0dbc64b70af90fd698a233a518aa5d07e595d983b8c0526c8f7fb87876040516112a9929190612fa6565b60405180910390a46112bf8187878787876119d6565b505050505050565b6000600360009054906101000a900473ffffffffffffffffffffffffffffffffffffffff16905081600360006101000a81548173ffffffffffffffffffffffffffffffffffffffff021916908373ffffffffffffffffffffffffffffffffffffffff1602179055508173ffffffffffffffffffffffffffffffffffffffff168173ffffffffffffffffffffffffffffffffffffffff167f8be0079c531659141344cd1fd0a4f28419497f9722a3daafe3b4186f6b6457e060405160405180910390a35050565b8173ffffffffffffffffffffffffffffffffffffffff168373ffffffffffffffffffffffffffffffffffffffff1614156113fc576040517f08c379a00000000000000000000000000000000000000000000000000000000081526004016113f39061304f565b60405180910390fd5b80600160008573ffffffffffffffffffffffffffffffffffffffff1673ffffffffffffffffffffffffffffffffffffffff16815260200190815260200160002060008473ffffffffffffffffffffffffffffffffffffffff1673ffffffffffffffffffffffffffffffffffffffff16815260200190815260200160002060006101000a81548160ff0219169083151502179055508173ffffffffffffffffffffffffffffffffffffffff168373ffffffffffffffffffffffffffffffffffffffff167f17307eab39ab6107e8899845ad3d59bd9653f200f220920489ca2b5937696c31836040516114ed9190611d73565b60405180910390a3505050565b600073ffffffffffffffffffffffffffffffffffffffff168473ffffffffffffffffffffffffffffffffffffffff16141561156a576040517f08c379a000000000000000000000000000000000000000000000000000000000815260040161156190612ef4565b60405180910390fd5b6000611574610fab565b90506115948187876115858861177c565b61158e8861177c565b876117f6565b600080600086815260200190815260200160002060008873ffffffffffffffffffffffffffffffffffffffff1673ffffffffffffffffffffffffffffffffffffffff1681526020019081526020016000205490508381101561162b576040517f08c379a000000000000000000000000000000000000000000000000000000000815260040161162290612f86565b60405180910390fd5b83810360008087815260200190815260200160002060008973ffffffffffffffffffffffffffffffffffffffff1673ffffffffffffffffffffffffffffffffffffffff168152602001908152602001600020819055508360008087815260200190815260200160002060008873ffffffffffffffffffffffffffffffffffffffff1673ffffffffffffffffffffffffffffffffffffffff16815260200190815260200160002060008282546116e091906129e2565b925050819055508573ffffffffffffffffffffffffffffffffffffffff168773ffffffffffffffffffffffffffffffffffffffff168373ffffffffffffffffffffffffffffffffffffffff167fc3d58168c5ae7397731d063d5bbf3d657854427343f4c083240f7aacaa2d0f62888860405161175d929190612dc7565b60405180910390a46117738288888888886117fe565b50505050505050565b60606000600167ffffffffffffffff81111561179b5761179a611ebb565b5b6040519080825280602002602001820160405280156117c95781602001602082028036833780820191505090505b50905082816000815181106117e1576117e0612843565b5b60200260200101818152505080915050919050565b505050505050565b61181d8473ffffffffffffffffffffffffffffffffffffffff16611bae565b156119ce578373ffffffffffffffffffffffffffffffffffffffff1663f23a6e6187878686866040518663ffffffff1660e01b81526004016118639594939291906130c4565b6020604051808303816000875af192505050801561189f57506040513d601f19601f8201168201806040525081019061189c9190613133565b60015b611945576118ab61316d565b806308c379a0141561190857506118c061318f565b806118cb575061190a565b806040517f08c379a00000000000000000000000000000000000000000000000000000000081526004016118ff9190611e54565b60405180910390fd5b505b6040517f08c379a000000000000000000000000000000000000000000000000000000000815260040161193c90613297565b60405180910390fd5b63f23a6e6160e01b7bffffffffffffffffffffffffffffffffffffffffffffffffffffffff1916817bffffffffffffffffffffffffffffffffffffffffffffffffffffffff1916146119cc576040517f08c379a00000000000000000000000000000000000000000000000000000000081526004016119c390613329565b60405180910390fd5b505b505050505050565b6119f58473ffffffffffffffffffffffffffffffffffffffff16611bae565b15611ba6578373ffffffffffffffffffffffffffffffffffffffff1663bc197c8187878686866040518663ffffffff1660e01b8152600401611a3b959493929190613349565b6020604051808303816000875af1925050508015611a7757506040513d601f19601f82011682018060405250810190611a749190613133565b60015b611b1d57611a8361316d565b806308c379a01415611ae05750611a9861318f565b80611aa35750611ae2565b806040517f08c379a0000000000000000000000000000000000000000000000000000000008152600401611ad79190611e54565b60405180910390fd5b505b6040517f08c379a0000000000000000000000000000000000000000000000000000000008152600401611b1490613297565b60405180910390fd5b63bc197c8160e01b7bffffffffffffffffffffffffffffffffffffffffffffffffffffffff1916817bffffffffffffffffffffffffffffffffffffffffffffffffffffffff191614611ba4576040517f08c379a0000000000000000000000000000000000000000000000000000000008152600401611b9b90613329565b60405180910390fd5b505b505050505050565b600080823b905060008111915050919050565b6000604051905090565b600080fd5b600080fd5b600073ffffffffffffffffffffffffffffffffffffffff82169050919050565b6000611c0082611bd5565b9050919050565b611c1081611bf5565b8114611c1b57600080fd5b50565b600081359050611c2d81611c07565b92915050565b6000819050919050565b611c4681611c33565b8114611c5157600080fd5b50565b600081359050611c6381611c3d565b92915050565b60008060408385031215611c8057611c7f611bcb565b5b6000611c8e85828601611c1e565b9250506020611c9f85828601611c54565b9150509250929050565b611cb281611c33565b82525050565b6000602082019050611ccd6000830184611ca9565b92915050565b60007fffffffff0000000000000000000000000000000000000000000000000000000082169050919050565b611d0881611cd3565b8114611d1357600080fd5b50565b600081359050611d2581611cff565b92915050565b600060208284031215611d4157611d40611bcb565b5b6000611d4f84828501611d16565b91505092915050565b60008115159050919050565b611d6d81611d58565b82525050565b6000602082019050611d886000830184611d64565b92915050565b600060208284031215611da457611da3611bcb565b5b6000611db284828501611c54565b91505092915050565b600081519050919050565b600082825260208201905092915050565b60005b83811015611df5578082015181840152602081019050611dda565b83811115611e04576000848401525b50505050565b6000601f19601f8301169050919050565b6000611e2682611dbb565b611e308185611dc6565b9350611e40818560208601611dd7565b611e4981611e0a565b840191505092915050565b60006020820190508181036000830152611e6e8184611e1b565b905092915050565b60008060408385031215611e8d57611e8c611bcb565b5b6000611e9b85828601611c54565b9250506020611eac85828601611c54565b9150509250929050565b600080fd5b7f4e487b7100000000000000000000000000000000000000000000000000000000600052604160045260246000fd5b611ef382611e0a565b810181811067ffffffffffffffff82111715611f1257611f11611ebb565b5b80604052505050565b6000611f25611bc1565b9050611f318282611eea565b919050565b600067ffffffffffffffff821115611f5157611f50611ebb565b5b602082029050602081019050919050565b600080fd5b6000611f7a611f7584611f36565b611f1b565b90508083825260208201905060208402830185811115611f9d57611f9c611f62565b5b835b81811015611fc65780611fb28882611c54565b845260208401935050602081019050611f9f565b5050509392505050565b600082601f830112611fe557611fe4611eb6565b5b8135611ff5848260208601611f67565b91505092915050565b600080fd5b600067ffffffffffffffff82111561201e5761201d611ebb565b5b61202782611e0a565b9050602081019050919050565b82818337600083830152505050565b600061205661205184612003565b611f1b565b90508281526020810184848401111561207257612071611ffe565b5b61207d848285612034565b509392505050565b600082601f83011261209a57612099611eb6565b5b81356120aa848260208601612043565b91505092915050565b600080600080600060a086880312156120cf576120ce611bcb565b5b60006120dd88828901611c1e565b95505060206120ee88828901611c1e565b945050604086013567ffffffffffffffff81111561210f5761210e611bd0565b5b61211b88828901611fd0565b935050606086013567ffffffffffffffff81111561213c5761213b611bd0565b5b61214888828901611fd0565b925050608086013567ffffffffffffffff81111561216957612168611bd0565b5b61217588828901612085565b9150509295509295909350565b600067ffffffffffffffff82111561219d5761219c611ebb565b5b602082029050602081019050919050565b60006121c16121bc84612182565b611f1b565b905080838252602082019050602084028301858111156121e4576121e3611f62565b5b835b8181101561220d57806121f98882611c1e565b8452602084019350506020810190506121e6565b5050509392505050565b600082601f83011261222c5761222b611eb6565b5b813561223c8482602086016121ae565b91505092915050565b6000806040838503121561225c5761225b611bcb565b5b600083013567ffffffffffffffff81111561227a57612279611bd0565b5b61228685828601612217565b925050602083013567ffffffffffffffff8111156122a7576122a6611bd0565b5b6122b385828601611fd0565b9150509250929050565b600081519050919050565b600082825260208201905092915050565b6000819050602082019050919050565b6122f281611c33565b82525050565b600061230483836122e9565b60208301905092915050565b6000602082019050919050565b6000612328826122bd565b61233281856122c8565b935061233d836122d9565b8060005b8381101561236e57815161235588826122f8565b975061236083612310565b925050600181019050612341565b5085935050505092915050565b60006020820190508181036000830152612395818461231d565b905092915050565b6123a681611bf5565b82525050565b60006020820190506123c1600083018461239d565b92915050565b6123d081611d58565b81146123db57600080fd5b50565b6000813590506123ed816123c7565b92915050565b6000806040838503121561240a57612409611bcb565b5b600061241885828601611c1e565b9250506020612429858286016123de565b9150509250929050565b6000806040838503121561244a57612449611bcb565b5b600061245885828601611c1e565b925050602061246985828601611c1e565b9150509250929050565b600080600080600060a0868803121561248f5761248e611bcb565b5b600061249d88828901611c1e565b95505060206124ae88828901611c1e565b94505060406124bf88828901611c54565b93505060606124d088828901611c54565b925050608086013567ffffffffffffffff8111156124f1576124f0611bd0565b5b6124fd88828901612085565b9150509295509295909350565b6000602082840312156125205761251f611bcb565b5b600061252e84828501611c1e565b91505092915050565b7f455243313135353a2062616c616e636520717565727920666f7220746865207a60008201527f65726f2061646472657373000000000000000000000000000000000000000000602082015250565b6000612593602b83611dc6565b915061259e82612537565b604082019050919050565b600060208201905081810360008301526125c281612586565b9050919050565b7f4e487b7100000000000000000000000000000000000000000000000000000000600052602260045260246000fd5b6000600282049050600182168061261057607f821691505b60208210811415612624576126236125c9565b5b50919050565b7f54727920616761696e20667269656e642e2045697468657220796f75206c6f7360008201527f74207468652047616d652c206f7220736f6d656f6e6520656c7365207365742060208201527f796f752075702e00000000000000000000000000000000000000000000000000604082015250565b60006126ac604783611dc6565b91506126b78261262a565b606082019050919050565b600060208201905081810360008301526126db8161269f565b9050919050565b7f576861742061726520796f7520646f696e673f00000000000000000000000000600082015250565b6000612718601383611dc6565b9150612723826126e2565b602082019050919050565b600060208201905081810360008301526127478161270b565b9050919050565b7f57687920646f20796f752077616e74206d6f7265207468616e206f6e65204c2060008201527f6f6e20796f7572207265636f72643f2054616b65206f6e65206f6e6c792e0000602082015250565b60006127aa603e83611dc6565b91506127b58261274e565b604082019050919050565b600060208201905081810360008301526127d98161279d565b9050919050565b7f4e487b7100000000000000000000000000000000000000000000000000000000600052601160045260246000fd5b600061281a82611c33565b915061282583611c33565b925082821015612838576128376127e0565b5b828203905092915050565b7f4e487b7100000000000000000000000000000000000000000000000000000000600052603260045260246000fd5b7f53757270726973696e676c792c2077652072616e206f75742e2054686572652060008201527f617265206d6f7265204c73206f757420746865726520696e2074686520776f7260208201527f6c642c206a7573742061736b20736f6d656f6e6520746f2073656e6420796f7560408201527f206f6e652e200000000000000000000000000000000000000000000000000000606082015250565b600061291a606683611dc6565b915061292582612872565b608082019050919050565b600060208201905081810360008301526129498161290d565b9050919050565b7f536f72727920467269656e642e206d696e74696e672074686973204e4654206360008201527f6f737473202e3030303120657468657200000000000000000000000000000000602082015250565b60006129ac603083611dc6565b91506129b782612950565b604082019050919050565b600060208201905081810360008301526129db8161299f565b9050919050565b60006129ed82611c33565b91506129f883611c33565b9250827fffffffffffffffffffffffffffffffffffffffffffffffffffffffffffffffff03821115612a2d57612a2c6127e0565b5b828201905092915050565b7f455243313135353a207472616e736665722063616c6c6572206973206e6f742060008201527f6f776e6572206e6f7220617070726f7665640000000000000000000000000000602082015250565b6000612a94603283611dc6565b9150612a9f82612a38565b604082019050919050565b60006020820190508181036000830152612ac381612a87565b9050919050565b7f455243313135353a206163636f756e747320616e6420696473206c656e67746860008201527f206d69736d617463680000000000000000000000000000000000000000000000602082015250565b6000612b26602983611dc6565b9150612b3182612aca565b604082019050919050565b60006020820190508181036000830152612b5581612b19565b9050919050565b6000612b6782611c33565b91507fffffffffffffffffffffffffffffffffffffffffffffffffffffffffffffffff821415612b9a57612b996127e0565b5b600182019050919050565b7f4f776e61626c653a2063616c6c6572206973206e6f7420746865206f776e6572600082015250565b6000612bdb602083611dc6565b9150612be682612ba5565b602082019050919050565b60006020820190508181036000830152612c0a81612bce565b9050919050565b7f455243313135353a2063616c6c6572206973206e6f74206f776e6572206e6f7260008201527f20617070726f7665640000000000000000000000000000000000000000000000602082015250565b6000612c6d602983611dc6565b9150612c7882612c11565b604082019050919050565b60006020820190508181036000830152612c9c81612c60565b9050919050565b7f4f776e61626c653a206e6577206f776e657220697320746865207a65726f206160008201527f6464726573730000000000000000000000000000000000000000000000000000602082015250565b6000612cff602683611dc6565b9150612d0a82612ca3565b604082019050919050565b60006020820190508181036000830152612d2e81612cf2565b9050919050565b7f455243313135353a206d696e7420746f20746865207a65726f2061646472657360008201527f7300000000000000000000000000000000000000000000000000000000000000602082015250565b6000612d91602183611dc6565b9150612d9c82612d35565b604082019050919050565b60006020820190508181036000830152612dc081612d84565b9050919050565b6000604082019050612ddc6000830185611ca9565b612de96020830184611ca9565b9392505050565b7f455243313135353a2069647320616e6420616d6f756e7473206c656e6774682060008201527f6d69736d61746368000000000000000000000000000000000000000000000000602082015250565b6000612e4c602883611dc6565b9150612e5782612df0565b604082019050919050565b60006020820190508181036000830152612e7b81612e3f565b9050919050565b7f455243313135353a207472616e7366657220746f20746865207a65726f20616460008201527f6472657373000000000000000000000000000000000000000000000000000000602082015250565b6000612ede602583611dc6565b9150612ee982612e82565b604082019050919050565b60006020820190508181036000830152612f0d81612ed1565b9050919050565b7f455243313135353a20696e73756666696369656e742062616c616e636520666f60008201527f72207472616e7366657200000000000000000000000000000000000000000000602082015250565b6000612f70602a83611dc6565b9150612f7b82612f14565b604082019050919050565b60006020820190508181036000830152612f9f81612f63565b9050919050565b60006040820190508181036000830152612fc0818561231d565b90508181036020830152612fd4818461231d565b90509392505050565b7f455243313135353a2073657474696e6720617070726f76616c2073746174757360008201527f20666f722073656c660000000000000000000000000000000000000000000000602082015250565b6000613039602983611dc6565b915061304482612fdd565b604082019050919050565b600060208201905081810360008301526130688161302c565b9050919050565b600081519050919050565b600082825260208201905092915050565b60006130968261306f565b6130a0818561307a565b93506130b0818560208601611dd7565b6130b981611e0a565b840191505092915050565b600060a0820190506130d9600083018861239d565b6130e6602083018761239d565b6130f36040830186611ca9565b6131006060830185611ca9565b8181036080830152613112818461308b565b90509695505050505050565b60008151905061312d81611cff565b92915050565b60006020828403121561314957613148611bcb565b5b60006131578482850161311e565b91505092915050565b60008160e01c9050919050565b600060033d111561318c5760046000803e613189600051613160565b90505b90565b600060443d101561319f57613222565b6131a7611bc1565b60043d036004823e80513d602482011167ffffffffffffffff821117156131cf575050613222565b808201805167ffffffffffffffff8111156131ed5750505050613222565b80602083010160043d03850181111561320a575050505050613222565b61321982602001850186611eea565b82955050505050505b90565b7f455243313135353a207472616e7366657220746f206e6f6e204552433131353560008201527f526563656976657220696d706c656d656e746572000000000000000000000000602082015250565b6000613281603483611dc6565b915061328c82613225565b604082019050919050565b600060208201905081810360008301526132b081613274565b9050919050565b7f455243313135353a204552433131353552656365697665722072656a6563746560008201527f6420746f6b656e73000000000000000000000000000000000000000000000000602082015250565b6000613313602883611dc6565b915061331e826132b7565b604082019050919050565b6000602082019050818103600083015261334281613306565b9050919050565b600060a08201905061335e600083018861239d565b61336b602083018761239d565b818103604083015261337d818661231d565b90508181036060830152613391818561231d565b905081810360808301526133a5818461308b565b9050969550505050505056fea264697066735822122060389839fc6beead1a7e8499a9f054a4347373a2e5c69f3683dc6fed0c73b78464736f6c634300080a003368747470733a2f2f62616679626569677665696276636b616a627977646f767077716f32737a7273696661736f3767626e64333673646d6c6178627163746864756f342e697066732e647765622e6c696e6b2f7b69647d2e6a736f6e",
  "immutableReferences": {},
  "source": "// SPDX-License-Identifier: MIT\npragma solidity >=0.4.22 <0.9.0;\n\nimport \"@openzeppelin/contracts/token/ERC1155/ERC1155.sol\";\n\nimport \"@openzeppelin/contracts/access/Ownable.sol\";\ncontract TheGame is ERC1155, Ownable {\n  uint256[] public totalSupply =[1000000000,1000000000];\n  uint256[] public Loses = [0,0];\n  uint public cost = .0001 ether;\n  uint256 public totalLoses = 0;\n\nfunction mint(uint256 id, uint256 amount) public payable {\n        require(id <= totalSupply.length, \"Try again friend. Either you lost the Game, or someone else set you up.\");\n        require(id >0, \"What are you doing?\");\n        require(amount ==1, \"Why do you want more than one L on your record? Take one only.\");\n        uint index = id-1;\n        require(Loses[index] <= totalSupply[index], \"Surprisingly, we ran out. There are more Ls out there in the world, just ask someone to send you one. \");\n        require(msg.value == cost, \"Sorry Friend. minting this NFT costs .0001 ether\");\n        _mint(msg.sender, id, amount, \"0x00\");\n        Loses[index] += amount;\n        totalLoses= totalLoses +amount;\n    }\n  constructor() public ERC1155(\"https://bafybeigveibvckajbywdovpwqo2szrsifaso7gbnd36sdmlaxbqcthduo4.ipfs.dweb.link/{id}.json\"){\n  \n  }\n\n  function getBalance() public view returns (uint){\n    return address(this).balance;\n  }\n\n\n}\n",
  "sourcePath": "/Users/rubengarcia/consensys-blockchain-developer-bootcamp-2021/Consensys-final-project/contracts/TheGame.sol",
  "compiler": {
    "name": "solc",
    "version": "0.8.10+commit.fc410830.Emscripten.clang"
  },
  "schemaVersion": "3.4.3",
  "updatedAt": "2021-11-28T22:11:01.930Z",
  "devdoc": {
    "kind": "dev",
    "methods": {
      "balanceOf(address,uint256)": {
        "details": "See {IERC1155-balanceOf}. Requirements: - `account` cannot be the zero address."
      },
      "balanceOfBatch(address[],uint256[])": {
        "details": "See {IERC1155-balanceOfBatch}. Requirements: - `accounts` and `ids` must have the same length."
      },
      "isApprovedForAll(address,address)": {
        "details": "See {IERC1155-isApprovedForAll}."
      },
      "owner()": {
        "details": "Returns the address of the current owner."
      },
      "renounceOwnership()": {
        "details": "Leaves the contract without owner. It will not be possible to call `onlyOwner` functions anymore. Can only be called by the current owner. NOTE: Renouncing ownership will leave the contract without an owner, thereby removing any functionality that is only available to the owner."
      },
      "safeBatchTransferFrom(address,address,uint256[],uint256[],bytes)": {
        "details": "See {IERC1155-safeBatchTransferFrom}."
      },
      "safeTransferFrom(address,address,uint256,uint256,bytes)": {
        "details": "See {IERC1155-safeTransferFrom}."
      },
      "setApprovalForAll(address,bool)": {
        "details": "See {IERC1155-setApprovalForAll}."
      },
      "supportsInterface(bytes4)": {
        "details": "See {IERC165-supportsInterface}."
      },
      "transferOwnership(address)": {
        "details": "Transfers ownership of the contract to a new account (`newOwner`). Can only be called by the current owner."
      },
      "uri(uint256)": {
        "details": "See {IERC1155MetadataURI-uri}. This implementation returns the same URI for *all* token types. It relies on the token type ID substitution mechanism https://eips.ethereum.org/EIPS/eip-1155#metadata[defined in the EIP]. Clients calling this function must replace the `\\{id\\}` substring with the actual token type ID."
      }
    },
    "version": 1
  },
  "userdoc": {
    "kind": "user",
    "methods": {},
    "version": 1
  }
}