{
  "contractName": "TheGame",
  "abi": [
    {
      "inputs": [],
      "stateMutability": "nonpayable",
      "type": "constructor"
    },
    {
      "anonymous": false,
      "inputs": [
        {
          "indexed": true,
          "internalType": "address",
          "name": "owner",
          "type": "address"
        },
        {
          "indexed": true,
          "internalType": "address",
          "name": "approved",
          "type": "address"
        },
        {
          "indexed": true,
          "internalType": "uint256",
          "name": "tokenId",
          "type": "uint256"
        }
      ],
      "name": "Approval",
      "type": "event"
    },
    {
      "anonymous": false,
      "inputs": [
        {
          "indexed": true,
          "internalType": "address",
          "name": "owner",
          "type": "address"
        },
        {
          "indexed": true,
          "internalType": "address",
          "name": "operator",
          "type": "address"
        },
        {
          "indexed": false,
          "internalType": "bool",
          "name": "approved",
          "type": "bool"
        }
      ],
      "name": "ApprovalForAll",
      "type": "event"
    },
    {
      "anonymous": false,
      "inputs": [
        {
          "indexed": true,
          "internalType": "address",
          "name": "previousOwner",
          "type": "address"
        },
        {
          "indexed": true,
          "internalType": "address",
          "name": "newOwner",
          "type": "address"
        }
      ],
      "name": "OwnershipTransferred",
      "type": "event"
    },
    {
      "anonymous": false,
      "inputs": [
        {
          "indexed": true,
          "internalType": "address",
          "name": "from",
          "type": "address"
        },
        {
          "indexed": true,
          "internalType": "address",
          "name": "to",
          "type": "address"
        },
        {
          "indexed": true,
          "internalType": "uint256",
          "name": "tokenId",
          "type": "uint256"
        }
      ],
      "name": "Transfer",
      "type": "event"
    },
    {
      "inputs": [],
      "name": "GameStarts",
      "outputs": [
        {
          "internalType": "bool",
          "name": "",
          "type": "bool"
        }
      ],
      "stateMutability": "view",
      "type": "function"
    },
    {
      "inputs": [],
      "name": "LossBasePrice",
      "outputs": [
        {
          "internalType": "uint256",
          "name": "",
          "type": "uint256"
        }
      ],
      "stateMutability": "view",
      "type": "function"
    },
    {
      "inputs": [],
      "name": "MaxSupply",
      "outputs": [
        {
          "internalType": "uint256",
          "name": "",
          "type": "uint256"
        }
      ],
      "stateMutability": "view",
      "type": "function"
    },
    {
      "inputs": [
        {
          "internalType": "address",
          "name": "to",
          "type": "address"
        },
        {
          "internalType": "uint256",
          "name": "tokenId",
          "type": "uint256"
        }
      ],
      "name": "approve",
      "outputs": [],
      "stateMutability": "nonpayable",
      "type": "function"
    },
    {
      "inputs": [
        {
          "internalType": "address",
          "name": "owner",
          "type": "address"
        }
      ],
      "name": "balanceOf",
      "outputs": [
        {
          "internalType": "uint256",
          "name": "",
          "type": "uint256"
        }
      ],
      "stateMutability": "view",
      "type": "function"
    },
    {
      "inputs": [],
      "name": "baseURI",
      "outputs": [
        {
          "internalType": "string",
          "name": "",
          "type": "string"
        }
      ],
      "stateMutability": "view",
      "type": "function"
    },
    {
      "inputs": [
        {
          "internalType": "uint256",
          "name": "tokenId",
          "type": "uint256"
        }
      ],
      "name": "getApproved",
      "outputs": [
        {
          "internalType": "address",
          "name": "",
          "type": "address"
        }
      ],
      "stateMutability": "view",
      "type": "function"
    },
    {
      "inputs": [
        {
          "internalType": "address",
          "name": "owner",
          "type": "address"
        },
        {
          "internalType": "address",
          "name": "operator",
          "type": "address"
        }
      ],
      "name": "isApprovedForAll",
      "outputs": [
        {
          "internalType": "bool",
          "name": "",
          "type": "bool"
        }
      ],
      "stateMutability": "view",
      "type": "function"
    },
    {
      "inputs": [],
      "name": "mintedLosses",
      "outputs": [
        {
          "internalType": "uint256",
          "name": "",
          "type": "uint256"
        }
      ],
      "stateMutability": "view",
      "type": "function"
    },
    {
      "inputs": [],
      "name": "name",
      "outputs": [
        {
          "internalType": "string",
          "name": "",
          "type": "string"
        }
      ],
      "stateMutability": "view",
      "type": "function"
    },
    {
      "inputs": [],
      "name": "owner",
      "outputs": [
        {
          "internalType": "address",
          "name": "",
          "type": "address"
        }
      ],
      "stateMutability": "view",
      "type": "function"
    },
    {
      "inputs": [
        {
          "internalType": "uint256",
          "name": "tokenId",
          "type": "uint256"
        }
      ],
      "name": "ownerOf",
      "outputs": [
        {
          "internalType": "address",
          "name": "",
          "type": "address"
        }
      ],
      "stateMutability": "view",
      "type": "function"
    },
    {
      "inputs": [],
      "name": "renounceOwnership",
      "outputs": [],
      "stateMutability": "nonpayable",
      "type": "function"
    },
    {
      "inputs": [
        {
          "internalType": "address",
          "name": "from",
          "type": "address"
        },
        {
          "internalType": "address",
          "name": "to",
          "type": "address"
        },
        {
          "internalType": "uint256",
          "name": "tokenId",
          "type": "uint256"
        }
      ],
      "name": "safeTransferFrom",
      "outputs": [],
      "stateMutability": "nonpayable",
      "type": "function"
    },
    {
      "inputs": [
        {
          "internalType": "address",
          "name": "from",
          "type": "address"
        },
        {
          "internalType": "address",
          "name": "to",
          "type": "address"
        },
        {
          "internalType": "uint256",
          "name": "tokenId",
          "type": "uint256"
        },
        {
          "internalType": "bytes",
          "name": "_data",
          "type": "bytes"
        }
      ],
      "name": "safeTransferFrom",
      "outputs": [],
      "stateMutability": "nonpayable",
      "type": "function"
    },
    {
      "inputs": [
        {
          "internalType": "address",
          "name": "operator",
          "type": "address"
        },
        {
          "internalType": "bool",
          "name": "approved",
          "type": "bool"
        }
      ],
      "name": "setApprovalForAll",
      "outputs": [],
      "stateMutability": "nonpayable",
      "type": "function"
    },
    {
      "inputs": [
        {
          "internalType": "bytes4",
          "name": "interfaceId",
          "type": "bytes4"
        }
      ],
      "name": "supportsInterface",
      "outputs": [
        {
          "internalType": "bool",
          "name": "",
          "type": "bool"
        }
      ],
      "stateMutability": "view",
      "type": "function"
    },
    {
      "inputs": [],
      "name": "symbol",
      "outputs": [
        {
          "internalType": "string",
          "name": "",
          "type": "string"
        }
      ],
      "stateMutability": "view",
      "type": "function"
    },
    {
      "inputs": [],
      "name": "totalLosses",
      "outputs": [
        {
          "internalType": "uint256",
          "name": "",
          "type": "uint256"
        }
      ],
      "stateMutability": "view",
      "type": "function"
    },
    {
      "inputs": [
        {
          "internalType": "address",
          "name": "from",
          "type": "address"
        },
        {
          "internalType": "address",
          "name": "to",
          "type": "address"
        },
        {
          "internalType": "uint256",
          "name": "tokenId",
          "type": "uint256"
        }
      ],
      "name": "transferFrom",
      "outputs": [],
      "stateMutability": "nonpayable",
      "type": "function"
    },
    {
      "inputs": [
        {
          "internalType": "address",
          "name": "newOwner",
          "type": "address"
        }
      ],
      "name": "transferOwnership",
      "outputs": [],
      "stateMutability": "nonpayable",
      "type": "function"
    },
    {
      "inputs": [],
      "name": "firstLoser",
      "outputs": [],
      "stateMutability": "payable",
      "type": "function"
    },
    {
      "inputs": [
        {
          "internalType": "address",
          "name": "to",
          "type": "address"
        },
        {
          "internalType": "uint256",
          "name": "amountOfLosses",
          "type": "uint256"
        }
      ],
      "name": "HandOutLs",
      "outputs": [],
      "stateMutability": "payable",
      "type": "function"
    },
    {
      "inputs": [
        {
          "internalType": "uint256",
          "name": "tokenId",
          "type": "uint256"
        }
      ],
      "name": "tokenURI",
      "outputs": [
        {
          "internalType": "string",
          "name": "",
          "type": "string"
        }
      ],
      "stateMutability": "view",
      "type": "function"
    },
    {
      "inputs": [
        {
          "internalType": "address",
          "name": "ad",
          "type": "address"
        }
      ],
      "name": "lossFinder",
      "outputs": [
        {
          "internalType": "uint256",
          "name": "",
          "type": "uint256"
        }
      ],
      "stateMutability": "view",
      "type": "function"
    },
    {
      "inputs": [],
      "name": "withdraw",
      "outputs": [],
      "stateMutability": "payable",
      "type": "function"
    },
    {
      "inputs": [],
      "name": "beginTheGame",
      "outputs": [],
      "stateMutability": "nonpayable",
      "type": "function"
    },
    {
      "inputs": [],
      "name": "getMintedLosses",
      "outputs": [
        {
          "internalType": "uint256",
          "name": "",
          "type": "uint256"
        }
      ],
      "stateMutability": "view",
      "type": "function"
    },
    {
      "inputs": [],
      "name": "getGameStarts",
      "outputs": [
        {
          "internalType": "bool",
          "name": "",
          "type": "bool"
        }
      ],
      "stateMutability": "view",
      "type": "function"
    }
  ],
  "bytecode": "0x60806040526000600760146101000a81548160ff0219169083151502179055507fffffffffffffffffffffffffffffffffffffffffffffffffffffffffffffffff60085560006009556000600a5560405180608001604052806053815260200162003e9560539139600b90805190602001906200007e9291906200022b565b5065e35fa931a000600c553480156200009657600080fd5b506040518060400160405280600781526020017f54686547616d65000000000000000000000000000000000000000000000000008152506040518060400160405280600481526020017f445441490000000000000000000000000000000000000000000000000000000081525081600090805190602001906200011b9291906200022b565b508060019080519060200190620001349291906200022b565b505050620001576200014b6200015d60201b60201c565b6200016560201b60201c565b62000340565b600033905090565b6000600760009054906101000a900473ffffffffffffffffffffffffffffffffffffffff16905081600760006101000a81548173ffffffffffffffffffffffffffffffffffffffff021916908373ffffffffffffffffffffffffffffffffffffffff1602179055508173ffffffffffffffffffffffffffffffffffffffff168173ffffffffffffffffffffffffffffffffffffffff167f8be0079c531659141344cd1fd0a4f28419497f9722a3daafe3b4186f6b6457e060405160405180910390a35050565b82805462000239906200030a565b90600052602060002090601f0160209004810192826200025d5760008555620002a9565b82601f106200027857805160ff1916838001178555620002a9565b82800160010185558215620002a9579182015b82811115620002a85782518255916020019190600101906200028b565b5b509050620002b89190620002bc565b5090565b5b80821115620002d7576000816000905550600101620002bd565b5090565b7f4e487b7100000000000000000000000000000000000000000000000000000000600052602260045260246000fd5b600060028204905060018216806200032357607f821691505b602082108114156200033a5762000339620002db565b5b50919050565b613b4580620003506000396000f3fe6080604052600436106101c25760003560e01c80638da5cb5b116100f7578063bf04820b11610095578063f08ed92a11610064578063f08ed92a146105f5578063f2fde38b14610620578063f34e73d914610649578063fb36aa8314610674576101c2565b8063bf04820b14610513578063c87b56dd1461053e578063e985e9c51461057b578063ef50c129146105b8576101c2565b8063a1f2ff38116100d1578063a1f2ff381461046b578063a22cb46514610496578063b36c1284146104bf578063b88d4fde146104ea576101c2565b80638da5cb5b1461040b578063927f5cc51461043657806395d89b4114610440576101c2565b80635731a2341161016457806366eabfd41161013e57806366eabfd4146103755780636c0360eb1461038c57806370a08231146103b7578063715018a6146103f4576101c2565b80635731a234146102f1578063622b209a1461030d5780636352211e14610338576101c2565b8063095ea7b3116101a0578063095ea7b31461026c57806323b872dd146102955780633ccfd60b146102be57806342842e0e146102c8576101c2565b806301ffc9a7146101c757806306fdde0314610204578063081812fc1461022f575b600080fd5b3480156101d357600080fd5b506101ee60048036038101906101e9919061262a565b61069f565b6040516101fb9190612672565b60405180910390f35b34801561021057600080fd5b50610219610781565b6040516102269190612726565b60405180910390f35b34801561023b57600080fd5b506102566004803603810190610251919061277e565b610813565b60405161026391906127ec565b60405180910390f35b34801561027857600080fd5b50610293600480360381019061028e9190612833565b610898565b005b3480156102a157600080fd5b506102bc60048036038101906102b79190612873565b6109b0565b005b6102c6610a10565b005b3480156102d457600080fd5b506102ef60048036038101906102ea9190612873565b610adb565b005b61030b60048036038101906103069190612833565b610afb565b005b34801561031957600080fd5b50610322610cd4565b60405161032f91906128d5565b60405180910390f35b34801561034457600080fd5b5061035f600480360381019061035a919061277e565b610cda565b60405161036c91906127ec565b60405180910390f35b34801561038157600080fd5b5061038a610d8c565b005b34801561039857600080fd5b506103a1610e34565b6040516103ae9190612726565b60405180910390f35b3480156103c357600080fd5b506103de60048036038101906103d991906128f0565b610ec2565b6040516103eb91906128d5565b60405180910390f35b34801561040057600080fd5b50610409610f7a565b005b34801561041757600080fd5b50610420611002565b60405161042d91906127ec565b60405180910390f35b61043e61102c565b005b34801561044c57600080fd5b506104556111ce565b6040516104629190612726565b60405180910390f35b34801561047757600080fd5b50610480611260565b60405161048d91906128d5565b60405180910390f35b3480156104a257600080fd5b506104bd60048036038101906104b89190612949565b611266565b005b3480156104cb57600080fd5b506104d461127c565b6040516104e191906128d5565b60405180910390f35b3480156104f657600080fd5b50610511600480360381019061050c9190612abe565b611282565b005b34801561051f57600080fd5b506105286112e4565b60405161053591906128d5565b60405180910390f35b34801561054a57600080fd5b506105656004803603810190610560919061277e565b6112ea565b6040516105729190612726565b60405180910390f35b34801561058757600080fd5b506105a2600480360381019061059d9190612b41565b6112fc565b6040516105af9190612672565b60405180910390f35b3480156105c457600080fd5b506105df60048036038101906105da91906128f0565b611390565b6040516105ec91906128d5565b60405180910390f35b34801561060157600080fd5b5061060a6113d9565b6040516106179190612672565b60405180910390f35b34801561062c57600080fd5b50610647600480360381019061064291906128f0565b6113f0565b005b34801561065557600080fd5b5061065e6114e8565b60405161066b9190612672565b60405180910390f35b34801561068057600080fd5b506106896114fb565b60405161069691906128d5565b60405180910390f35b60007f80ac58cd000000000000000000000000000000000000000000000000000000007bffffffffffffffffffffffffffffffffffffffffffffffffffffffff1916827bffffffffffffffffffffffffffffffffffffffffffffffffffffffff1916148061076a57507f5b5e139f000000000000000000000000000000000000000000000000000000007bffffffffffffffffffffffffffffffffffffffffffffffffffffffff1916827bffffffffffffffffffffffffffffffffffffffffffffffffffffffff1916145b8061077a575061077982611505565b5b9050919050565b60606000805461079090612bb0565b80601f01602080910402602001604051908101604052809291908181526020018280546107bc90612bb0565b80156108095780601f106107de57610100808354040283529160200191610809565b820191906000526020600020905b8154815290600101906020018083116107ec57829003601f168201915b5050505050905090565b600061081e8261156f565b61085d576040517f08c379a000000000000000000000000000000000000000000000000000000000815260040161085490612c54565b60405180910390fd5b6004600083815260200190815260200160002060009054906101000a900473ffffffffffffffffffffffffffffffffffffffff169050919050565b60006108a382610cda565b90508073ffffffffffffffffffffffffffffffffffffffff168373ffffffffffffffffffffffffffffffffffffffff161415610914576040517f08c379a000000000000000000000000000000000000000000000000000000000815260040161090b90612ce6565b60405180910390fd5b8073ffffffffffffffffffffffffffffffffffffffff166109336115db565b73ffffffffffffffffffffffffffffffffffffffff16148061096257506109618161095c6115db565b6112fc565b5b6109a1576040517f08c379a000000000000000000000000000000000000000000000000000000000815260040161099890612d78565b60405180910390fd5b6109ab83836115e3565b505050565b6109c16109bb6115db565b8261169c565b610a00576040517f08c379a00000000000000000000000000000000000000000000000000000000081526004016109f790612e0a565b60405180910390fd5b610a0b83838361177a565b505050565b610a186115db565b73ffffffffffffffffffffffffffffffffffffffff16610a36611002565b73ffffffffffffffffffffffffffffffffffffffff1614610a8c576040517f08c379a0000000000000000000000000000000000000000000000000000000008152600401610a8390612e76565b60405180910390fd5b60004790503373ffffffffffffffffffffffffffffffffffffffff166108fc829081150290604051600060405180830381858888f19350505050158015610ad7573d6000803e3d6000fd5b5050565b610af683838360405180602001604052806000815250611282565b505050565b60011515600760149054906101000a900460ff16151514610b51576040517f08c379a0000000000000000000000000000000000000000000000000000000008152600401610b4890612ee2565b60405180910390fd5b60085481600954610b629190612f31565b1115610ba3576040517f08c379a0000000000000000000000000000000000000000000000000000000008152600401610b9a9061301f565b60405180910390fd5b80600c54610bb1919061303f565b3414610bf2576040517f08c379a0000000000000000000000000000000000000000000000000000000008152600401610be99061310b565b60405180910390fd5b60005b81811015610c1957610c06836119d6565b8080610c119061312b565b915050610bf5565b5080600954610c289190612f31565b60098190555080600a54610c3c9190612f31565b600a8190555080600d60003373ffffffffffffffffffffffffffffffffffffffff1673ffffffffffffffffffffffffffffffffffffffff16815260200190815260200160002054610c8d9190612f31565b600d60003373ffffffffffffffffffffffffffffffffffffffff1673ffffffffffffffffffffffffffffffffffffffff168152602001908152602001600020819055505050565b60095481565b6000806002600084815260200190815260200160002060009054906101000a900473ffffffffffffffffffffffffffffffffffffffff169050600073ffffffffffffffffffffffffffffffffffffffff168173ffffffffffffffffffffffffffffffffffffffff161415610d83576040517f08c379a0000000000000000000000000000000000000000000000000000000008152600401610d7a906131e6565b60405180910390fd5b80915050919050565b610d946115db565b73ffffffffffffffffffffffffffffffffffffffff16610db2611002565b73ffffffffffffffffffffffffffffffffffffffff1614610e08576040517f08c379a0000000000000000000000000000000000000000000000000000000008152600401610dff90612e76565b60405180910390fd5b600760149054906101000a900460ff1615600760146101000a81548160ff021916908315150217905550565b600b8054610e4190612bb0565b80601f0160208091040260200160405190810160405280929190818152602001828054610e6d90612bb0565b8015610eba5780601f10610e8f57610100808354040283529160200191610eba565b820191906000526020600020905b815481529060010190602001808311610e9d57829003601f168201915b505050505081565b60008073ffffffffffffffffffffffffffffffffffffffff168273ffffffffffffffffffffffffffffffffffffffff161415610f33576040517f08c379a0000000000000000000000000000000000000000000000000000000008152600401610f2a90613278565b60405180910390fd5b600360008373ffffffffffffffffffffffffffffffffffffffff1673ffffffffffffffffffffffffffffffffffffffff168152602001908152602001600020549050919050565b610f826115db565b73ffffffffffffffffffffffffffffffffffffffff16610fa0611002565b73ffffffffffffffffffffffffffffffffffffffff1614610ff6576040517f08c379a0000000000000000000000000000000000000000000000000000000008152600401610fed90612e76565b60405180910390fd5b6110006000611a9c565b565b6000600760009054906101000a900473ffffffffffffffffffffffffffffffffffffffff16905090565b6110346115db565b73ffffffffffffffffffffffffffffffffffffffff16611052611002565b73ffffffffffffffffffffffffffffffffffffffff16146110a8576040517f08c379a000000000000000000000000000000000000000000000000000000000815260040161109f90612e76565b60405180910390fd5b6110b0610d8c565b600a600c546110bf919061303f565b3414611100576040517f08c379a00000000000000000000000000000000000000000000000000000000081526004016110f7906132e4565b60405180910390fd5b60005b600a81101561112857611115336119d6565b80806111209061312b565b915050611103565b50600a80546111379190612f31565b600a81905550600a600d60003373ffffffffffffffffffffffffffffffffffffffff1673ffffffffffffffffffffffffffffffffffffffff168152602001908152602001600020546111899190612f31565b600d60003373ffffffffffffffffffffffffffffffffffffffff1673ffffffffffffffffffffffffffffffffffffffff16815260200190815260200160002081905550565b6060600180546111dd90612bb0565b80601f016020809104026020016040519081016040528092919081815260200182805461120990612bb0565b80156112565780601f1061122b57610100808354040283529160200191611256565b820191906000526020600020905b81548152906001019060200180831161123957829003601f168201915b5050505050905090565b600c5481565b6112786112716115db565b8383611b62565b5050565b60085481565b61129361128d6115db565b8361169c565b6112d2576040517f08c379a00000000000000000000000000000000000000000000000000000000081526004016112c990612e0a565b60405180910390fd5b6112de84848484611ccf565b50505050565b600a5481565b60606112f582611d2b565b9050919050565b6000600560008473ffffffffffffffffffffffffffffffffffffffff1673ffffffffffffffffffffffffffffffffffffffff16815260200190815260200160002060008373ffffffffffffffffffffffffffffffffffffffff1673ffffffffffffffffffffffffffffffffffffffff16815260200190815260200160002060009054906101000a900460ff16905092915050565b6000600d60008373ffffffffffffffffffffffffffffffffffffffff1673ffffffffffffffffffffffffffffffffffffffff168152602001908152602001600020549050919050565b6000600760149054906101000a900460ff16905090565b6113f86115db565b73ffffffffffffffffffffffffffffffffffffffff16611416611002565b73ffffffffffffffffffffffffffffffffffffffff161461146c576040517f08c379a000000000000000000000000000000000000000000000000000000000815260040161146390612e76565b60405180910390fd5b600073ffffffffffffffffffffffffffffffffffffffff168173ffffffffffffffffffffffffffffffffffffffff1614156114dc576040517f08c379a00000000000000000000000000000000000000000000000000000000081526004016114d390613376565b60405180910390fd5b6114e581611a9c565b50565b600760149054906101000a900460ff1681565b6000600954905090565b60007f01ffc9a7000000000000000000000000000000000000000000000000000000007bffffffffffffffffffffffffffffffffffffffffffffffffffffffff1916827bffffffffffffffffffffffffffffffffffffffffffffffffffffffff1916149050919050565b60008073ffffffffffffffffffffffffffffffffffffffff166002600084815260200190815260200160002060009054906101000a900473ffffffffffffffffffffffffffffffffffffffff1673ffffffffffffffffffffffffffffffffffffffff1614159050919050565b600033905090565b816004600083815260200190815260200160002060006101000a81548173ffffffffffffffffffffffffffffffffffffffff021916908373ffffffffffffffffffffffffffffffffffffffff160217905550808273ffffffffffffffffffffffffffffffffffffffff1661165683610cda565b73ffffffffffffffffffffffffffffffffffffffff167f8c5be1e5ebec7d5bd14f71427d1e84f3dd0314c0f7b2291e5b200ac8c7c3b92560405160405180910390a45050565b60006116a78261156f565b6116e6576040517f08c379a00000000000000000000000000000000000000000000000000000000081526004016116dd90613408565b60405180910390fd5b60006116f183610cda565b90508073ffffffffffffffffffffffffffffffffffffffff168473ffffffffffffffffffffffffffffffffffffffff16148061176057508373ffffffffffffffffffffffffffffffffffffffff1661174884610813565b73ffffffffffffffffffffffffffffffffffffffff16145b80611771575061177081856112fc565b5b91505092915050565b8273ffffffffffffffffffffffffffffffffffffffff1661179a82610cda565b73ffffffffffffffffffffffffffffffffffffffff16146117f0576040517f08c379a00000000000000000000000000000000000000000000000000000000081526004016117e79061349a565b60405180910390fd5b600073ffffffffffffffffffffffffffffffffffffffff168273ffffffffffffffffffffffffffffffffffffffff161415611860576040517f08c379a00000000000000000000000000000000000000000000000000000000081526004016118579061352c565b60405180910390fd5b61186b838383611e7d565b6118766000826115e3565b6001600360008573ffffffffffffffffffffffffffffffffffffffff1673ffffffffffffffffffffffffffffffffffffffff16815260200190815260200160002060008282546118c6919061354c565b925050819055506001600360008473ffffffffffffffffffffffffffffffffffffffff1673ffffffffffffffffffffffffffffffffffffffff168152602001908152602001600020600082825461191d9190612f31565b92505081905550816002600083815260200190815260200160002060006101000a81548173ffffffffffffffffffffffffffffffffffffffff021916908373ffffffffffffffffffffffffffffffffffffffff160217905550808273ffffffffffffffffffffffffffffffffffffffff168473ffffffffffffffffffffffffffffffffffffffff167fddf252ad1be2c89b69c2b068fc378daa952ba7f163c4a11628f55a4df523b3ef60405160405180910390a4505050565b600060016119e4600e611e82565b6119ee9190612f31565b90506119fa600e611e90565b611a048282611ea6565b611a9881600b8054611a1590612bb0565b80601f0160208091040260200160405190810160405280929190818152602001828054611a4190612bb0565b8015611a8e5780601f10611a6357610100808354040283529160200191611a8e565b820191906000526020600020905b815481529060010190602001808311611a7157829003601f168201915b5050505050611ec4565b5050565b6000600760009054906101000a900473ffffffffffffffffffffffffffffffffffffffff16905081600760006101000a81548173ffffffffffffffffffffffffffffffffffffffff021916908373ffffffffffffffffffffffffffffffffffffffff1602179055508173ffffffffffffffffffffffffffffffffffffffff168173ffffffffffffffffffffffffffffffffffffffff167f8be0079c531659141344cd1fd0a4f28419497f9722a3daafe3b4186f6b6457e060405160405180910390a35050565b8173ffffffffffffffffffffffffffffffffffffffff168373ffffffffffffffffffffffffffffffffffffffff161415611bd1576040517f08c379a0000000000000000000000000000000000000000000000000000000008152600401611bc8906135cc565b60405180910390fd5b80600560008573ffffffffffffffffffffffffffffffffffffffff1673ffffffffffffffffffffffffffffffffffffffff16815260200190815260200160002060008473ffffffffffffffffffffffffffffffffffffffff1673ffffffffffffffffffffffffffffffffffffffff16815260200190815260200160002060006101000a81548160ff0219169083151502179055508173ffffffffffffffffffffffffffffffffffffffff168373ffffffffffffffffffffffffffffffffffffffff167f17307eab39ab6107e8899845ad3d59bd9653f200f220920489ca2b5937696c3183604051611cc29190612672565b60405180910390a3505050565b611cda84848461177a565b611ce684848484611f38565b611d25576040517f08c379a0000000000000000000000000000000000000000000000000000000008152600401611d1c9061365e565b60405180910390fd5b50505050565b6060611d368261156f565b611d75576040517f08c379a0000000000000000000000000000000000000000000000000000000008152600401611d6c906136f0565b60405180910390fd5b6000600660008481526020019081526020016000208054611d9590612bb0565b80601f0160208091040260200160405190810160405280929190818152602001828054611dc190612bb0565b8015611e0e5780601f10611de357610100808354040283529160200191611e0e565b820191906000526020600020905b815481529060010190602001808311611df157829003601f168201915b505050505090506000611e1f6120c0565b9050600081511415611e35578192505050611e78565b600082511115611e6a578082604051602001611e5292919061374c565b60405160208183030381529060405292505050611e78565b611e73846120d7565b925050505b919050565b505050565b600081600001549050919050565b6001816000016000828254019250508190555050565b611ec082826040518060200160405280600081525061217e565b5050565b611ecd8261156f565b611f0c576040517f08c379a0000000000000000000000000000000000000000000000000000000008152600401611f03906137e2565b60405180910390fd5b80600660008481526020019081526020016000209080519060200190611f3392919061251b565b505050565b6000611f598473ffffffffffffffffffffffffffffffffffffffff166121d9565b156120b3578373ffffffffffffffffffffffffffffffffffffffff1663150b7a02611f826115db565b8786866040518563ffffffff1660e01b8152600401611fa49493929190613857565b6020604051808303816000875af1925050508015611fe057506040513d601f19601f82011682018060405250810190611fdd91906138b8565b60015b612063573d8060008114612010576040519150601f19603f3d011682016040523d82523d6000602084013e612015565b606091505b5060008151141561205b576040517f08c379a00000000000000000000000000000000000000000000000000000000081526004016120529061365e565b60405180910390fd5b805181602001fd5b63150b7a0260e01b7bffffffffffffffffffffffffffffffffffffffffffffffffffffffff1916817bffffffffffffffffffffffffffffffffffffffffffffffffffffffff1916149150506120b8565b600190505b949350505050565b606060405180602001604052806000815250905090565b60606120e28261156f565b612121576040517f08c379a000000000000000000000000000000000000000000000000000000000815260040161211890613957565b60405180910390fd5b600061212b6120c0565b9050600081511161214b5760405180602001604052806000815250612176565b80612155846121ec565b60405160200161216692919061374c565b6040516020818303038152906040525b915050919050565b612188838361234d565b6121956000848484611f38565b6121d4576040517f08c379a00000000000000000000000000000000000000000000000000000000081526004016121cb9061365e565b60405180910390fd5b505050565b600080823b905060008111915050919050565b60606000821415612234576040518060400160405280600181526020017f30000000000000000000000000000000000000000000000000000000000000008152509050612348565b600082905060005b6000821461226657808061224f9061312b565b915050600a8261225f91906139a6565b915061223c565b60008167ffffffffffffffff81111561228257612281612993565b5b6040519080825280601f01601f1916602001820160405280156122b45781602001600182028036833780820191505090505b5090505b60008514612341576001826122cd919061354c565b9150600a856122dc91906139d7565b60306122e89190612f31565b60f81b8183815181106122fe576122fd613a08565b5b60200101907effffffffffffffffffffffffffffffffffffffffffffffffffffffffffffff1916908160001a905350600a8561233a91906139a6565b94506122b8565b8093505050505b919050565b600073ffffffffffffffffffffffffffffffffffffffff168273ffffffffffffffffffffffffffffffffffffffff1614156123bd576040517f08c379a00000000000000000000000000000000000000000000000000000000081526004016123b490613a83565b60405180910390fd5b6123c68161156f565b15612406576040517f08c379a00000000000000000000000000000000000000000000000000000000081526004016123fd90613aef565b60405180910390fd5b61241260008383611e7d565b6001600360008473ffffffffffffffffffffffffffffffffffffffff1673ffffffffffffffffffffffffffffffffffffffff16815260200190815260200160002060008282546124629190612f31565b92505081905550816002600083815260200190815260200160002060006101000a81548173ffffffffffffffffffffffffffffffffffffffff021916908373ffffffffffffffffffffffffffffffffffffffff160217905550808273ffffffffffffffffffffffffffffffffffffffff16600073ffffffffffffffffffffffffffffffffffffffff167fddf252ad1be2c89b69c2b068fc378daa952ba7f163c4a11628f55a4df523b3ef60405160405180910390a45050565b82805461252790612bb0565b90600052602060002090601f0160209004810192826125495760008555612590565b82601f1061256257805160ff1916838001178555612590565b82800160010185558215612590579182015b8281111561258f578251825591602001919060010190612574565b5b50905061259d91906125a1565b5090565b5b808211156125ba5760008160009055506001016125a2565b5090565b6000604051905090565b600080fd5b600080fd5b60007fffffffff0000000000000000000000000000000000000000000000000000000082169050919050565b612607816125d2565b811461261257600080fd5b50565b600081359050612624816125fe565b92915050565b6000602082840312156126405761263f6125c8565b5b600061264e84828501612615565b91505092915050565b60008115159050919050565b61266c81612657565b82525050565b60006020820190506126876000830184612663565b92915050565b600081519050919050565b600082825260208201905092915050565b60005b838110156126c75780820151818401526020810190506126ac565b838111156126d6576000848401525b50505050565b6000601f19601f8301169050919050565b60006126f88261268d565b6127028185612698565b93506127128185602086016126a9565b61271b816126dc565b840191505092915050565b6000602082019050818103600083015261274081846126ed565b905092915050565b6000819050919050565b61275b81612748565b811461276657600080fd5b50565b60008135905061277881612752565b92915050565b600060208284031215612794576127936125c8565b5b60006127a284828501612769565b91505092915050565b600073ffffffffffffffffffffffffffffffffffffffff82169050919050565b60006127d6826127ab565b9050919050565b6127e6816127cb565b82525050565b600060208201905061280160008301846127dd565b92915050565b612810816127cb565b811461281b57600080fd5b50565b60008135905061282d81612807565b92915050565b6000806040838503121561284a576128496125c8565b5b60006128588582860161281e565b925050602061286985828601612769565b9150509250929050565b60008060006060848603121561288c5761288b6125c8565b5b600061289a8682870161281e565b93505060206128ab8682870161281e565b92505060406128bc86828701612769565b9150509250925092565b6128cf81612748565b82525050565b60006020820190506128ea60008301846128c6565b92915050565b600060208284031215612906576129056125c8565b5b60006129148482850161281e565b91505092915050565b61292681612657565b811461293157600080fd5b50565b6000813590506129438161291d565b92915050565b600080604083850312156129605761295f6125c8565b5b600061296e8582860161281e565b925050602061297f85828601612934565b9150509250929050565b600080fd5b600080fd5b7f4e487b7100000000000000000000000000000000000000000000000000000000600052604160045260246000fd5b6129cb826126dc565b810181811067ffffffffffffffff821117156129ea576129e9612993565b5b80604052505050565b60006129fd6125be565b9050612a0982826129c2565b919050565b600067ffffffffffffffff821115612a2957612a28612993565b5b612a32826126dc565b9050602081019050919050565b82818337600083830152505050565b6000612a61612a5c84612a0e565b6129f3565b905082815260208101848484011115612a7d57612a7c61298e565b5b612a88848285612a3f565b509392505050565b600082601f830112612aa557612aa4612989565b5b8135612ab5848260208601612a4e565b91505092915050565b60008060008060808587031215612ad857612ad76125c8565b5b6000612ae68782880161281e565b9450506020612af78782880161281e565b9350506040612b0887828801612769565b925050606085013567ffffffffffffffff811115612b2957612b286125cd565b5b612b3587828801612a90565b91505092959194509250565b60008060408385031215612b5857612b576125c8565b5b6000612b668582860161281e565b9250506020612b778582860161281e565b9150509250929050565b7f4e487b7100000000000000000000000000000000000000000000000000000000600052602260045260246000fd5b60006002820490506001821680612bc857607f821691505b60208210811415612bdc57612bdb612b81565b5b50919050565b7f4552433732313a20617070726f76656420717565727920666f72206e6f6e657860008201527f697374656e7420746f6b656e0000000000000000000000000000000000000000602082015250565b6000612c3e602c83612698565b9150612c4982612be2565b604082019050919050565b60006020820190508181036000830152612c6d81612c31565b9050919050565b7f4552433732313a20617070726f76616c20746f2063757272656e74206f776e6560008201527f7200000000000000000000000000000000000000000000000000000000000000602082015250565b6000612cd0602183612698565b9150612cdb82612c74565b604082019050919050565b60006020820190508181036000830152612cff81612cc3565b9050919050565b7f4552433732313a20617070726f76652063616c6c6572206973206e6f74206f7760008201527f6e6572206e6f7220617070726f76656420666f7220616c6c0000000000000000602082015250565b6000612d62603883612698565b9150612d6d82612d06565b604082019050919050565b60006020820190508181036000830152612d9181612d55565b9050919050565b7f4552433732313a207472616e736665722063616c6c6572206973206e6f74206f60008201527f776e6572206e6f7220617070726f766564000000000000000000000000000000602082015250565b6000612df4603183612698565b9150612dff82612d98565b604082019050919050565b60006020820190508181036000830152612e2381612de7565b9050919050565b7f4f776e61626c653a2063616c6c6572206973206e6f7420746865206f776e6572600082015250565b6000612e60602083612698565b9150612e6b82612e2a565b602082019050919050565b60006020820190508181036000830152612e8f81612e53565b9050919050565b7f5468652047616d6520686173206e6f7420626567756e00000000000000000000600082015250565b6000612ecc601683612698565b9150612ed782612e96565b602082019050919050565b60006020820190508181036000830152612efb81612ebf565b9050919050565b7f4e487b7100000000000000000000000000000000000000000000000000000000600052601160045260246000fd5b6000612f3c82612748565b9150612f4783612748565b9250827fffffffffffffffffffffffffffffffffffffffffffffffffffffffffffffffff03821115612f7c57612f7b612f02565b5b828201905092915050565b7f57652072656163686564206f757220746563686e6f6c6f676963616c206c696d60008201527f69742e204d696e74206c657373206c6f737365732c206f722061736b20616e6f60208201527f74686572204c6f73657220746f2073656e6420796f75206f6e652e0000000000604082015250565b6000613009605b83612698565b915061301482612f87565b606082019050919050565b6000602082019050818103600083015261303881612ffc565b9050919050565b600061304a82612748565b915061305583612748565b9250817fffffffffffffffffffffffffffffffffffffffffffffffffffffffffffffffff048311821515161561308e5761308d612f02565b5b828202905092915050565b7f536f72727920667269656e642c2073656e642074686520657861637420616d6f60008201527f756e74206f662045746865722072657175697265640000000000000000000000602082015250565b60006130f5603583612698565b915061310082613099565b604082019050919050565b60006020820190508181036000830152613124816130e8565b9050919050565b600061313682612748565b91507fffffffffffffffffffffffffffffffffffffffffffffffffffffffffffffffff82141561316957613168612f02565b5b600182019050919050565b7f4552433732313a206f776e657220717565727920666f72206e6f6e657869737460008201527f656e7420746f6b656e0000000000000000000000000000000000000000000000602082015250565b60006131d0602983612698565b91506131db82613174565b604082019050919050565b600060208201905081810360008301526131ff816131c3565b9050919050565b7f4552433732313a2062616c616e636520717565727920666f7220746865207a6560008201527f726f206164647265737300000000000000000000000000000000000000000000602082015250565b6000613262602a83612698565b915061326d82613206565b604082019050919050565b6000602082019050818103600083015261329181613255565b9050919050565b7f4e6f7420656e6f756768204574686572207761732073656e7400000000000000600082015250565b60006132ce601983612698565b91506132d982613298565b602082019050919050565b600060208201905081810360008301526132fd816132c1565b9050919050565b7f4f776e61626c653a206e6577206f776e657220697320746865207a65726f206160008201527f6464726573730000000000000000000000000000000000000000000000000000602082015250565b6000613360602683612698565b915061336b82613304565b604082019050919050565b6000602082019050818103600083015261338f81613353565b9050919050565b7f4552433732313a206f70657261746f7220717565727920666f72206e6f6e657860008201527f697374656e7420746f6b656e0000000000000000000000000000000000000000602082015250565b60006133f2602c83612698565b91506133fd82613396565b604082019050919050565b60006020820190508181036000830152613421816133e5565b9050919050565b7f4552433732313a207472616e73666572206f6620746f6b656e2074686174206960008201527f73206e6f74206f776e0000000000000000000000000000000000000000000000602082015250565b6000613484602983612698565b915061348f82613428565b604082019050919050565b600060208201905081810360008301526134b381613477565b9050919050565b7f4552433732313a207472616e7366657220746f20746865207a65726f2061646460008201527f7265737300000000000000000000000000000000000000000000000000000000602082015250565b6000613516602483612698565b9150613521826134ba565b604082019050919050565b6000602082019050818103600083015261354581613509565b9050919050565b600061355782612748565b915061356283612748565b92508282101561357557613574612f02565b5b828203905092915050565b7f4552433732313a20617070726f766520746f2063616c6c657200000000000000600082015250565b60006135b6601983612698565b91506135c182613580565b602082019050919050565b600060208201905081810360008301526135e5816135a9565b9050919050565b7f4552433732313a207472616e7366657220746f206e6f6e20455243373231526560008201527f63656976657220696d706c656d656e7465720000000000000000000000000000602082015250565b6000613648603283612698565b9150613653826135ec565b604082019050919050565b600060208201905081810360008301526136778161363b565b9050919050565b7f45524337323155524953746f726167653a2055524920717565727920666f722060008201527f6e6f6e6578697374656e7420746f6b656e000000000000000000000000000000602082015250565b60006136da603183612698565b91506136e58261367e565b604082019050919050565b60006020820190508181036000830152613709816136cd565b9050919050565b600081905092915050565b60006137268261268d565b6137308185613710565b93506137408185602086016126a9565b80840191505092915050565b6000613758828561371b565b9150613764828461371b565b91508190509392505050565b7f45524337323155524953746f726167653a2055524920736574206f66206e6f6e60008201527f6578697374656e7420746f6b656e000000000000000000000000000000000000602082015250565b60006137cc602e83612698565b91506137d782613770565b604082019050919050565b600060208201905081810360008301526137fb816137bf565b9050919050565b600081519050919050565b600082825260208201905092915050565b600061382982613802565b613833818561380d565b93506138438185602086016126a9565b61384c816126dc565b840191505092915050565b600060808201905061386c60008301876127dd565b61387960208301866127dd565b61388660408301856128c6565b8181036060830152613898818461381e565b905095945050505050565b6000815190506138b2816125fe565b92915050565b6000602082840312156138ce576138cd6125c8565b5b60006138dc848285016138a3565b91505092915050565b7f4552433732314d657461646174613a2055524920717565727920666f72206e6f60008201527f6e6578697374656e7420746f6b656e0000000000000000000000000000000000602082015250565b6000613941602f83612698565b915061394c826138e5565b604082019050919050565b6000602082019050818103600083015261397081613934565b9050919050565b7f4e487b7100000000000000000000000000000000000000000000000000000000600052601260045260246000fd5b60006139b182612748565b91506139bc83612748565b9250826139cc576139cb613977565b5b828204905092915050565b60006139e282612748565b91506139ed83612748565b9250826139fd576139fc613977565b5b828206905092915050565b7f4e487b7100000000000000000000000000000000000000000000000000000000600052603260045260246000fd5b7f4552433732313a206d696e7420746f20746865207a65726f2061646472657373600082015250565b6000613a6d602083612698565b9150613a7882613a37565b602082019050919050565b60006020820190508181036000830152613a9c81613a60565b9050919050565b7f4552433732313a20746f6b656e20616c7265616479206d696e74656400000000600082015250565b6000613ad9601c83612698565b9150613ae482613aa3565b602082019050919050565b60006020820190508181036000830152613b0881613acc565b905091905056fea26469706673582212207d3b54a3f5a40d02bff529ede9700df31af2eb2ec9a7189072c172ac99eea29c64736f6c634300080b003368747470733a2f2f6261666b726569676d333374767762643374366c656437746c746235666636377a7662686f6669686a3761786966746f35663766666e736d67686d2e697066732e647765622e6c696e6b2f",
  "immutableReferences": {},
  "source": "// SPDX-License-Identifier: MIT\npragma solidity 0.8.11;\n\nimport \"@openzeppelin/contracts/token/ERC721/ERC721.sol\";\nimport \"@openzeppelin/contracts/token/ERC721/extensions/ERC721URIStorage.sol\";\nimport \"@openzeppelin/contracts/access/Ownable.sol\";\nimport \"@openzeppelin/contracts/utils/Counters.sol\";\n\n\n/// @title The Game-Don't think about it \n/// @author rubrixks.eth\n/// @notice Will only be available on testnets until deployed on a L2 scaling solution\n/// @dev All function calls are currently implemented without side effects\n/// @custom:experimental This is an experimental contract.\ncontract TheGame is ERC721,ERC721URIStorage, Ownable {\n\n  bool public GameStarts = false;\n  uint public MaxSupply = 2**256-1;\n  uint public mintedLosses = 0;\n  uint public totalLosses =0;\n  string public baseURI = \"https://bafkreigm33tvwbd3t6led7tltb5ff67zvbhofihj7axifto5f7ffnsmghm.ipfs.dweb.link/\";\n  uint public LossBasePrice = .00025 ether;\n  mapping (address=>uint) LossTracker;\n  using Counters for Counters.Counter;\n    Counters.Counter private _tokenIdCounter;\n\n\n    constructor() ERC721(\"TheGame\", \"DTAI\") { \n    }\n    ///Needs to only allow owner to call\n\n    /// @notice Allows creator to mint the first 100 losses\n    /// @dev Only the owner can call this function\n    function firstLoser() payable public onlyOwner  {\n      beginTheGame();\n      require(msg.value == LossBasePrice * 10,\"Not enough Ether was sent\");\n        for (uint i = 0; i < 10; i++) {\n          safeMint(msg.sender);\n        }\n        totalLosses = totalLosses + 10;\n        LossTracker[msg.sender] = LossTracker[msg.sender] + 10;\n    } \n    ///Needs to HandOutLs after owner is given first 100 Ls;\n    /// notice Anyone who has thought about the game can mint as many Losses as they have thought of \n    /// dev Keeps track of how many Losses have been minted \n    /// param address wanting to mint and amount of losses wanted on the address\n    function HandOutLs(address to, uint amountOfLosses) payable public {\n      require(GameStarts == true,\"The Game has not begun\");\n      require(mintedLosses +amountOfLosses<= MaxSupply,\"We reached our technological limit. Mint less losses, or ask another Loser to send you one.\");\n      require(msg.value == LossBasePrice * amountOfLosses,\"Sorry friend, send the exact amount of Ether required\");\n        for (uint i = 0; i < amountOfLosses; i++) {\n          safeMint(to);\n        }\n        mintedLosses = mintedLosses + amountOfLosses;\n        totalLosses = totalLosses + amountOfLosses;\n        LossTracker[msg.sender] = LossTracker[msg.sender] + amountOfLosses;\n        }\n  /// notice Calculate tree age in years, rounded up, for live trees\n    /// dev safely mints NFT\n    /// param to is the address of the address wanting to mint NFT\n    function safeMint(address to) internal {\n        uint tokenId = _tokenIdCounter.current()+1;\n        _tokenIdCounter.increment();\n        _safeMint(to, tokenId);\n        _setTokenURI(tokenId, baseURI);\n    }\n    function _burn(uint256 tokenId) internal override(ERC721, ERC721URIStorage) {\n        super._burn(tokenId);\n    }\n    /// notice Returns JSON file of the The Game\n    /// dev Must return baseURI for all tokenURI requests\n    /// param tokenId is what makes the token nonfungible, it keeps track of when the NFT want minted\n    /// return URI\n    function tokenURI(uint256 tokenId) public view override(ERC721, ERC721URIStorage) returns (string memory) {\n        return super.tokenURI(tokenId);\n    }\n    /// notice Returns who the amount of Losses on in one address\n    /// dev Must return baseURI for all tokenURI requests\n    /// param ad is the address that tracks how many times the account has minted or has been transferred losses\n    /// returns a number\n    function lossFinder(address ad) public view returns(uint) {\n      return LossTracker[ad];\n    }\n    function withdraw() payable public onlyOwner {\n        uint amount = address(this).balance;\n        payable(msg.sender).transfer(amount);\n    }\n\n    function beginTheGame() public onlyOwner {\n        GameStarts = !GameStarts;\n    }\n    \n    function getMintedLosses() public view returns(uint){\n      return mintedLosses;\n    }\n\n    function getGameStarts() public view returns(bool){\n      return GameStarts;\n    }\n\n}\n",
  "sourcePath": "/Users/rubengarcia/consensys-blockchain-developer-bootcamp-2021/Consensys-final-project/contracts/TheGame.sol",
  "compiler": {
    "name": "solc",
    "version": "0.8.11+commit.d7f03943.Emscripten.clang"
  },
  "schemaVersion": "3.4.3",
  "updatedAt": "2021-12-21T04:25:13.360Z",
  "devdoc": {
    "author": "rubrixks.eth",
    "custom:experimental": "This is an experimental contract.",
    "details": "All function calls are currently implemented without side effects",
    "kind": "dev",
    "methods": {
      "approve(address,uint256)": {
        "details": "See {IERC721-approve}."
      },
      "balanceOf(address)": {
        "details": "See {IERC721-balanceOf}."
      },
      "firstLoser()": {
        "details": "Only the owner can call this function"
      },
      "getApproved(uint256)": {
        "details": "See {IERC721-getApproved}."
      },
      "isApprovedForAll(address,address)": {
        "details": "See {IERC721-isApprovedForAll}."
      },
      "name()": {
        "details": "See {IERC721Metadata-name}."
      },
      "owner()": {
        "details": "Returns the address of the current owner."
      },
      "ownerOf(uint256)": {
        "details": "See {IERC721-ownerOf}."
      },
      "renounceOwnership()": {
        "details": "Leaves the contract without owner. It will not be possible to call `onlyOwner` functions anymore. Can only be called by the current owner. NOTE: Renouncing ownership will leave the contract without an owner, thereby removing any functionality that is only available to the owner."
      },
      "safeTransferFrom(address,address,uint256)": {
        "details": "See {IERC721-safeTransferFrom}."
      },
      "safeTransferFrom(address,address,uint256,bytes)": {
        "details": "See {IERC721-safeTransferFrom}."
      },
      "setApprovalForAll(address,bool)": {
        "details": "See {IERC721-setApprovalForAll}."
      },
      "supportsInterface(bytes4)": {
        "details": "See {IERC165-supportsInterface}."
      },
      "symbol()": {
        "details": "See {IERC721Metadata-symbol}."
      },
      "transferFrom(address,address,uint256)": {
        "details": "See {IERC721-transferFrom}."
      },
      "transferOwnership(address)": {
        "details": "Transfers ownership of the contract to a new account (`newOwner`). Can only be called by the current owner."
      }
    },
    "title": "The Game-Don't think about it ",
    "version": 1
  },
  "userdoc": {
    "kind": "user",
    "methods": {
      "HandOutLs(address,uint256)": {
        "notice": "Needs to HandOutLs after owner is given first 100 Ls; notice Anyone who has thought about the game can mint as many Losses as they have thought of  dev Keeps track of how many Losses have been minted  param address wanting to mint and amount of losses wanted on the address"
      },
      "firstLoser()": {
        "notice": "Allows creator to mint the first 100 losses"
      },
      "lossFinder(address)": {
        "notice": "notice Returns who the amount of Losses on in one address dev Must return baseURI for all tokenURI requests param ad is the address that tracks how many times the account has minted or has been transferred losses returns a number"
      },
      "tokenURI(uint256)": {
        "notice": "notice Returns JSON file of the The Game dev Must return baseURI for all tokenURI requests param tokenId is what makes the token nonfungible, it keeps track of when the NFT want minted return URI"
      }
    },
    "notice": "Will only be available on testnets until deployed on a L2 scaling solution",
    "version": 1
  }
}