{
  "contractName": "TheGame",
  "abi": [
    {
      "inputs": [],
      "stateMutability": "nonpayable",
      "type": "constructor"
    },
    {
      "anonymous": false,
      "inputs": [
        {
          "indexed": true,
          "internalType": "address",
          "name": "owner",
          "type": "address"
        },
        {
          "indexed": true,
          "internalType": "address",
          "name": "approved",
          "type": "address"
        },
        {
          "indexed": true,
          "internalType": "uint256",
          "name": "tokenId",
          "type": "uint256"
        }
      ],
      "name": "Approval",
      "type": "event"
    },
    {
      "anonymous": false,
      "inputs": [
        {
          "indexed": true,
          "internalType": "address",
          "name": "owner",
          "type": "address"
        },
        {
          "indexed": true,
          "internalType": "address",
          "name": "operator",
          "type": "address"
        },
        {
          "indexed": false,
          "internalType": "bool",
          "name": "approved",
          "type": "bool"
        }
      ],
      "name": "ApprovalForAll",
      "type": "event"
    },
    {
      "anonymous": false,
      "inputs": [
        {
          "indexed": true,
          "internalType": "address",
          "name": "previousOwner",
          "type": "address"
        },
        {
          "indexed": true,
          "internalType": "address",
          "name": "newOwner",
          "type": "address"
        }
      ],
      "name": "OwnershipTransferred",
      "type": "event"
    },
    {
      "anonymous": false,
      "inputs": [
        {
          "indexed": true,
          "internalType": "address",
          "name": "from",
          "type": "address"
        },
        {
          "indexed": true,
          "internalType": "address",
          "name": "to",
          "type": "address"
        },
        {
          "indexed": true,
          "internalType": "uint256",
          "name": "tokenId",
          "type": "uint256"
        }
      ],
      "name": "Transfer",
      "type": "event"
    },
    {
      "inputs": [],
      "name": "AccountwithMostLs",
      "outputs": [
        {
          "internalType": "string",
          "name": "",
          "type": "string"
        }
      ],
      "stateMutability": "view",
      "type": "function",
      "constant": true
    },
    {
      "inputs": [
        {
          "internalType": "address",
          "name": "to",
          "type": "address"
        },
        {
          "internalType": "uint256",
          "name": "tokenId",
          "type": "uint256"
        }
      ],
      "name": "approve",
      "outputs": [],
      "stateMutability": "nonpayable",
      "type": "function"
    },
    {
      "inputs": [
        {
          "internalType": "address",
          "name": "owner",
          "type": "address"
        }
      ],
      "name": "balanceOf",
      "outputs": [
        {
          "internalType": "uint256",
          "name": "",
          "type": "uint256"
        }
      ],
      "stateMutability": "view",
      "type": "function",
      "constant": true
    },
    {
      "inputs": [],
      "name": "baseURI",
      "outputs": [
        {
          "internalType": "string",
          "name": "",
          "type": "string"
        }
      ],
      "stateMutability": "view",
      "type": "function",
      "constant": true
    },
    {
      "inputs": [
        {
          "internalType": "uint256",
          "name": "tokenId",
          "type": "uint256"
        }
      ],
      "name": "getApproved",
      "outputs": [
        {
          "internalType": "address",
          "name": "",
          "type": "address"
        }
      ],
      "stateMutability": "view",
      "type": "function",
      "constant": true
    },
    {
      "inputs": [
        {
          "internalType": "address",
          "name": "owner",
          "type": "address"
        },
        {
          "internalType": "address",
          "name": "operator",
          "type": "address"
        }
      ],
      "name": "isApprovedForAll",
      "outputs": [
        {
          "internalType": "bool",
          "name": "",
          "type": "bool"
        }
      ],
      "stateMutability": "view",
      "type": "function",
      "constant": true
    },
    {
      "inputs": [],
      "name": "name",
      "outputs": [
        {
          "internalType": "string",
          "name": "",
          "type": "string"
        }
      ],
      "stateMutability": "view",
      "type": "function",
      "constant": true
    },
    {
      "inputs": [],
      "name": "owner",
      "outputs": [
        {
          "internalType": "address",
          "name": "",
          "type": "address"
        }
      ],
      "stateMutability": "view",
      "type": "function",
      "constant": true
    },
    {
      "inputs": [
        {
          "internalType": "uint256",
          "name": "tokenId",
          "type": "uint256"
        }
      ],
      "name": "ownerOf",
      "outputs": [
        {
          "internalType": "address",
          "name": "",
          "type": "address"
        }
      ],
      "stateMutability": "view",
      "type": "function",
      "constant": true
    },
    {
      "inputs": [],
      "name": "renounceOwnership",
      "outputs": [],
      "stateMutability": "nonpayable",
      "type": "function"
    },
    {
      "inputs": [
        {
          "internalType": "address",
          "name": "from",
          "type": "address"
        },
        {
          "internalType": "address",
          "name": "to",
          "type": "address"
        },
        {
          "internalType": "uint256",
          "name": "tokenId",
          "type": "uint256"
        }
      ],
      "name": "safeTransferFrom",
      "outputs": [],
      "stateMutability": "nonpayable",
      "type": "function"
    },
    {
      "inputs": [
        {
          "internalType": "address",
          "name": "from",
          "type": "address"
        },
        {
          "internalType": "address",
          "name": "to",
          "type": "address"
        },
        {
          "internalType": "uint256",
          "name": "tokenId",
          "type": "uint256"
        },
        {
          "internalType": "bytes",
          "name": "_data",
          "type": "bytes"
        }
      ],
      "name": "safeTransferFrom",
      "outputs": [],
      "stateMutability": "nonpayable",
      "type": "function"
    },
    {
      "inputs": [
        {
          "internalType": "address",
          "name": "operator",
          "type": "address"
        },
        {
          "internalType": "bool",
          "name": "approved",
          "type": "bool"
        }
      ],
      "name": "setApprovalForAll",
      "outputs": [],
      "stateMutability": "nonpayable",
      "type": "function"
    },
    {
      "inputs": [
        {
          "internalType": "bytes4",
          "name": "interfaceId",
          "type": "bytes4"
        }
      ],
      "name": "supportsInterface",
      "outputs": [
        {
          "internalType": "bool",
          "name": "",
          "type": "bool"
        }
      ],
      "stateMutability": "view",
      "type": "function",
      "constant": true
    },
    {
      "inputs": [],
      "name": "symbol",
      "outputs": [
        {
          "internalType": "string",
          "name": "",
          "type": "string"
        }
      ],
      "stateMutability": "view",
      "type": "function",
      "constant": true
    },
    {
      "inputs": [],
      "name": "totalLosses",
      "outputs": [
        {
          "internalType": "uint256",
          "name": "",
          "type": "uint256"
        }
      ],
      "stateMutability": "view",
      "type": "function",
      "constant": true
    },
    {
      "inputs": [],
      "name": "totalSupply",
      "outputs": [
        {
          "internalType": "uint256",
          "name": "",
          "type": "uint256"
        }
      ],
      "stateMutability": "view",
      "type": "function",
      "constant": true
    },
    {
      "inputs": [
        {
          "internalType": "address",
          "name": "from",
          "type": "address"
        },
        {
          "internalType": "address",
          "name": "to",
          "type": "address"
        },
        {
          "internalType": "uint256",
          "name": "tokenId",
          "type": "uint256"
        }
      ],
      "name": "transferFrom",
      "outputs": [],
      "stateMutability": "nonpayable",
      "type": "function"
    },
    {
      "inputs": [
        {
          "internalType": "address",
          "name": "newOwner",
          "type": "address"
        }
      ],
      "name": "transferOwnership",
      "outputs": [],
      "stateMutability": "nonpayable",
      "type": "function"
    },
    {
      "inputs": [],
      "name": "FirstLoser",
      "outputs": [],
      "stateMutability": "nonpayable",
      "type": "function"
    },
    {
      "inputs": [
        {
          "internalType": "address",
          "name": "to",
          "type": "address"
        },
        {
          "internalType": "uint256",
          "name": "amountOfLosses",
          "type": "uint256"
        }
      ],
      "name": "HandOutLs",
      "outputs": [],
      "stateMutability": "nonpayable",
      "type": "function"
    },
    {
      "inputs": [
        {
          "internalType": "address",
          "name": "to",
          "type": "address"
        }
      ],
      "name": "safeMint",
      "outputs": [],
      "stateMutability": "nonpayable",
      "type": "function"
    },
    {
      "inputs": [
        {
          "internalType": "uint256",
          "name": "tokenId",
          "type": "uint256"
        }
      ],
      "name": "tokenURI",
      "outputs": [
        {
          "internalType": "string",
          "name": "",
          "type": "string"
        }
      ],
      "stateMutability": "view",
      "type": "function",
      "constant": true
    },
    {
      "inputs": [
        {
          "internalType": "address",
          "name": "ad",
          "type": "address"
        }
      ],
      "name": "LossFinder",
      "outputs": [
        {
          "internalType": "uint256",
          "name": "",
          "type": "uint256"
        }
      ],
      "stateMutability": "view",
      "type": "function",
      "constant": true
    }
  ],
  "bytecode": "0x60806040527fffffffffffffffffffffffffffffffffffffffffffffffffffffffffffffffff60085560006009556040518060800160405280605381526020016200369860539139600a90805190602001906200005e92919062000201565b503480156200006c57600080fd5b506040518060400160405280600781526020017f54686547616d65000000000000000000000000000000000000000000000000008152506040518060400160405280600481526020017f4c4f5354000000000000000000000000000000000000000000000000000000008152508160009080519060200190620000f192919062000201565b5080600190805190602001906200010a92919062000201565b5050506200012d620001216200013360201b60201c565b6200013b60201b60201c565b62000316565b600033905090565b6000600760009054906101000a900473ffffffffffffffffffffffffffffffffffffffff16905081600760006101000a81548173ffffffffffffffffffffffffffffffffffffffff021916908373ffffffffffffffffffffffffffffffffffffffff1602179055508173ffffffffffffffffffffffffffffffffffffffff168173ffffffffffffffffffffffffffffffffffffffff167f8be0079c531659141344cd1fd0a4f28419497f9722a3daafe3b4186f6b6457e060405160405180910390a35050565b8280546200020f90620002e0565b90600052602060002090601f0160209004810192826200023357600085556200027f565b82601f106200024e57805160ff19168380011785556200027f565b828001600101855582156200027f579182015b828111156200027e57825182559160200191906001019062000261565b5b5090506200028e919062000292565b5090565b5b80821115620002ad57600081600090555060010162000293565b5090565b7f4e487b7100000000000000000000000000000000000000000000000000000000600052602260045260246000fd5b60006002820490506001821680620002f957607f821691505b6020821081141562000310576200030f620002b1565b5b50919050565b61337280620003266000396000f3fe608060405234801561001057600080fd5b50600436106101585760003560e01c80636c0360eb116100c3578063a22cb4651161007c578063a22cb465146103a1578063b88d4fde146103bd578063bf04820b146103d9578063c87b56dd146103f7578063e985e9c514610427578063f2fde38b1461045757610158565b80636c0360eb1461030357806370a0823114610321578063715018a61461035157806383037fa81461035b5780638da5cb5b1461036557806395d89b411461038357610158565b806323b872dd1161011557806323b872dd1461023357806326839cc81461024f57806340d097c31461027f57806342842e0e1461029b5780635731a234146102b75780636352211e146102d357610158565b806301ffc9a71461015d57806306fdde031461018d578063081812fc146101ab57806308c2595c146101db578063095ea7b3146101f957806318160ddd14610215575b600080fd5b610177600480360381019061017291906120d3565b610473565b604051610184919061211b565b60405180910390f35b610195610555565b6040516101a291906121cf565b60405180910390f35b6101c560048036038101906101c09190612227565b6105e7565b6040516101d29190612295565b60405180910390f35b6101e361066c565b6040516101f091906121cf565b60405180910390f35b610213600480360381019061020e91906122dc565b6106fa565b005b61021d610812565b60405161022a919061232b565b60405180910390f35b61024d60048036038101906102489190612346565b610818565b005b61026960048036038101906102649190612399565b610878565b604051610276919061232b565b60405180910390f35b61029960048036038101906102949190612399565b6108c1565b005b6102b560048036038101906102b09190612346565b610987565b005b6102d160048036038101906102cc91906122dc565b6109a7565b005b6102ed60048036038101906102e89190612227565b610a75565b6040516102fa9190612295565b60405180910390f35b61030b610b27565b60405161031891906121cf565b60405180910390f35b61033b60048036038101906103369190612399565b610bb5565b604051610348919061232b565b60405180910390f35b610359610c6d565b005b610363610cf5565b005b61036d610d9c565b60405161037a9190612295565b60405180910390f35b61038b610dc6565b60405161039891906121cf565b60405180910390f35b6103bb60048036038101906103b691906123f2565b610e58565b005b6103d760048036038101906103d29190612567565b610e6e565b005b6103e1610ed0565b6040516103ee919061232b565b60405180910390f35b610411600480360381019061040c9190612227565b610ed6565b60405161041e91906121cf565b60405180910390f35b610441600480360381019061043c91906125ea565b610ee8565b60405161044e919061211b565b60405180910390f35b610471600480360381019061046c9190612399565b610f7c565b005b60007f80ac58cd000000000000000000000000000000000000000000000000000000007bffffffffffffffffffffffffffffffffffffffffffffffffffffffff1916827bffffffffffffffffffffffffffffffffffffffffffffffffffffffff1916148061053e57507f5b5e139f000000000000000000000000000000000000000000000000000000007bffffffffffffffffffffffffffffffffffffffffffffffffffffffff1916827bffffffffffffffffffffffffffffffffffffffffffffffffffffffff1916145b8061054e575061054d82611074565b5b9050919050565b60606000805461056490612659565b80601f016020809104026020016040519081016040528092919081815260200182805461059090612659565b80156105dd5780601f106105b2576101008083540402835291602001916105dd565b820191906000526020600020905b8154815290600101906020018083116105c057829003601f168201915b5050505050905090565b60006105f2826110de565b610631576040517f08c379a0000000000000000000000000000000000000000000000000000000008152600401610628906126fd565b60405180910390fd5b6004600083815260200190815260200160002060009054906101000a900473ffffffffffffffffffffffffffffffffffffffff169050919050565b600b805461067990612659565b80601f01602080910402602001604051908101604052809291908181526020018280546106a590612659565b80156106f25780601f106106c7576101008083540402835291602001916106f2565b820191906000526020600020905b8154815290600101906020018083116106d557829003601f168201915b505050505081565b600061070582610a75565b90508073ffffffffffffffffffffffffffffffffffffffff168373ffffffffffffffffffffffffffffffffffffffff161415610776576040517f08c379a000000000000000000000000000000000000000000000000000000000815260040161076d9061278f565b60405180910390fd5b8073ffffffffffffffffffffffffffffffffffffffff1661079561114a565b73ffffffffffffffffffffffffffffffffffffffff1614806107c457506107c3816107be61114a565b610ee8565b5b610803576040517f08c379a00000000000000000000000000000000000000000000000000000000081526004016107fa90612821565b60405180910390fd5b61080d8383611152565b505050565b60085481565b61082961082361114a565b8261120b565b610868576040517f08c379a000000000000000000000000000000000000000000000000000000000815260040161085f906128b3565b60405180910390fd5b6108738383836112e9565b505050565b6000600c60008373ffffffffffffffffffffffffffffffffffffffff1673ffffffffffffffffffffffffffffffffffffffff168152602001908152602001600020549050919050565b600060016108cf600d611545565b6108d99190612902565b90506108e5600d611553565b6108ef8282611569565b61098381600a805461090090612659565b80601f016020809104026020016040519081016040528092919081815260200182805461092c90612659565b80156109795780601f1061094e57610100808354040283529160200191610979565b820191906000526020600020905b81548152906001019060200180831161095c57829003601f168201915b5050505050611587565b5050565b6109a283838360405180602001604052806000815250610e6e565b505050565b60005b818110156109ce576109bb836108c1565b80806109c690612958565b9150506109aa565b50806009546109dd9190612902565b60098190555080600c60003373ffffffffffffffffffffffffffffffffffffffff1673ffffffffffffffffffffffffffffffffffffffff16815260200190815260200160002054610a2e9190612902565b600c60003373ffffffffffffffffffffffffffffffffffffffff1673ffffffffffffffffffffffffffffffffffffffff168152602001908152602001600020819055505050565b6000806002600084815260200190815260200160002060009054906101000a900473ffffffffffffffffffffffffffffffffffffffff169050600073ffffffffffffffffffffffffffffffffffffffff168173ffffffffffffffffffffffffffffffffffffffff161415610b1e576040517f08c379a0000000000000000000000000000000000000000000000000000000008152600401610b1590612a13565b60405180910390fd5b80915050919050565b600a8054610b3490612659565b80601f0160208091040260200160405190810160405280929190818152602001828054610b6090612659565b8015610bad5780601f10610b8257610100808354040283529160200191610bad565b820191906000526020600020905b815481529060010190602001808311610b9057829003601f168201915b505050505081565b60008073ffffffffffffffffffffffffffffffffffffffff168273ffffffffffffffffffffffffffffffffffffffff161415610c26576040517f08c379a0000000000000000000000000000000000000000000000000000000008152600401610c1d90612aa5565b60405180910390fd5b600360008373ffffffffffffffffffffffffffffffffffffffff1673ffffffffffffffffffffffffffffffffffffffff168152602001908152602001600020549050919050565b610c7561114a565b73ffffffffffffffffffffffffffffffffffffffff16610c93610d9c565b73ffffffffffffffffffffffffffffffffffffffff1614610ce9576040517f08c379a0000000000000000000000000000000000000000000000000000000008152600401610ce090612b11565b60405180910390fd5b610cf360006115fb565b565b610cfd61114a565b73ffffffffffffffffffffffffffffffffffffffff16610d1b610d9c565b73ffffffffffffffffffffffffffffffffffffffff1614610d71576040517f08c379a0000000000000000000000000000000000000000000000000000000008152600401610d6890612b11565b60405180910390fd5b60005b6003811015610d9957610d86336108c1565b8080610d9190612958565b915050610d74565b50565b6000600760009054906101000a900473ffffffffffffffffffffffffffffffffffffffff16905090565b606060018054610dd590612659565b80601f0160208091040260200160405190810160405280929190818152602001828054610e0190612659565b8015610e4e5780601f10610e2357610100808354040283529160200191610e4e565b820191906000526020600020905b815481529060010190602001808311610e3157829003601f168201915b5050505050905090565b610e6a610e6361114a565b83836116c1565b5050565b610e7f610e7961114a565b8361120b565b610ebe576040517f08c379a0000000000000000000000000000000000000000000000000000000008152600401610eb5906128b3565b60405180910390fd5b610eca8484848461182e565b50505050565b60095481565b6060610ee18261188a565b9050919050565b6000600560008473ffffffffffffffffffffffffffffffffffffffff1673ffffffffffffffffffffffffffffffffffffffff16815260200190815260200160002060008373ffffffffffffffffffffffffffffffffffffffff1673ffffffffffffffffffffffffffffffffffffffff16815260200190815260200160002060009054906101000a900460ff16905092915050565b610f8461114a565b73ffffffffffffffffffffffffffffffffffffffff16610fa2610d9c565b73ffffffffffffffffffffffffffffffffffffffff1614610ff8576040517f08c379a0000000000000000000000000000000000000000000000000000000008152600401610fef90612b11565b60405180910390fd5b600073ffffffffffffffffffffffffffffffffffffffff168173ffffffffffffffffffffffffffffffffffffffff161415611068576040517f08c379a000000000000000000000000000000000000000000000000000000000815260040161105f90612ba3565b60405180910390fd5b611071816115fb565b50565b60007f01ffc9a7000000000000000000000000000000000000000000000000000000007bffffffffffffffffffffffffffffffffffffffffffffffffffffffff1916827bffffffffffffffffffffffffffffffffffffffffffffffffffffffff1916149050919050565b60008073ffffffffffffffffffffffffffffffffffffffff166002600084815260200190815260200160002060009054906101000a900473ffffffffffffffffffffffffffffffffffffffff1673ffffffffffffffffffffffffffffffffffffffff1614159050919050565b600033905090565b816004600083815260200190815260200160002060006101000a81548173ffffffffffffffffffffffffffffffffffffffff021916908373ffffffffffffffffffffffffffffffffffffffff160217905550808273ffffffffffffffffffffffffffffffffffffffff166111c583610a75565b73ffffffffffffffffffffffffffffffffffffffff167f8c5be1e5ebec7d5bd14f71427d1e84f3dd0314c0f7b2291e5b200ac8c7c3b92560405160405180910390a45050565b6000611216826110de565b611255576040517f08c379a000000000000000000000000000000000000000000000000000000000815260040161124c90612c35565b60405180910390fd5b600061126083610a75565b90508073ffffffffffffffffffffffffffffffffffffffff168473ffffffffffffffffffffffffffffffffffffffff1614806112cf57508373ffffffffffffffffffffffffffffffffffffffff166112b7846105e7565b73ffffffffffffffffffffffffffffffffffffffff16145b806112e057506112df8185610ee8565b5b91505092915050565b8273ffffffffffffffffffffffffffffffffffffffff1661130982610a75565b73ffffffffffffffffffffffffffffffffffffffff161461135f576040517f08c379a000000000000000000000000000000000000000000000000000000000815260040161135690612cc7565b60405180910390fd5b600073ffffffffffffffffffffffffffffffffffffffff168273ffffffffffffffffffffffffffffffffffffffff1614156113cf576040517f08c379a00000000000000000000000000000000000000000000000000000000081526004016113c690612d59565b60405180910390fd5b6113da8383836119dc565b6113e5600082611152565b6001600360008573ffffffffffffffffffffffffffffffffffffffff1673ffffffffffffffffffffffffffffffffffffffff16815260200190815260200160002060008282546114359190612d79565b925050819055506001600360008473ffffffffffffffffffffffffffffffffffffffff1673ffffffffffffffffffffffffffffffffffffffff168152602001908152602001600020600082825461148c9190612902565b92505081905550816002600083815260200190815260200160002060006101000a81548173ffffffffffffffffffffffffffffffffffffffff021916908373ffffffffffffffffffffffffffffffffffffffff160217905550808273ffffffffffffffffffffffffffffffffffffffff168473ffffffffffffffffffffffffffffffffffffffff167fddf252ad1be2c89b69c2b068fc378daa952ba7f163c4a11628f55a4df523b3ef60405160405180910390a4505050565b600081600001549050919050565b6001816000016000828254019250508190555050565b6115838282604051806020016040528060008152506119e1565b5050565b611590826110de565b6115cf576040517f08c379a00000000000000000000000000000000000000000000000000000000081526004016115c690612e1f565b60405180910390fd5b806006600084815260200190815260200160002090805190602001906115f6929190611fc4565b505050565b6000600760009054906101000a900473ffffffffffffffffffffffffffffffffffffffff16905081600760006101000a81548173ffffffffffffffffffffffffffffffffffffffff021916908373ffffffffffffffffffffffffffffffffffffffff1602179055508173ffffffffffffffffffffffffffffffffffffffff168173ffffffffffffffffffffffffffffffffffffffff167f8be0079c531659141344cd1fd0a4f28419497f9722a3daafe3b4186f6b6457e060405160405180910390a35050565b8173ffffffffffffffffffffffffffffffffffffffff168373ffffffffffffffffffffffffffffffffffffffff161415611730576040517f08c379a000000000000000000000000000000000000000000000000000000000815260040161172790612e8b565b60405180910390fd5b80600560008573ffffffffffffffffffffffffffffffffffffffff1673ffffffffffffffffffffffffffffffffffffffff16815260200190815260200160002060008473ffffffffffffffffffffffffffffffffffffffff1673ffffffffffffffffffffffffffffffffffffffff16815260200190815260200160002060006101000a81548160ff0219169083151502179055508173ffffffffffffffffffffffffffffffffffffffff168373ffffffffffffffffffffffffffffffffffffffff167f17307eab39ab6107e8899845ad3d59bd9653f200f220920489ca2b5937696c3183604051611821919061211b565b60405180910390a3505050565b6118398484846112e9565b61184584848484611a3c565b611884576040517f08c379a000000000000000000000000000000000000000000000000000000000815260040161187b90612f1d565b60405180910390fd5b50505050565b6060611895826110de565b6118d4576040517f08c379a00000000000000000000000000000000000000000000000000000000081526004016118cb90612faf565b60405180910390fd5b60006006600084815260200190815260200160002080546118f490612659565b80601f016020809104026020016040519081016040528092919081815260200182805461192090612659565b801561196d5780601f106119425761010080835404028352916020019161196d565b820191906000526020600020905b81548152906001019060200180831161195057829003601f168201915b50505050509050600061197e611bc4565b90506000815114156119945781925050506119d7565b6000825111156119c95780826040516020016119b192919061300b565b604051602081830303815290604052925050506119d7565b6119d284611bdb565b925050505b919050565b505050565b6119eb8383611c82565b6119f86000848484611a3c565b611a37576040517f08c379a0000000000000000000000000000000000000000000000000000000008152600401611a2e90612f1d565b60405180910390fd5b505050565b6000611a5d8473ffffffffffffffffffffffffffffffffffffffff16611e50565b15611bb7578373ffffffffffffffffffffffffffffffffffffffff1663150b7a02611a8661114a565b8786866040518563ffffffff1660e01b8152600401611aa89493929190613084565b6020604051808303816000875af1925050508015611ae457506040513d601f19601f82011682018060405250810190611ae191906130e5565b60015b611b67573d8060008114611b14576040519150601f19603f3d011682016040523d82523d6000602084013e611b19565b606091505b50600081511415611b5f576040517f08c379a0000000000000000000000000000000000000000000000000000000008152600401611b5690612f1d565b60405180910390fd5b805181602001fd5b63150b7a0260e01b7bffffffffffffffffffffffffffffffffffffffffffffffffffffffff1916817bffffffffffffffffffffffffffffffffffffffffffffffffffffffff191614915050611bbc565b600190505b949350505050565b606060405180602001604052806000815250905090565b6060611be6826110de565b611c25576040517f08c379a0000000000000000000000000000000000000000000000000000000008152600401611c1c90613184565b60405180910390fd5b6000611c2f611bc4565b90506000815111611c4f5760405180602001604052806000815250611c7a565b80611c5984611e63565b604051602001611c6a92919061300b565b6040516020818303038152906040525b915050919050565b600073ffffffffffffffffffffffffffffffffffffffff168273ffffffffffffffffffffffffffffffffffffffff161415611cf2576040517f08c379a0000000000000000000000000000000000000000000000000000000008152600401611ce9906131f0565b60405180910390fd5b611cfb816110de565b15611d3b576040517f08c379a0000000000000000000000000000000000000000000000000000000008152600401611d329061325c565b60405180910390fd5b611d47600083836119dc565b6001600360008473ffffffffffffffffffffffffffffffffffffffff1673ffffffffffffffffffffffffffffffffffffffff1681526020019081526020016000206000828254611d979190612902565b92505081905550816002600083815260200190815260200160002060006101000a81548173ffffffffffffffffffffffffffffffffffffffff021916908373ffffffffffffffffffffffffffffffffffffffff160217905550808273ffffffffffffffffffffffffffffffffffffffff16600073ffffffffffffffffffffffffffffffffffffffff167fddf252ad1be2c89b69c2b068fc378daa952ba7f163c4a11628f55a4df523b3ef60405160405180910390a45050565b600080823b905060008111915050919050565b60606000821415611eab576040518060400160405280600181526020017f30000000000000000000000000000000000000000000000000000000000000008152509050611fbf565b600082905060005b60008214611edd578080611ec690612958565b915050600a82611ed691906132ab565b9150611eb3565b60008167ffffffffffffffff811115611ef957611ef861243c565b5b6040519080825280601f01601f191660200182016040528015611f2b5781602001600182028036833780820191505090505b5090505b60008514611fb857600182611f449190612d79565b9150600a85611f5391906132dc565b6030611f5f9190612902565b60f81b818381518110611f7557611f7461330d565b5b60200101907effffffffffffffffffffffffffffffffffffffffffffffffffffffffffffff1916908160001a905350600a85611fb191906132ab565b9450611f2f565b8093505050505b919050565b828054611fd090612659565b90600052602060002090601f016020900481019282611ff25760008555612039565b82601f1061200b57805160ff1916838001178555612039565b82800160010185558215612039579182015b8281111561203857825182559160200191906001019061201d565b5b509050612046919061204a565b5090565b5b8082111561206357600081600090555060010161204b565b5090565b6000604051905090565b600080fd5b600080fd5b60007fffffffff0000000000000000000000000000000000000000000000000000000082169050919050565b6120b08161207b565b81146120bb57600080fd5b50565b6000813590506120cd816120a7565b92915050565b6000602082840312156120e9576120e8612071565b5b60006120f7848285016120be565b91505092915050565b60008115159050919050565b61211581612100565b82525050565b6000602082019050612130600083018461210c565b92915050565b600081519050919050565b600082825260208201905092915050565b60005b83811015612170578082015181840152602081019050612155565b8381111561217f576000848401525b50505050565b6000601f19601f8301169050919050565b60006121a182612136565b6121ab8185612141565b93506121bb818560208601612152565b6121c481612185565b840191505092915050565b600060208201905081810360008301526121e98184612196565b905092915050565b6000819050919050565b612204816121f1565b811461220f57600080fd5b50565b600081359050612221816121fb565b92915050565b60006020828403121561223d5761223c612071565b5b600061224b84828501612212565b91505092915050565b600073ffffffffffffffffffffffffffffffffffffffff82169050919050565b600061227f82612254565b9050919050565b61228f81612274565b82525050565b60006020820190506122aa6000830184612286565b92915050565b6122b981612274565b81146122c457600080fd5b50565b6000813590506122d6816122b0565b92915050565b600080604083850312156122f3576122f2612071565b5b6000612301858286016122c7565b925050602061231285828601612212565b9150509250929050565b612325816121f1565b82525050565b6000602082019050612340600083018461231c565b92915050565b60008060006060848603121561235f5761235e612071565b5b600061236d868287016122c7565b935050602061237e868287016122c7565b925050604061238f86828701612212565b9150509250925092565b6000602082840312156123af576123ae612071565b5b60006123bd848285016122c7565b91505092915050565b6123cf81612100565b81146123da57600080fd5b50565b6000813590506123ec816123c6565b92915050565b6000806040838503121561240957612408612071565b5b6000612417858286016122c7565b9250506020612428858286016123dd565b9150509250929050565b600080fd5b600080fd5b7f4e487b7100000000000000000000000000000000000000000000000000000000600052604160045260246000fd5b61247482612185565b810181811067ffffffffffffffff821117156124935761249261243c565b5b80604052505050565b60006124a6612067565b90506124b2828261246b565b919050565b600067ffffffffffffffff8211156124d2576124d161243c565b5b6124db82612185565b9050602081019050919050565b82818337600083830152505050565b600061250a612505846124b7565b61249c565b90508281526020810184848401111561252657612525612437565b5b6125318482856124e8565b509392505050565b600082601f83011261254e5761254d612432565b5b813561255e8482602086016124f7565b91505092915050565b6000806000806080858703121561258157612580612071565b5b600061258f878288016122c7565b94505060206125a0878288016122c7565b93505060406125b187828801612212565b925050606085013567ffffffffffffffff8111156125d2576125d1612076565b5b6125de87828801612539565b91505092959194509250565b6000806040838503121561260157612600612071565b5b600061260f858286016122c7565b9250506020612620858286016122c7565b9150509250929050565b7f4e487b7100000000000000000000000000000000000000000000000000000000600052602260045260246000fd5b6000600282049050600182168061267157607f821691505b602082108114156126855761268461262a565b5b50919050565b7f4552433732313a20617070726f76656420717565727920666f72206e6f6e657860008201527f697374656e7420746f6b656e0000000000000000000000000000000000000000602082015250565b60006126e7602c83612141565b91506126f28261268b565b604082019050919050565b60006020820190508181036000830152612716816126da565b9050919050565b7f4552433732313a20617070726f76616c20746f2063757272656e74206f776e6560008201527f7200000000000000000000000000000000000000000000000000000000000000602082015250565b6000612779602183612141565b91506127848261271d565b604082019050919050565b600060208201905081810360008301526127a88161276c565b9050919050565b7f4552433732313a20617070726f76652063616c6c6572206973206e6f74206f7760008201527f6e6572206e6f7220617070726f76656420666f7220616c6c0000000000000000602082015250565b600061280b603883612141565b9150612816826127af565b604082019050919050565b6000602082019050818103600083015261283a816127fe565b9050919050565b7f4552433732313a207472616e736665722063616c6c6572206973206e6f74206f60008201527f776e6572206e6f7220617070726f766564000000000000000000000000000000602082015250565b600061289d603183612141565b91506128a882612841565b604082019050919050565b600060208201905081810360008301526128cc81612890565b9050919050565b7f4e487b7100000000000000000000000000000000000000000000000000000000600052601160045260246000fd5b600061290d826121f1565b9150612918836121f1565b9250827fffffffffffffffffffffffffffffffffffffffffffffffffffffffffffffffff0382111561294d5761294c6128d3565b5b828201905092915050565b6000612963826121f1565b91507fffffffffffffffffffffffffffffffffffffffffffffffffffffffffffffffff821415612996576129956128d3565b5b600182019050919050565b7f4552433732313a206f776e657220717565727920666f72206e6f6e657869737460008201527f656e7420746f6b656e0000000000000000000000000000000000000000000000602082015250565b60006129fd602983612141565b9150612a08826129a1565b604082019050919050565b60006020820190508181036000830152612a2c816129f0565b9050919050565b7f4552433732313a2062616c616e636520717565727920666f7220746865207a6560008201527f726f206164647265737300000000000000000000000000000000000000000000602082015250565b6000612a8f602a83612141565b9150612a9a82612a33565b604082019050919050565b60006020820190508181036000830152612abe81612a82565b9050919050565b7f4f776e61626c653a2063616c6c6572206973206e6f7420746865206f776e6572600082015250565b6000612afb602083612141565b9150612b0682612ac5565b602082019050919050565b60006020820190508181036000830152612b2a81612aee565b9050919050565b7f4f776e61626c653a206e6577206f776e657220697320746865207a65726f206160008201527f6464726573730000000000000000000000000000000000000000000000000000602082015250565b6000612b8d602683612141565b9150612b9882612b31565b604082019050919050565b60006020820190508181036000830152612bbc81612b80565b9050919050565b7f4552433732313a206f70657261746f7220717565727920666f72206e6f6e657860008201527f697374656e7420746f6b656e0000000000000000000000000000000000000000602082015250565b6000612c1f602c83612141565b9150612c2a82612bc3565b604082019050919050565b60006020820190508181036000830152612c4e81612c12565b9050919050565b7f4552433732313a207472616e73666572206f6620746f6b656e2074686174206960008201527f73206e6f74206f776e0000000000000000000000000000000000000000000000602082015250565b6000612cb1602983612141565b9150612cbc82612c55565b604082019050919050565b60006020820190508181036000830152612ce081612ca4565b9050919050565b7f4552433732313a207472616e7366657220746f20746865207a65726f2061646460008201527f7265737300000000000000000000000000000000000000000000000000000000602082015250565b6000612d43602483612141565b9150612d4e82612ce7565b604082019050919050565b60006020820190508181036000830152612d7281612d36565b9050919050565b6000612d84826121f1565b9150612d8f836121f1565b925082821015612da257612da16128d3565b5b828203905092915050565b7f45524337323155524953746f726167653a2055524920736574206f66206e6f6e60008201527f6578697374656e7420746f6b656e000000000000000000000000000000000000602082015250565b6000612e09602e83612141565b9150612e1482612dad565b604082019050919050565b60006020820190508181036000830152612e3881612dfc565b9050919050565b7f4552433732313a20617070726f766520746f2063616c6c657200000000000000600082015250565b6000612e75601983612141565b9150612e8082612e3f565b602082019050919050565b60006020820190508181036000830152612ea481612e68565b9050919050565b7f4552433732313a207472616e7366657220746f206e6f6e20455243373231526560008201527f63656976657220696d706c656d656e7465720000000000000000000000000000602082015250565b6000612f07603283612141565b9150612f1282612eab565b604082019050919050565b60006020820190508181036000830152612f3681612efa565b9050919050565b7f45524337323155524953746f726167653a2055524920717565727920666f722060008201527f6e6f6e6578697374656e7420746f6b656e000000000000000000000000000000602082015250565b6000612f99603183612141565b9150612fa482612f3d565b604082019050919050565b60006020820190508181036000830152612fc881612f8c565b9050919050565b600081905092915050565b6000612fe582612136565b612fef8185612fcf565b9350612fff818560208601612152565b80840191505092915050565b60006130178285612fda565b91506130238284612fda565b91508190509392505050565b600081519050919050565b600082825260208201905092915050565b60006130568261302f565b613060818561303a565b9350613070818560208601612152565b61307981612185565b840191505092915050565b60006080820190506130996000830187612286565b6130a66020830186612286565b6130b3604083018561231c565b81810360608301526130c5818461304b565b905095945050505050565b6000815190506130df816120a7565b92915050565b6000602082840312156130fb576130fa612071565b5b6000613109848285016130d0565b91505092915050565b7f4552433732314d657461646174613a2055524920717565727920666f72206e6f60008201527f6e6578697374656e7420746f6b656e0000000000000000000000000000000000602082015250565b600061316e602f83612141565b915061317982613112565b604082019050919050565b6000602082019050818103600083015261319d81613161565b9050919050565b7f4552433732313a206d696e7420746f20746865207a65726f2061646472657373600082015250565b60006131da602083612141565b91506131e5826131a4565b602082019050919050565b60006020820190508181036000830152613209816131cd565b9050919050565b7f4552433732313a20746f6b656e20616c7265616479206d696e74656400000000600082015250565b6000613246601c83612141565b915061325182613210565b602082019050919050565b6000602082019050818103600083015261327581613239565b9050919050565b7f4e487b7100000000000000000000000000000000000000000000000000000000600052601260045260246000fd5b60006132b6826121f1565b91506132c1836121f1565b9250826132d1576132d061327c565b5b828204905092915050565b60006132e7826121f1565b91506132f2836121f1565b9250826133025761330161327c565b5b828206905092915050565b7f4e487b7100000000000000000000000000000000000000000000000000000000600052603260045260246000fdfea264697066735822122082748a84bf4c942bbf3cd97da47b646d0ba31dc777b44ff9df6f3b2eb7c62ece64736f6c634300080a003368747470733a2f2f6261666b726569676d333374767762643374366c656437746c746235666636377a7662686f6669686a3761786966746f35663766666e736d67686d2e697066732e647765622e6c696e6b2f",
  "immutableReferences": {},
  "source": "// SPDX-License-Identifier: MIT\npragma solidity >=0.4.22 <0.9.0;\n\nimport \"@openzeppelin/contracts/token/ERC721/ERC721.sol\";\nimport \"@openzeppelin/contracts/token/ERC721/extensions/ERC721Burnable.sol\";\nimport \"@openzeppelin/contracts/token/ERC721/extensions/ERC721URIStorage.sol\";\nimport \"@openzeppelin/contracts/access/Ownable.sol\";\nimport \"@openzeppelin/contracts/utils/Counters.sol\";\n\ncontract TheGame is ERC721,ERC721URIStorage, Ownable {\n  uint public totalSupply = 2**256-1;\n  uint public totalLosses =0;\n  string public baseURI = \"https://bafkreigm33tvwbd3t6led7tltb5ff67zvbhofihj7axifto5f7ffnsmghm.ipfs.dweb.link/\";\n  string public AccountwithMostLs;\n  mapping (address=>uint) LossTracker;\n  using Counters for Counters.Counter;\n    Counters.Counter private _tokenIdCounter;\n\n\n    constructor() ERC721(\"TheGame\", \"LOST\") { \n    }\n    function FirstLoser() public onlyOwner  {\n        for (uint i=0; i<3;i++) {\n          safeMint(msg.sender);\n        }\n          \n    } \n    function HandOutLs(address to, uint amountOfLosses) public {\n        for (uint i = 0;i<amountOfLosses;i++) {\n          safeMint(to);\n        }\n        totalLosses = totalLosses + amountOfLosses;\n        LossTracker[msg.sender] = LossTracker[msg.sender] + amountOfLosses;\n        }\n\n    function safeMint(address to) public {\n        uint tokenId = _tokenIdCounter.current()+1;\n        _tokenIdCounter.increment();\n        _safeMint(to, tokenId);\n        _setTokenURI(tokenId, baseURI);\n    }\n    // The following functions are overrides required by Solidity.\n    function _burn(uint256 tokenId) internal override(ERC721, ERC721URIStorage) {\n        super._burn(tokenId);\n    }\n    function tokenURI(uint256 tokenId) public view override(ERC721, ERC721URIStorage) returns (string memory) {\n        return super.tokenURI(tokenId);\n    }\n    function LossFinder(address ad) public view returns(uint) {\n      return LossTracker[ad];\n    }\n\n}\n",
  "sourcePath": "/Users/rubengarcia/consensys-blockchain-developer-bootcamp-2021/Consensys-final-project/contracts/TheGame.sol",
  "compiler": {
    "name": "solc",
    "version": "0.8.10+commit.fc410830.Emscripten.clang"
  },
  "schemaVersion": "3.4.3",
  "updatedAt": "2021-12-14T00:25:55.733Z",
  "networkType": "ethereum",
  "devdoc": {
    "kind": "dev",
    "methods": {
      "approve(address,uint256)": {
        "details": "See {IERC721-approve}."
      },
      "balanceOf(address)": {
        "details": "See {IERC721-balanceOf}."
      },
      "getApproved(uint256)": {
        "details": "See {IERC721-getApproved}."
      },
      "isApprovedForAll(address,address)": {
        "details": "See {IERC721-isApprovedForAll}."
      },
      "name()": {
        "details": "See {IERC721Metadata-name}."
      },
      "owner()": {
        "details": "Returns the address of the current owner."
      },
      "ownerOf(uint256)": {
        "details": "See {IERC721-ownerOf}."
      },
      "renounceOwnership()": {
        "details": "Leaves the contract without owner. It will not be possible to call `onlyOwner` functions anymore. Can only be called by the current owner. NOTE: Renouncing ownership will leave the contract without an owner, thereby removing any functionality that is only available to the owner."
      },
      "safeTransferFrom(address,address,uint256)": {
        "details": "See {IERC721-safeTransferFrom}."
      },
      "safeTransferFrom(address,address,uint256,bytes)": {
        "details": "See {IERC721-safeTransferFrom}."
      },
      "setApprovalForAll(address,bool)": {
        "details": "See {IERC721-setApprovalForAll}."
      },
      "supportsInterface(bytes4)": {
        "details": "See {IERC165-supportsInterface}."
      },
      "symbol()": {
        "details": "See {IERC721Metadata-symbol}."
      },
      "transferFrom(address,address,uint256)": {
        "details": "See {IERC721-transferFrom}."
      },
      "transferOwnership(address)": {
        "details": "Transfers ownership of the contract to a new account (`newOwner`). Can only be called by the current owner."
      }
    },
    "version": 1
  },
  "userdoc": {
    "kind": "user",
    "methods": {},
    "version": 1
  }
}