{
  "contractName": "TheGame",
  "abi": [
    {
      "inputs": [],
      "stateMutability": "nonpayable",
      "type": "constructor"
    },
    {
      "anonymous": false,
      "inputs": [
        {
          "indexed": true,
          "internalType": "address",
          "name": "account",
          "type": "address"
        },
        {
          "indexed": true,
          "internalType": "address",
          "name": "operator",
          "type": "address"
        },
        {
          "indexed": false,
          "internalType": "bool",
          "name": "approved",
          "type": "bool"
        }
      ],
      "name": "ApprovalForAll",
      "type": "event"
    },
    {
      "anonymous": false,
      "inputs": [
        {
          "indexed": true,
          "internalType": "address",
          "name": "previousOwner",
          "type": "address"
        },
        {
          "indexed": true,
          "internalType": "address",
          "name": "newOwner",
          "type": "address"
        }
      ],
      "name": "OwnershipTransferred",
      "type": "event"
    },
    {
      "anonymous": false,
      "inputs": [
        {
          "indexed": true,
          "internalType": "address",
          "name": "operator",
          "type": "address"
        },
        {
          "indexed": true,
          "internalType": "address",
          "name": "from",
          "type": "address"
        },
        {
          "indexed": true,
          "internalType": "address",
          "name": "to",
          "type": "address"
        },
        {
          "indexed": false,
          "internalType": "uint256[]",
          "name": "ids",
          "type": "uint256[]"
        },
        {
          "indexed": false,
          "internalType": "uint256[]",
          "name": "values",
          "type": "uint256[]"
        }
      ],
      "name": "TransferBatch",
      "type": "event"
    },
    {
      "anonymous": false,
      "inputs": [
        {
          "indexed": true,
          "internalType": "address",
          "name": "operator",
          "type": "address"
        },
        {
          "indexed": true,
          "internalType": "address",
          "name": "from",
          "type": "address"
        },
        {
          "indexed": true,
          "internalType": "address",
          "name": "to",
          "type": "address"
        },
        {
          "indexed": false,
          "internalType": "uint256",
          "name": "id",
          "type": "uint256"
        },
        {
          "indexed": false,
          "internalType": "uint256",
          "name": "value",
          "type": "uint256"
        }
      ],
      "name": "TransferSingle",
      "type": "event"
    },
    {
      "anonymous": false,
      "inputs": [
        {
          "indexed": false,
          "internalType": "string",
          "name": "value",
          "type": "string"
        },
        {
          "indexed": true,
          "internalType": "uint256",
          "name": "id",
          "type": "uint256"
        }
      ],
      "name": "URI",
      "type": "event"
    },
    {
      "inputs": [
        {
          "internalType": "uint256",
          "name": "",
          "type": "uint256"
        }
      ],
      "name": "Loses",
      "outputs": [
        {
          "internalType": "uint256",
          "name": "",
          "type": "uint256"
        }
      ],
      "stateMutability": "view",
      "type": "function",
      "constant": true
    },
    {
      "inputs": [
        {
          "internalType": "address",
          "name": "",
          "type": "address"
        }
      ],
      "name": "LossDirectory",
      "outputs": [
        {
          "internalType": "uint256",
          "name": "",
          "type": "uint256"
        }
      ],
      "stateMutability": "view",
      "type": "function",
      "constant": true
    },
    {
      "inputs": [
        {
          "internalType": "address",
          "name": "account",
          "type": "address"
        },
        {
          "internalType": "uint256",
          "name": "id",
          "type": "uint256"
        }
      ],
      "name": "balanceOf",
      "outputs": [
        {
          "internalType": "uint256",
          "name": "",
          "type": "uint256"
        }
      ],
      "stateMutability": "view",
      "type": "function",
      "constant": true
    },
    {
      "inputs": [
        {
          "internalType": "address[]",
          "name": "accounts",
          "type": "address[]"
        },
        {
          "internalType": "uint256[]",
          "name": "ids",
          "type": "uint256[]"
        }
      ],
      "name": "balanceOfBatch",
      "outputs": [
        {
          "internalType": "uint256[]",
          "name": "",
          "type": "uint256[]"
        }
      ],
      "stateMutability": "view",
      "type": "function",
      "constant": true
    },
    {
      "inputs": [],
      "name": "cost",
      "outputs": [
        {
          "internalType": "uint256",
          "name": "",
          "type": "uint256"
        }
      ],
      "stateMutability": "view",
      "type": "function",
      "constant": true
    },
    {
      "inputs": [
        {
          "internalType": "address",
          "name": "account",
          "type": "address"
        },
        {
          "internalType": "address",
          "name": "operator",
          "type": "address"
        }
      ],
      "name": "isApprovedForAll",
      "outputs": [
        {
          "internalType": "bool",
          "name": "",
          "type": "bool"
        }
      ],
      "stateMutability": "view",
      "type": "function",
      "constant": true
    },
    {
      "inputs": [],
      "name": "owner",
      "outputs": [
        {
          "internalType": "address",
          "name": "",
          "type": "address"
        }
      ],
      "stateMutability": "view",
      "type": "function",
      "constant": true
    },
    {
      "inputs": [],
      "name": "renounceOwnership",
      "outputs": [],
      "stateMutability": "nonpayable",
      "type": "function"
    },
    {
      "inputs": [
        {
          "internalType": "address",
          "name": "from",
          "type": "address"
        },
        {
          "internalType": "address",
          "name": "to",
          "type": "address"
        },
        {
          "internalType": "uint256[]",
          "name": "ids",
          "type": "uint256[]"
        },
        {
          "internalType": "uint256[]",
          "name": "amounts",
          "type": "uint256[]"
        },
        {
          "internalType": "bytes",
          "name": "data",
          "type": "bytes"
        }
      ],
      "name": "safeBatchTransferFrom",
      "outputs": [],
      "stateMutability": "nonpayable",
      "type": "function"
    },
    {
      "inputs": [
        {
          "internalType": "address",
          "name": "from",
          "type": "address"
        },
        {
          "internalType": "address",
          "name": "to",
          "type": "address"
        },
        {
          "internalType": "uint256",
          "name": "id",
          "type": "uint256"
        },
        {
          "internalType": "uint256",
          "name": "amount",
          "type": "uint256"
        },
        {
          "internalType": "bytes",
          "name": "data",
          "type": "bytes"
        }
      ],
      "name": "safeTransferFrom",
      "outputs": [],
      "stateMutability": "nonpayable",
      "type": "function"
    },
    {
      "inputs": [
        {
          "internalType": "address",
          "name": "operator",
          "type": "address"
        },
        {
          "internalType": "bool",
          "name": "approved",
          "type": "bool"
        }
      ],
      "name": "setApprovalForAll",
      "outputs": [],
      "stateMutability": "nonpayable",
      "type": "function"
    },
    {
      "inputs": [
        {
          "internalType": "bytes4",
          "name": "interfaceId",
          "type": "bytes4"
        }
      ],
      "name": "supportsInterface",
      "outputs": [
        {
          "internalType": "bool",
          "name": "",
          "type": "bool"
        }
      ],
      "stateMutability": "view",
      "type": "function",
      "constant": true
    },
    {
      "inputs": [],
      "name": "totalLoses",
      "outputs": [
        {
          "internalType": "uint256",
          "name": "",
          "type": "uint256"
        }
      ],
      "stateMutability": "view",
      "type": "function",
      "constant": true
    },
    {
      "inputs": [
        {
          "internalType": "uint256",
          "name": "",
          "type": "uint256"
        }
      ],
      "name": "totalSupply",
      "outputs": [
        {
          "internalType": "uint256",
          "name": "",
          "type": "uint256"
        }
      ],
      "stateMutability": "view",
      "type": "function",
      "constant": true
    },
    {
      "inputs": [
        {
          "internalType": "address",
          "name": "newOwner",
          "type": "address"
        }
      ],
      "name": "transferOwnership",
      "outputs": [],
      "stateMutability": "nonpayable",
      "type": "function"
    },
    {
      "inputs": [
        {
          "internalType": "uint256",
          "name": "",
          "type": "uint256"
        }
      ],
      "name": "uri",
      "outputs": [
        {
          "internalType": "string",
          "name": "",
          "type": "string"
        }
      ],
      "stateMutability": "view",
      "type": "function",
      "constant": true
    },
    {
      "inputs": [
        {
          "internalType": "uint256",
          "name": "id",
          "type": "uint256"
        },
        {
          "internalType": "uint256",
          "name": "amount",
          "type": "uint256"
        }
      ],
      "name": "mint",
      "outputs": [],
      "stateMutability": "payable",
      "type": "function",
      "payable": true
    },
    {
      "inputs": [],
      "name": "getBalance",
      "outputs": [
        {
          "internalType": "uint256",
          "name": "",
          "type": "uint256"
        }
      ],
      "stateMutability": "view",
      "type": "function",
      "constant": true
    }
  ],
  "bytecode": "0x60806040526040518060400160405280633b9aca0063ffffffff168152602001633b9aca0063ffffffff1681525060049060026200003f929190620001c9565b506040518060400160405280600060ff168152602001600060ff1681525060059060026200006f92919062000223565b50655af3107a400060065560006007553480156200008c57600080fd5b506040518060800160405280605c81526020016200377a605c9139620000b881620000df60201b60201c565b50620000d9620000cd620000fb60201b60201c565b6200010360201b60201c565b6200038f565b8060029080519060200190620000f79291906200027a565b5050565b600033905090565b6000600360009054906101000a900473ffffffffffffffffffffffffffffffffffffffff16905081600360006101000a81548173ffffffffffffffffffffffffffffffffffffffff021916908373ffffffffffffffffffffffffffffffffffffffff1602179055508173ffffffffffffffffffffffffffffffffffffffff168173ffffffffffffffffffffffffffffffffffffffff167f8be0079c531659141344cd1fd0a4f28419497f9722a3daafe3b4186f6b6457e060405160405180910390a35050565b82805482825590600052602060002090810192821562000210579160200282015b828111156200020f578251829063ffffffff16905591602001919060010190620001ea565b5b5090506200021f91906200030b565b5090565b82805482825590600052602060002090810192821562000267579160200282015b8281111562000266578251829060ff1690559160200191906001019062000244565b5b5090506200027691906200030b565b5090565b828054620002889062000359565b90600052602060002090601f016020900481019282620002ac5760008555620002f8565b82601f10620002c757805160ff1916838001178555620002f8565b82800160010185558215620002f8579182015b82811115620002f7578251825591602001919060010190620002da565b5b5090506200030791906200030b565b5090565b5b80821115620003265760008160009055506001016200030c565b5090565b7f4e487b7100000000000000000000000000000000000000000000000000000000600052602260045260246000fd5b600060028204905060018216806200037257607f821691505b602082108114156200038957620003886200032a565b5b50919050565b6133db806200039f6000396000f3fe6080604052600436106101085760003560e01c80638da5cb5b11610095578063bd85b03911610064578063bd85b03914610381578063d03322e3146103be578063e985e9c5146103e9578063f242432a14610426578063f2fde38b1461044f57610108565b80638da5cb5b146102b35780639ea2fc0c146102de578063a22cb4651461031b578063a8518e231461034457610108565b806313faede6116100dc57806313faede6146101ef5780631b2ef1ca1461021a5780632eb2c2d6146102365780634e1273f41461025f578063715018a61461029c57610108565b8062fdd58e1461010d57806301ffc9a71461014a5780630e89341c1461018757806312065fe0146101c4575b600080fd5b34801561011957600080fd5b50610134600480360381019061012f9190611cc9565b610478565b6040516101419190611d18565b60405180910390f35b34801561015657600080fd5b50610171600480360381019061016c9190611d8b565b610541565b60405161017e9190611dd3565b60405180910390f35b34801561019357600080fd5b506101ae60048036038101906101a99190611dee565b610623565b6040516101bb9190611eb4565b60405180910390f35b3480156101d057600080fd5b506101d96106b7565b6040516101e69190611d18565b60405180910390f35b3480156101fb57600080fd5b506102046106bf565b6040516102119190611d18565b60405180910390f35b610234600480360381019061022f9190611ed6565b6106c5565b005b34801561024257600080fd5b5061025d60048036038101906102589190612113565b6108f6565b005b34801561026b57600080fd5b50610286600480360381019061028191906122a5565b610997565b60405161029391906123db565b60405180910390f35b3480156102a857600080fd5b506102b1610ab0565b005b3480156102bf57600080fd5b506102c8610b38565b6040516102d5919061240c565b60405180910390f35b3480156102ea57600080fd5b5061030560048036038101906103009190612427565b610b62565b6040516103129190611d18565b60405180910390f35b34801561032757600080fd5b50610342600480360381019061033d9190612480565b610b7a565b005b34801561035057600080fd5b5061036b60048036038101906103669190611dee565b610b90565b6040516103789190611d18565b60405180910390f35b34801561038d57600080fd5b506103a860048036038101906103a39190611dee565b610bb4565b6040516103b59190611d18565b60405180910390f35b3480156103ca57600080fd5b506103d3610bd8565b6040516103e09190611d18565b60405180910390f35b3480156103f557600080fd5b50610410600480360381019061040b91906124c0565b610bde565b60405161041d9190611dd3565b60405180910390f35b34801561043257600080fd5b5061044d60048036038101906104489190612500565b610c72565b005b34801561045b57600080fd5b5061047660048036038101906104719190612427565b610d13565b005b60008073ffffffffffffffffffffffffffffffffffffffff168373ffffffffffffffffffffffffffffffffffffffff1614156104e9576040517f08c379a00000000000000000000000000000000000000000000000000000000081526004016104e090612609565b60405180910390fd5b60008083815260200190815260200160002060008473ffffffffffffffffffffffffffffffffffffffff1673ffffffffffffffffffffffffffffffffffffffff16815260200190815260200160002054905092915050565b60007fd9b67a26000000000000000000000000000000000000000000000000000000007bffffffffffffffffffffffffffffffffffffffffffffffffffffffff1916827bffffffffffffffffffffffffffffffffffffffffffffffffffffffff1916148061060c57507f0e89341c000000000000000000000000000000000000000000000000000000007bffffffffffffffffffffffffffffffffffffffffffffffffffffffff1916827bffffffffffffffffffffffffffffffffffffffffffffffffffffffff1916145b8061061c575061061b82610e0b565b5b9050919050565b60606002805461063290612658565b80601f016020809104026020016040519081016040528092919081815260200182805461065e90612658565b80156106ab5780601f10610680576101008083540402835291602001916106ab565b820191906000526020600020905b81548152906001019060200180831161068e57829003601f168201915b50505050509050919050565b600047905090565b60065481565b60048054905082111561070d576040517f08c379a000000000000000000000000000000000000000000000000000000000815260040161070490612722565b60405180910390fd5b60008211610750576040517f08c379a00000000000000000000000000000000000000000000000000000000081526004016107479061278e565b60405180910390fd5b60018114610793576040517f08c379a000000000000000000000000000000000000000000000000000000000815260040161078a90612846565b60405180910390fd5b60006001836107a29190612895565b9050600481815481106107b8576107b76128c9565b5b9060005260206000200154600582815481106107d7576107d66128c9565b5b90600052602060002001541115610823576040517f08c379a000000000000000000000000000000000000000000000000000000000815260040161081a906129b6565b60405180910390fd5b6108643384846040518060400160405280600481526020017f3078303000000000000000000000000000000000000000000000000000000000815250610e75565b8160058281548110610879576108786128c9565b5b90600052602060002001600082825461089291906129d6565b92505081905550816007546108a791906129d6565b60078190555081600860003373ffffffffffffffffffffffffffffffffffffffff1673ffffffffffffffffffffffffffffffffffffffff16815260200190815260200160002081905550505050565b6108fe61100b565b73ffffffffffffffffffffffffffffffffffffffff168573ffffffffffffffffffffffffffffffffffffffff16148061094457506109438561093e61100b565b610bde565b5b610983576040517f08c379a000000000000000000000000000000000000000000000000000000000815260040161097a90612a9e565b60405180910390fd5b6109908585858585611013565b5050505050565b606081518351146109dd576040517f08c379a00000000000000000000000000000000000000000000000000000000081526004016109d490612b30565b60405180910390fd5b6000835167ffffffffffffffff8111156109fa576109f9611f1b565b5b604051908082528060200260200182016040528015610a285781602001602082028036833780820191505090505b50905060005b8451811015610aa557610a75858281518110610a4d57610a4c6128c9565b5b6020026020010151858381518110610a6857610a676128c9565b5b6020026020010151610478565b828281518110610a8857610a876128c9565b5b60200260200101818152505080610a9e90612b50565b9050610a2e565b508091505092915050565b610ab861100b565b73ffffffffffffffffffffffffffffffffffffffff16610ad6610b38565b73ffffffffffffffffffffffffffffffffffffffff1614610b2c576040517f08c379a0000000000000000000000000000000000000000000000000000000008152600401610b2390612be5565b60405180910390fd5b610b366000611327565b565b6000600360009054906101000a900473ffffffffffffffffffffffffffffffffffffffff16905090565b60086020528060005260406000206000915090505481565b610b8c610b8561100b565b83836113ed565b5050565b60058181548110610ba057600080fd5b906000526020600020016000915090505481565b60048181548110610bc457600080fd5b906000526020600020016000915090505481565b60075481565b6000600160008473ffffffffffffffffffffffffffffffffffffffff1673ffffffffffffffffffffffffffffffffffffffff16815260200190815260200160002060008373ffffffffffffffffffffffffffffffffffffffff1673ffffffffffffffffffffffffffffffffffffffff16815260200190815260200160002060009054906101000a900460ff16905092915050565b610c7a61100b565b73ffffffffffffffffffffffffffffffffffffffff168573ffffffffffffffffffffffffffffffffffffffff161480610cc05750610cbf85610cba61100b565b610bde565b5b610cff576040517f08c379a0000000000000000000000000000000000000000000000000000000008152600401610cf690612c77565b60405180910390fd5b610d0c858585858561155a565b5050505050565b610d1b61100b565b73ffffffffffffffffffffffffffffffffffffffff16610d39610b38565b73ffffffffffffffffffffffffffffffffffffffff1614610d8f576040517f08c379a0000000000000000000000000000000000000000000000000000000008152600401610d8690612be5565b60405180910390fd5b600073ffffffffffffffffffffffffffffffffffffffff168173ffffffffffffffffffffffffffffffffffffffff161415610dff576040517f08c379a0000000000000000000000000000000000000000000000000000000008152600401610df690612d09565b60405180910390fd5b610e0881611327565b50565b60007f01ffc9a7000000000000000000000000000000000000000000000000000000007bffffffffffffffffffffffffffffffffffffffffffffffffffffffff1916827bffffffffffffffffffffffffffffffffffffffffffffffffffffffff1916149050919050565b600073ffffffffffffffffffffffffffffffffffffffff168473ffffffffffffffffffffffffffffffffffffffff161415610ee5576040517f08c379a0000000000000000000000000000000000000000000000000000000008152600401610edc90612d9b565b60405180910390fd5b6000610eef61100b565b9050610f1081600087610f01886117dc565b610f0a886117dc565b87611856565b8260008086815260200190815260200160002060008773ffffffffffffffffffffffffffffffffffffffff1673ffffffffffffffffffffffffffffffffffffffff1681526020019081526020016000206000828254610f6f91906129d6565b925050819055508473ffffffffffffffffffffffffffffffffffffffff16600073ffffffffffffffffffffffffffffffffffffffff168273ffffffffffffffffffffffffffffffffffffffff167fc3d58168c5ae7397731d063d5bbf3d657854427343f4c083240f7aacaa2d0f628787604051610fed929190612dbb565b60405180910390a46110048160008787878761185e565b5050505050565b600033905090565b8151835114611057576040517f08c379a000000000000000000000000000000000000000000000000000000000815260040161104e90612e56565b60405180910390fd5b600073ffffffffffffffffffffffffffffffffffffffff168473ffffffffffffffffffffffffffffffffffffffff1614156110c7576040517f08c379a00000000000000000000000000000000000000000000000000000000081526004016110be90612ee8565b60405180910390fd5b60006110d161100b565b90506110e1818787878787611856565b60005b8451811015611292576000858281518110611102576111016128c9565b5b602002602001015190506000858381518110611121576111206128c9565b5b60200260200101519050600080600084815260200190815260200160002060008b73ffffffffffffffffffffffffffffffffffffffff1673ffffffffffffffffffffffffffffffffffffffff168152602001908152602001600020549050818110156111c2576040517f08c379a00000000000000000000000000000000000000000000000000000000081526004016111b990612f7a565b60405180910390fd5b81810360008085815260200190815260200160002060008c73ffffffffffffffffffffffffffffffffffffffff1673ffffffffffffffffffffffffffffffffffffffff168152602001908152602001600020819055508160008085815260200190815260200160002060008b73ffffffffffffffffffffffffffffffffffffffff1673ffffffffffffffffffffffffffffffffffffffff168152602001908152602001600020600082825461127791906129d6565b925050819055505050508061128b90612b50565b90506110e4565b508473ffffffffffffffffffffffffffffffffffffffff168673ffffffffffffffffffffffffffffffffffffffff168273ffffffffffffffffffffffffffffffffffffffff167f4a39dc06d4c0dbc64b70af90fd698a233a518aa5d07e595d983b8c0526c8f7fb8787604051611309929190612f9a565b60405180910390a461131f818787878787611a36565b505050505050565b6000600360009054906101000a900473ffffffffffffffffffffffffffffffffffffffff16905081600360006101000a81548173ffffffffffffffffffffffffffffffffffffffff021916908373ffffffffffffffffffffffffffffffffffffffff1602179055508173ffffffffffffffffffffffffffffffffffffffff168173ffffffffffffffffffffffffffffffffffffffff167f8be0079c531659141344cd1fd0a4f28419497f9722a3daafe3b4186f6b6457e060405160405180910390a35050565b8173ffffffffffffffffffffffffffffffffffffffff168373ffffffffffffffffffffffffffffffffffffffff16141561145c576040517f08c379a000000000000000000000000000000000000000000000000000000000815260040161145390613043565b60405180910390fd5b80600160008573ffffffffffffffffffffffffffffffffffffffff1673ffffffffffffffffffffffffffffffffffffffff16815260200190815260200160002060008473ffffffffffffffffffffffffffffffffffffffff1673ffffffffffffffffffffffffffffffffffffffff16815260200190815260200160002060006101000a81548160ff0219169083151502179055508173ffffffffffffffffffffffffffffffffffffffff168373ffffffffffffffffffffffffffffffffffffffff167f17307eab39ab6107e8899845ad3d59bd9653f200f220920489ca2b5937696c318360405161154d9190611dd3565b60405180910390a3505050565b600073ffffffffffffffffffffffffffffffffffffffff168473ffffffffffffffffffffffffffffffffffffffff1614156115ca576040517f08c379a00000000000000000000000000000000000000000000000000000000081526004016115c190612ee8565b60405180910390fd5b60006115d461100b565b90506115f48187876115e5886117dc565b6115ee886117dc565b87611856565b600080600086815260200190815260200160002060008873ffffffffffffffffffffffffffffffffffffffff1673ffffffffffffffffffffffffffffffffffffffff1681526020019081526020016000205490508381101561168b576040517f08c379a000000000000000000000000000000000000000000000000000000000815260040161168290612f7a565b60405180910390fd5b83810360008087815260200190815260200160002060008973ffffffffffffffffffffffffffffffffffffffff1673ffffffffffffffffffffffffffffffffffffffff168152602001908152602001600020819055508360008087815260200190815260200160002060008873ffffffffffffffffffffffffffffffffffffffff1673ffffffffffffffffffffffffffffffffffffffff168152602001908152602001600020600082825461174091906129d6565b925050819055508573ffffffffffffffffffffffffffffffffffffffff168773ffffffffffffffffffffffffffffffffffffffff168373ffffffffffffffffffffffffffffffffffffffff167fc3d58168c5ae7397731d063d5bbf3d657854427343f4c083240f7aacaa2d0f6288886040516117bd929190612dbb565b60405180910390a46117d382888888888861185e565b50505050505050565b60606000600167ffffffffffffffff8111156117fb576117fa611f1b565b5b6040519080825280602002602001820160405280156118295781602001602082028036833780820191505090505b5090508281600081518110611841576118406128c9565b5b60200260200101818152505080915050919050565b505050505050565b61187d8473ffffffffffffffffffffffffffffffffffffffff16611c0e565b15611a2e578373ffffffffffffffffffffffffffffffffffffffff1663f23a6e6187878686866040518663ffffffff1660e01b81526004016118c39594939291906130b8565b6020604051808303816000875af19250505080156118ff57506040513d601f19601f820116820180604052508101906118fc9190613127565b60015b6119a55761190b613161565b806308c379a014156119685750611920613183565b8061192b575061196a565b806040517f08c379a000000000000000000000000000000000000000000000000000000000815260040161195f9190611eb4565b60405180910390fd5b505b6040517f08c379a000000000000000000000000000000000000000000000000000000000815260040161199c9061328b565b60405180910390fd5b63f23a6e6160e01b7bffffffffffffffffffffffffffffffffffffffffffffffffffffffff1916817bffffffffffffffffffffffffffffffffffffffffffffffffffffffff191614611a2c576040517f08c379a0000000000000000000000000000000000000000000000000000000008152600401611a239061331d565b60405180910390fd5b505b505050505050565b611a558473ffffffffffffffffffffffffffffffffffffffff16611c0e565b15611c06578373ffffffffffffffffffffffffffffffffffffffff1663bc197c8187878686866040518663ffffffff1660e01b8152600401611a9b95949392919061333d565b6020604051808303816000875af1925050508015611ad757506040513d601f19601f82011682018060405250810190611ad49190613127565b60015b611b7d57611ae3613161565b806308c379a01415611b405750611af8613183565b80611b035750611b42565b806040517f08c379a0000000000000000000000000000000000000000000000000000000008152600401611b379190611eb4565b60405180910390fd5b505b6040517f08c379a0000000000000000000000000000000000000000000000000000000008152600401611b749061328b565b60405180910390fd5b63bc197c8160e01b7bffffffffffffffffffffffffffffffffffffffffffffffffffffffff1916817bffffffffffffffffffffffffffffffffffffffffffffffffffffffff191614611c04576040517f08c379a0000000000000000000000000000000000000000000000000000000008152600401611bfb9061331d565b60405180910390fd5b505b505050505050565b600080823b905060008111915050919050565b6000604051905090565b600080fd5b600080fd5b600073ffffffffffffffffffffffffffffffffffffffff82169050919050565b6000611c6082611c35565b9050919050565b611c7081611c55565b8114611c7b57600080fd5b50565b600081359050611c8d81611c67565b92915050565b6000819050919050565b611ca681611c93565b8114611cb157600080fd5b50565b600081359050611cc381611c9d565b92915050565b60008060408385031215611ce057611cdf611c2b565b5b6000611cee85828601611c7e565b9250506020611cff85828601611cb4565b9150509250929050565b611d1281611c93565b82525050565b6000602082019050611d2d6000830184611d09565b92915050565b60007fffffffff0000000000000000000000000000000000000000000000000000000082169050919050565b611d6881611d33565b8114611d7357600080fd5b50565b600081359050611d8581611d5f565b92915050565b600060208284031215611da157611da0611c2b565b5b6000611daf84828501611d76565b91505092915050565b60008115159050919050565b611dcd81611db8565b82525050565b6000602082019050611de86000830184611dc4565b92915050565b600060208284031215611e0457611e03611c2b565b5b6000611e1284828501611cb4565b91505092915050565b600081519050919050565b600082825260208201905092915050565b60005b83811015611e55578082015181840152602081019050611e3a565b83811115611e64576000848401525b50505050565b6000601f19601f8301169050919050565b6000611e8682611e1b565b611e908185611e26565b9350611ea0818560208601611e37565b611ea981611e6a565b840191505092915050565b60006020820190508181036000830152611ece8184611e7b565b905092915050565b60008060408385031215611eed57611eec611c2b565b5b6000611efb85828601611cb4565b9250506020611f0c85828601611cb4565b9150509250929050565b600080fd5b7f4e487b7100000000000000000000000000000000000000000000000000000000600052604160045260246000fd5b611f5382611e6a565b810181811067ffffffffffffffff82111715611f7257611f71611f1b565b5b80604052505050565b6000611f85611c21565b9050611f918282611f4a565b919050565b600067ffffffffffffffff821115611fb157611fb0611f1b565b5b602082029050602081019050919050565b600080fd5b6000611fda611fd584611f96565b611f7b565b90508083825260208201905060208402830185811115611ffd57611ffc611fc2565b5b835b8181101561202657806120128882611cb4565b845260208401935050602081019050611fff565b5050509392505050565b600082601f83011261204557612044611f16565b5b8135612055848260208601611fc7565b91505092915050565b600080fd5b600067ffffffffffffffff82111561207e5761207d611f1b565b5b61208782611e6a565b9050602081019050919050565b82818337600083830152505050565b60006120b66120b184612063565b611f7b565b9050828152602081018484840111156120d2576120d161205e565b5b6120dd848285612094565b509392505050565b600082601f8301126120fa576120f9611f16565b5b813561210a8482602086016120a3565b91505092915050565b600080600080600060a0868803121561212f5761212e611c2b565b5b600061213d88828901611c7e565b955050602061214e88828901611c7e565b945050604086013567ffffffffffffffff81111561216f5761216e611c30565b5b61217b88828901612030565b935050606086013567ffffffffffffffff81111561219c5761219b611c30565b5b6121a888828901612030565b925050608086013567ffffffffffffffff8111156121c9576121c8611c30565b5b6121d5888289016120e5565b9150509295509295909350565b600067ffffffffffffffff8211156121fd576121fc611f1b565b5b602082029050602081019050919050565b600061222161221c846121e2565b611f7b565b9050808382526020820190506020840283018581111561224457612243611fc2565b5b835b8181101561226d57806122598882611c7e565b845260208401935050602081019050612246565b5050509392505050565b600082601f83011261228c5761228b611f16565b5b813561229c84826020860161220e565b91505092915050565b600080604083850312156122bc576122bb611c2b565b5b600083013567ffffffffffffffff8111156122da576122d9611c30565b5b6122e685828601612277565b925050602083013567ffffffffffffffff81111561230757612306611c30565b5b61231385828601612030565b9150509250929050565b600081519050919050565b600082825260208201905092915050565b6000819050602082019050919050565b61235281611c93565b82525050565b60006123648383612349565b60208301905092915050565b6000602082019050919050565b60006123888261231d565b6123928185612328565b935061239d83612339565b8060005b838110156123ce5781516123b58882612358565b97506123c083612370565b9250506001810190506123a1565b5085935050505092915050565b600060208201905081810360008301526123f5818461237d565b905092915050565b61240681611c55565b82525050565b600060208201905061242160008301846123fd565b92915050565b60006020828403121561243d5761243c611c2b565b5b600061244b84828501611c7e565b91505092915050565b61245d81611db8565b811461246857600080fd5b50565b60008135905061247a81612454565b92915050565b6000806040838503121561249757612496611c2b565b5b60006124a585828601611c7e565b92505060206124b68582860161246b565b9150509250929050565b600080604083850312156124d7576124d6611c2b565b5b60006124e585828601611c7e565b92505060206124f685828601611c7e565b9150509250929050565b600080600080600060a0868803121561251c5761251b611c2b565b5b600061252a88828901611c7e565b955050602061253b88828901611c7e565b945050604061254c88828901611cb4565b935050606061255d88828901611cb4565b925050608086013567ffffffffffffffff81111561257e5761257d611c30565b5b61258a888289016120e5565b9150509295509295909350565b7f455243313135353a2062616c616e636520717565727920666f7220746865207a60008201527f65726f2061646472657373000000000000000000000000000000000000000000602082015250565b60006125f3602b83611e26565b91506125fe82612597565b604082019050919050565b60006020820190508181036000830152612622816125e6565b9050919050565b7f4e487b7100000000000000000000000000000000000000000000000000000000600052602260045260246000fd5b6000600282049050600182168061267057607f821691505b6020821081141561268457612683612629565b5b50919050565b7f54727920616761696e20667269656e642e2045697468657220796f75206c6f7360008201527f74207468652047616d652c206f7220736f6d656f6e6520656c7365207365742060208201527f796f752075702e00000000000000000000000000000000000000000000000000604082015250565b600061270c604783611e26565b91506127178261268a565b606082019050919050565b6000602082019050818103600083015261273b816126ff565b9050919050565b7f576861742061726520796f7520646f696e673f00000000000000000000000000600082015250565b6000612778601383611e26565b915061278382612742565b602082019050919050565b600060208201905081810360008301526127a78161276b565b9050919050565b7f57687920646f20796f752077616e74206d6f7265207468616e206f6e65204c2060008201527f6f6e20796f7572207265636f72643f204f6e65204e465420617420612074696d60208201527f652e000000000000000000000000000000000000000000000000000000000000604082015250565b6000612830604283611e26565b915061283b826127ae565b606082019050919050565b6000602082019050818103600083015261285f81612823565b9050919050565b7f4e487b7100000000000000000000000000000000000000000000000000000000600052601160045260246000fd5b60006128a082611c93565b91506128ab83611c93565b9250828210156128be576128bd612866565b5b828203905092915050565b7f4e487b7100000000000000000000000000000000000000000000000000000000600052603260045260246000fd5b7f53757270726973696e676c792c2077652072616e206f75742e2054686572652060008201527f617265206d6f7265204c73206f757420746865726520696e2074686520776f7260208201527f6c642c206a7573742061736b20736f6d656f6e6520746f2073656e6420796f7560408201527f206f6e652e200000000000000000000000000000000000000000000000000000606082015250565b60006129a0606683611e26565b91506129ab826128f8565b608082019050919050565b600060208201905081810360008301526129cf81612993565b9050919050565b60006129e182611c93565b91506129ec83611c93565b9250827fffffffffffffffffffffffffffffffffffffffffffffffffffffffffffffffff03821115612a2157612a20612866565b5b828201905092915050565b7f455243313135353a207472616e736665722063616c6c6572206973206e6f742060008201527f6f776e6572206e6f7220617070726f7665640000000000000000000000000000602082015250565b6000612a88603283611e26565b9150612a9382612a2c565b604082019050919050565b60006020820190508181036000830152612ab781612a7b565b9050919050565b7f455243313135353a206163636f756e747320616e6420696473206c656e67746860008201527f206d69736d617463680000000000000000000000000000000000000000000000602082015250565b6000612b1a602983611e26565b9150612b2582612abe565b604082019050919050565b60006020820190508181036000830152612b4981612b0d565b9050919050565b6000612b5b82611c93565b91507fffffffffffffffffffffffffffffffffffffffffffffffffffffffffffffffff821415612b8e57612b8d612866565b5b600182019050919050565b7f4f776e61626c653a2063616c6c6572206973206e6f7420746865206f776e6572600082015250565b6000612bcf602083611e26565b9150612bda82612b99565b602082019050919050565b60006020820190508181036000830152612bfe81612bc2565b9050919050565b7f455243313135353a2063616c6c6572206973206e6f74206f776e6572206e6f7260008201527f20617070726f7665640000000000000000000000000000000000000000000000602082015250565b6000612c61602983611e26565b9150612c6c82612c05565b604082019050919050565b60006020820190508181036000830152612c9081612c54565b9050919050565b7f4f776e61626c653a206e6577206f776e657220697320746865207a65726f206160008201527f6464726573730000000000000000000000000000000000000000000000000000602082015250565b6000612cf3602683611e26565b9150612cfe82612c97565b604082019050919050565b60006020820190508181036000830152612d2281612ce6565b9050919050565b7f455243313135353a206d696e7420746f20746865207a65726f2061646472657360008201527f7300000000000000000000000000000000000000000000000000000000000000602082015250565b6000612d85602183611e26565b9150612d9082612d29565b604082019050919050565b60006020820190508181036000830152612db481612d78565b9050919050565b6000604082019050612dd06000830185611d09565b612ddd6020830184611d09565b9392505050565b7f455243313135353a2069647320616e6420616d6f756e7473206c656e6774682060008201527f6d69736d61746368000000000000000000000000000000000000000000000000602082015250565b6000612e40602883611e26565b9150612e4b82612de4565b604082019050919050565b60006020820190508181036000830152612e6f81612e33565b9050919050565b7f455243313135353a207472616e7366657220746f20746865207a65726f20616460008201527f6472657373000000000000000000000000000000000000000000000000000000602082015250565b6000612ed2602583611e26565b9150612edd82612e76565b604082019050919050565b60006020820190508181036000830152612f0181612ec5565b9050919050565b7f455243313135353a20696e73756666696369656e742062616c616e636520666f60008201527f72207472616e7366657200000000000000000000000000000000000000000000602082015250565b6000612f64602a83611e26565b9150612f6f82612f08565b604082019050919050565b60006020820190508181036000830152612f9381612f57565b9050919050565b60006040820190508181036000830152612fb4818561237d565b90508181036020830152612fc8818461237d565b90509392505050565b7f455243313135353a2073657474696e6720617070726f76616c2073746174757360008201527f20666f722073656c660000000000000000000000000000000000000000000000602082015250565b600061302d602983611e26565b915061303882612fd1565b604082019050919050565b6000602082019050818103600083015261305c81613020565b9050919050565b600081519050919050565b600082825260208201905092915050565b600061308a82613063565b613094818561306e565b93506130a4818560208601611e37565b6130ad81611e6a565b840191505092915050565b600060a0820190506130cd60008301886123fd565b6130da60208301876123fd565b6130e76040830186611d09565b6130f46060830185611d09565b8181036080830152613106818461307f565b90509695505050505050565b60008151905061312181611d5f565b92915050565b60006020828403121561313d5761313c611c2b565b5b600061314b84828501613112565b91505092915050565b60008160e01c9050919050565b600060033d11156131805760046000803e61317d600051613154565b90505b90565b600060443d101561319357613216565b61319b611c21565b60043d036004823e80513d602482011167ffffffffffffffff821117156131c3575050613216565b808201805167ffffffffffffffff8111156131e15750505050613216565b80602083010160043d0385018111156131fe575050505050613216565b61320d82602001850186611f4a565b82955050505050505b90565b7f455243313135353a207472616e7366657220746f206e6f6e204552433131353560008201527f526563656976657220696d706c656d656e746572000000000000000000000000602082015250565b6000613275603483611e26565b915061328082613219565b604082019050919050565b600060208201905081810360008301526132a481613268565b9050919050565b7f455243313135353a204552433131353552656365697665722072656a6563746560008201527f6420746f6b656e73000000000000000000000000000000000000000000000000602082015250565b6000613307602883611e26565b9150613312826132ab565b604082019050919050565b60006020820190508181036000830152613336816132fa565b9050919050565b600060a08201905061335260008301886123fd565b61335f60208301876123fd565b8181036040830152613371818661237d565b90508181036060830152613385818561237d565b90508181036080830152613399818461307f565b9050969550505050505056fea26469706673582212203366c7618253ad9668a72270be818040c0ecea125b5780a2796e2c0e7d5c2a6964736f6c634300080a003368747470733a2f2f62616679626569686166326d656f35767737686c726b74696e6664337276656a63357634707532657a65787a656361796333737a7962346d6678752e697066732e647765622e6c696e6b2f7b69647d2e6a736f6e",
  "immutableReferences": {},
  "source": "// SPDX-License-Identifier: MIT\npragma solidity >=0.4.22 <0.9.0;\n\nimport \"@openzeppelin/contracts/token/ERC1155/ERC1155.sol\";\n\nimport \"@openzeppelin/contracts/access/Ownable.sol\";\ncontract TheGame is ERC1155, Ownable {\n  uint256[] public totalSupply =[1000000000,1000000000];\n  uint256[] public Loses = [0,0];\n  uint public cost = .0001 ether;\n  uint256 public totalLoses = 0;\n  mapping (address => uint) public LossDirectory;\n\nfunction mint(uint256 id, uint256 amount) public payable {\n        require(id <= totalSupply.length, \"Try again friend. Either you lost the Game, or someone else set you up.\");\n        require(id >0, \"What are you doing?\");\n        require(amount ==1, \"Why do you want more than one L on your record? One NFT at a time.\");\n        uint index = id-1;\n        require(Loses[index] <= totalSupply[index], \"Surprisingly, we ran out. There are more Ls out there in the world, just ask someone to send you one. \");\n        //require(msg.value == cost, \"Sorry Friend. minting this NFT costs .0001 ether\");\n        _mint(msg.sender, id, amount, \"0x00\");\n        Loses[index] += amount;\n        totalLoses= totalLoses +amount;\n        LossDirectory[msg.sender] = amount;\n    }\n  constructor() public ERC1155(\"https://bafybeihaf2meo5vw7hlrktinfd3rvejc5v4pu2ezexzecayc3szyb4mfxu.ipfs.dweb.link/{id}.json\"){\n  \n  }\n    function getBalance() public view returns (uint){\n    return address(this).balance;\n  }\n\n\n}\n",
  "sourcePath": "/Users/rubengarcia/consensys-blockchain-developer-bootcamp-2021/Consensys-final-project/contracts/TheGame.sol",
  "compiler": {
    "name": "solc",
    "version": "0.8.10+commit.fc410830.Emscripten.clang"
  },
  "schemaVersion": "3.4.3",
  "updatedAt": "2021-12-05T15:53:48.372Z",
  "networkType": "ethereum",
  "devdoc": {
    "kind": "dev",
    "methods": {
      "balanceOf(address,uint256)": {
        "details": "See {IERC1155-balanceOf}. Requirements: - `account` cannot be the zero address."
      },
      "balanceOfBatch(address[],uint256[])": {
        "details": "See {IERC1155-balanceOfBatch}. Requirements: - `accounts` and `ids` must have the same length."
      },
      "isApprovedForAll(address,address)": {
        "details": "See {IERC1155-isApprovedForAll}."
      },
      "owner()": {
        "details": "Returns the address of the current owner."
      },
      "renounceOwnership()": {
        "details": "Leaves the contract without owner. It will not be possible to call `onlyOwner` functions anymore. Can only be called by the current owner. NOTE: Renouncing ownership will leave the contract without an owner, thereby removing any functionality that is only available to the owner."
      },
      "safeBatchTransferFrom(address,address,uint256[],uint256[],bytes)": {
        "details": "See {IERC1155-safeBatchTransferFrom}."
      },
      "safeTransferFrom(address,address,uint256,uint256,bytes)": {
        "details": "See {IERC1155-safeTransferFrom}."
      },
      "setApprovalForAll(address,bool)": {
        "details": "See {IERC1155-setApprovalForAll}."
      },
      "supportsInterface(bytes4)": {
        "details": "See {IERC165-supportsInterface}."
      },
      "transferOwnership(address)": {
        "details": "Transfers ownership of the contract to a new account (`newOwner`). Can only be called by the current owner."
      },
      "uri(uint256)": {
        "details": "See {IERC1155MetadataURI-uri}. This implementation returns the same URI for *all* token types. It relies on the token type ID substitution mechanism https://eips.ethereum.org/EIPS/eip-1155#metadata[defined in the EIP]. Clients calling this function must replace the `\\{id\\}` substring with the actual token type ID."
      }
    },
    "version": 1
  },
  "userdoc": {
    "kind": "user",
    "methods": {},
    "version": 1
  }
}