{
  "contractName": "TheGame",
  "abi": [
    {
      "inputs": [],
      "stateMutability": "nonpayable",
      "type": "constructor"
    },
    {
      "anonymous": false,
      "inputs": [
        {
          "indexed": true,
          "internalType": "address",
          "name": "owner",
          "type": "address"
        },
        {
          "indexed": true,
          "internalType": "address",
          "name": "approved",
          "type": "address"
        },
        {
          "indexed": true,
          "internalType": "uint256",
          "name": "tokenId",
          "type": "uint256"
        }
      ],
      "name": "Approval",
      "type": "event"
    },
    {
      "anonymous": false,
      "inputs": [
        {
          "indexed": true,
          "internalType": "address",
          "name": "owner",
          "type": "address"
        },
        {
          "indexed": true,
          "internalType": "address",
          "name": "operator",
          "type": "address"
        },
        {
          "indexed": false,
          "internalType": "bool",
          "name": "approved",
          "type": "bool"
        }
      ],
      "name": "ApprovalForAll",
      "type": "event"
    },
    {
      "anonymous": false,
      "inputs": [
        {
          "indexed": true,
          "internalType": "address",
          "name": "previousOwner",
          "type": "address"
        },
        {
          "indexed": true,
          "internalType": "address",
          "name": "newOwner",
          "type": "address"
        }
      ],
      "name": "OwnershipTransferred",
      "type": "event"
    },
    {
      "anonymous": false,
      "inputs": [
        {
          "indexed": true,
          "internalType": "address",
          "name": "from",
          "type": "address"
        },
        {
          "indexed": true,
          "internalType": "address",
          "name": "to",
          "type": "address"
        },
        {
          "indexed": true,
          "internalType": "uint256",
          "name": "tokenId",
          "type": "uint256"
        }
      ],
      "name": "Transfer",
      "type": "event"
    },
    {
      "inputs": [
        {
          "internalType": "address",
          "name": "to",
          "type": "address"
        },
        {
          "internalType": "uint256",
          "name": "tokenId",
          "type": "uint256"
        }
      ],
      "name": "approve",
      "outputs": [],
      "stateMutability": "nonpayable",
      "type": "function"
    },
    {
      "inputs": [
        {
          "internalType": "address",
          "name": "owner",
          "type": "address"
        }
      ],
      "name": "balanceOf",
      "outputs": [
        {
          "internalType": "uint256",
          "name": "",
          "type": "uint256"
        }
      ],
      "stateMutability": "view",
      "type": "function",
      "constant": true
    },
    {
      "inputs": [
        {
          "internalType": "uint256",
          "name": "tokenId",
          "type": "uint256"
        }
      ],
      "name": "getApproved",
      "outputs": [
        {
          "internalType": "address",
          "name": "",
          "type": "address"
        }
      ],
      "stateMutability": "view",
      "type": "function",
      "constant": true
    },
    {
      "inputs": [
        {
          "internalType": "address",
          "name": "owner",
          "type": "address"
        },
        {
          "internalType": "address",
          "name": "operator",
          "type": "address"
        }
      ],
      "name": "isApprovedForAll",
      "outputs": [
        {
          "internalType": "bool",
          "name": "",
          "type": "bool"
        }
      ],
      "stateMutability": "view",
      "type": "function",
      "constant": true
    },
    {
      "inputs": [],
      "name": "name",
      "outputs": [
        {
          "internalType": "string",
          "name": "",
          "type": "string"
        }
      ],
      "stateMutability": "view",
      "type": "function",
      "constant": true
    },
    {
      "inputs": [],
      "name": "owner",
      "outputs": [
        {
          "internalType": "address",
          "name": "",
          "type": "address"
        }
      ],
      "stateMutability": "view",
      "type": "function",
      "constant": true
    },
    {
      "inputs": [
        {
          "internalType": "uint256",
          "name": "tokenId",
          "type": "uint256"
        }
      ],
      "name": "ownerOf",
      "outputs": [
        {
          "internalType": "address",
          "name": "",
          "type": "address"
        }
      ],
      "stateMutability": "view",
      "type": "function",
      "constant": true
    },
    {
      "inputs": [],
      "name": "renounceOwnership",
      "outputs": [],
      "stateMutability": "nonpayable",
      "type": "function"
    },
    {
      "inputs": [
        {
          "internalType": "address",
          "name": "from",
          "type": "address"
        },
        {
          "internalType": "address",
          "name": "to",
          "type": "address"
        },
        {
          "internalType": "uint256",
          "name": "tokenId",
          "type": "uint256"
        }
      ],
      "name": "safeTransferFrom",
      "outputs": [],
      "stateMutability": "nonpayable",
      "type": "function"
    },
    {
      "inputs": [
        {
          "internalType": "address",
          "name": "from",
          "type": "address"
        },
        {
          "internalType": "address",
          "name": "to",
          "type": "address"
        },
        {
          "internalType": "uint256",
          "name": "tokenId",
          "type": "uint256"
        },
        {
          "internalType": "bytes",
          "name": "_data",
          "type": "bytes"
        }
      ],
      "name": "safeTransferFrom",
      "outputs": [],
      "stateMutability": "nonpayable",
      "type": "function"
    },
    {
      "inputs": [
        {
          "internalType": "address",
          "name": "operator",
          "type": "address"
        },
        {
          "internalType": "bool",
          "name": "approved",
          "type": "bool"
        }
      ],
      "name": "setApprovalForAll",
      "outputs": [],
      "stateMutability": "nonpayable",
      "type": "function"
    },
    {
      "inputs": [
        {
          "internalType": "bytes4",
          "name": "interfaceId",
          "type": "bytes4"
        }
      ],
      "name": "supportsInterface",
      "outputs": [
        {
          "internalType": "bool",
          "name": "",
          "type": "bool"
        }
      ],
      "stateMutability": "view",
      "type": "function",
      "constant": true
    },
    {
      "inputs": [],
      "name": "symbol",
      "outputs": [
        {
          "internalType": "string",
          "name": "",
          "type": "string"
        }
      ],
      "stateMutability": "view",
      "type": "function",
      "constant": true
    },
    {
      "inputs": [],
      "name": "totalLosses",
      "outputs": [
        {
          "internalType": "uint256",
          "name": "",
          "type": "uint256"
        }
      ],
      "stateMutability": "view",
      "type": "function",
      "constant": true
    },
    {
      "inputs": [],
      "name": "totalSupply",
      "outputs": [
        {
          "internalType": "uint256",
          "name": "",
          "type": "uint256"
        }
      ],
      "stateMutability": "view",
      "type": "function",
      "constant": true
    },
    {
      "inputs": [
        {
          "internalType": "address",
          "name": "from",
          "type": "address"
        },
        {
          "internalType": "address",
          "name": "to",
          "type": "address"
        },
        {
          "internalType": "uint256",
          "name": "tokenId",
          "type": "uint256"
        }
      ],
      "name": "transferFrom",
      "outputs": [],
      "stateMutability": "nonpayable",
      "type": "function"
    },
    {
      "inputs": [
        {
          "internalType": "address",
          "name": "newOwner",
          "type": "address"
        }
      ],
      "name": "transferOwnership",
      "outputs": [],
      "stateMutability": "nonpayable",
      "type": "function"
    },
    {
      "inputs": [
        {
          "internalType": "address",
          "name": "to",
          "type": "address"
        },
        {
          "internalType": "uint256",
          "name": "amountOfLosses",
          "type": "uint256"
        }
      ],
      "name": "safeMint",
      "outputs": [],
      "stateMutability": "nonpayable",
      "type": "function"
    },
    {
      "inputs": [
        {
          "internalType": "uint256",
          "name": "tokenId",
          "type": "uint256"
        }
      ],
      "name": "tokenURI",
      "outputs": [
        {
          "internalType": "string",
          "name": "",
          "type": "string"
        }
      ],
      "stateMutability": "view",
      "type": "function",
      "constant": true
    }
  ],
  "bytecode": "0x608060405261010260085560006009556040518060800160405280605381526020016200335a60539139600a908051906020019062000040929190620001e3565b503480156200004e57600080fd5b506040518060400160405280600781526020017f54686547616d65000000000000000000000000000000000000000000000000008152506040518060400160405280600481526020017f4c4f5354000000000000000000000000000000000000000000000000000000008152508160009080519060200190620000d3929190620001e3565b508060019080519060200190620000ec929190620001e3565b5050506200010f620001036200011560201b60201c565b6200011d60201b60201c565b620002f8565b600033905090565b6000600760009054906101000a900473ffffffffffffffffffffffffffffffffffffffff16905081600760006101000a81548173ffffffffffffffffffffffffffffffffffffffff021916908373ffffffffffffffffffffffffffffffffffffffff1602179055508173ffffffffffffffffffffffffffffffffffffffff168173ffffffffffffffffffffffffffffffffffffffff167f8be0079c531659141344cd1fd0a4f28419497f9722a3daafe3b4186f6b6457e060405160405180910390a35050565b828054620001f190620002c2565b90600052602060002090601f01602090048101928262000215576000855562000261565b82601f106200023057805160ff191683800117855562000261565b8280016001018555821562000261579182015b828111156200026057825182559160200191906001019062000243565b5b50905062000270919062000274565b5090565b5b808211156200028f57600081600090555060010162000275565b5090565b7f4e487b7100000000000000000000000000000000000000000000000000000000600052602260045260246000fd5b60006002820490506001821680620002db57607f821691505b60208210811415620002f257620002f162000293565b5b50919050565b61305280620003086000396000f3fe608060405234801561001057600080fd5b50600436106101215760003560e01c8063715018a6116100ad578063b88d4fde11610071578063b88d4fde146102f4578063bf04820b14610310578063c87b56dd1461032e578063e985e9c51461035e578063f2fde38b1461038e57610121565b8063715018a6146102765780638da5cb5b1461028057806395d89b411461029e578063a1448194146102bc578063a22cb465146102d857610121565b806318160ddd116100f457806318160ddd146101c057806323b872dd146101de57806342842e0e146101fa5780636352211e1461021657806370a082311461024657610121565b806301ffc9a71461012657806306fdde0314610156578063081812fc14610174578063095ea7b3146101a4575b600080fd5b610140600480360381019061013b9190611db3565b6103aa565b60405161014d9190611dfb565b60405180910390f35b61015e61048c565b60405161016b9190611eaf565b60405180910390f35b61018e60048036038101906101899190611f07565b61051e565b60405161019b9190611f75565b60405180910390f35b6101be60048036038101906101b99190611fbc565b6105a3565b005b6101c86106bb565b6040516101d5919061200b565b60405180910390f35b6101f860048036038101906101f39190612026565b6106c1565b005b610214600480360381019061020f9190612026565b610721565b005b610230600480360381019061022b9190611f07565b610741565b60405161023d9190611f75565b60405180910390f35b610260600480360381019061025b9190612079565b6107f3565b60405161026d919061200b565b60405180910390f35b61027e6108ab565b005b610288610933565b6040516102959190611f75565b60405180910390f35b6102a661095d565b6040516102b39190611eaf565b60405180910390f35b6102d660048036038101906102d19190611fbc565b6109ef565b005b6102f260048036038101906102ed91906120d2565b610b38565b005b61030e60048036038101906103099190612247565b610b4e565b005b610318610bb0565b604051610325919061200b565b60405180910390f35b61034860048036038101906103439190611f07565b610bb6565b6040516103559190611eaf565b60405180910390f35b610378600480360381019061037391906122ca565b610bc8565b6040516103859190611dfb565b60405180910390f35b6103a860048036038101906103a39190612079565b610c5c565b005b60007f80ac58cd000000000000000000000000000000000000000000000000000000007bffffffffffffffffffffffffffffffffffffffffffffffffffffffff1916827bffffffffffffffffffffffffffffffffffffffffffffffffffffffff1916148061047557507f5b5e139f000000000000000000000000000000000000000000000000000000007bffffffffffffffffffffffffffffffffffffffffffffffffffffffff1916827bffffffffffffffffffffffffffffffffffffffffffffffffffffffff1916145b80610485575061048482610d54565b5b9050919050565b60606000805461049b90612339565b80601f01602080910402602001604051908101604052809291908181526020018280546104c790612339565b80156105145780601f106104e957610100808354040283529160200191610514565b820191906000526020600020905b8154815290600101906020018083116104f757829003601f168201915b5050505050905090565b600061052982610dbe565b610568576040517f08c379a000000000000000000000000000000000000000000000000000000000815260040161055f906123dd565b60405180910390fd5b6004600083815260200190815260200160002060009054906101000a900473ffffffffffffffffffffffffffffffffffffffff169050919050565b60006105ae82610741565b90508073ffffffffffffffffffffffffffffffffffffffff168373ffffffffffffffffffffffffffffffffffffffff16141561061f576040517f08c379a00000000000000000000000000000000000000000000000000000000081526004016106169061246f565b60405180910390fd5b8073ffffffffffffffffffffffffffffffffffffffff1661063e610e2a565b73ffffffffffffffffffffffffffffffffffffffff16148061066d575061066c81610667610e2a565b610bc8565b5b6106ac576040517f08c379a00000000000000000000000000000000000000000000000000000000081526004016106a390612501565b60405180910390fd5b6106b68383610e32565b505050565b60085481565b6106d26106cc610e2a565b82610eeb565b610711576040517f08c379a000000000000000000000000000000000000000000000000000000000815260040161070890612593565b60405180910390fd5b61071c838383610fc9565b505050565b61073c83838360405180602001604052806000815250610b4e565b505050565b6000806002600084815260200190815260200160002060009054906101000a900473ffffffffffffffffffffffffffffffffffffffff169050600073ffffffffffffffffffffffffffffffffffffffff168173ffffffffffffffffffffffffffffffffffffffff1614156107ea576040517f08c379a00000000000000000000000000000000000000000000000000000000081526004016107e190612625565b60405180910390fd5b80915050919050565b60008073ffffffffffffffffffffffffffffffffffffffff168273ffffffffffffffffffffffffffffffffffffffff161415610864576040517f08c379a000000000000000000000000000000000000000000000000000000000815260040161085b906126b7565b60405180910390fd5b600360008373ffffffffffffffffffffffffffffffffffffffff1673ffffffffffffffffffffffffffffffffffffffff168152602001908152602001600020549050919050565b6108b3610e2a565b73ffffffffffffffffffffffffffffffffffffffff166108d1610933565b73ffffffffffffffffffffffffffffffffffffffff1614610927576040517f08c379a000000000000000000000000000000000000000000000000000000000815260040161091e90612723565b60405180910390fd5b6109316000611225565b565b6000600760009054906101000a900473ffffffffffffffffffffffffffffffffffffffff16905090565b60606001805461096c90612339565b80601f016020809104026020016040519081016040528092919081815260200182805461099890612339565b80156109e55780601f106109ba576101008083540402835291602001916109e5565b820191906000526020600020905b8154815290600101906020018083116109c857829003601f168201915b5050505050905090565b60006109fb600c6112eb565b9050610a07600c6112f9565b610a11838261130f565b610aa581600a8054610a2290612339565b80601f0160208091040260200160405190810160405280929190818152602001828054610a4e90612339565b8015610a9b5780601f10610a7057610100808354040283529160200191610a9b565b820191906000526020600020905b815481529060010190602001808311610a7e57829003601f168201915b505050505061132d565b81600b60003373ffffffffffffffffffffffffffffffffffffffff1673ffffffffffffffffffffffffffffffffffffffff16815260200190815260200160002054610af09190612772565b600b60003373ffffffffffffffffffffffffffffffffffffffff1673ffffffffffffffffffffffffffffffffffffffff16815260200190815260200160002081905550505050565b610b4a610b43610e2a565b83836113a1565b5050565b610b5f610b59610e2a565b83610eeb565b610b9e576040517f08c379a0000000000000000000000000000000000000000000000000000000008152600401610b9590612593565b60405180910390fd5b610baa8484848461150e565b50505050565b60095481565b6060610bc18261156a565b9050919050565b6000600560008473ffffffffffffffffffffffffffffffffffffffff1673ffffffffffffffffffffffffffffffffffffffff16815260200190815260200160002060008373ffffffffffffffffffffffffffffffffffffffff1673ffffffffffffffffffffffffffffffffffffffff16815260200190815260200160002060009054906101000a900460ff16905092915050565b610c64610e2a565b73ffffffffffffffffffffffffffffffffffffffff16610c82610933565b73ffffffffffffffffffffffffffffffffffffffff1614610cd8576040517f08c379a0000000000000000000000000000000000000000000000000000000008152600401610ccf90612723565b60405180910390fd5b600073ffffffffffffffffffffffffffffffffffffffff168173ffffffffffffffffffffffffffffffffffffffff161415610d48576040517f08c379a0000000000000000000000000000000000000000000000000000000008152600401610d3f9061283a565b60405180910390fd5b610d5181611225565b50565b60007f01ffc9a7000000000000000000000000000000000000000000000000000000007bffffffffffffffffffffffffffffffffffffffffffffffffffffffff1916827bffffffffffffffffffffffffffffffffffffffffffffffffffffffff1916149050919050565b60008073ffffffffffffffffffffffffffffffffffffffff166002600084815260200190815260200160002060009054906101000a900473ffffffffffffffffffffffffffffffffffffffff1673ffffffffffffffffffffffffffffffffffffffff1614159050919050565b600033905090565b816004600083815260200190815260200160002060006101000a81548173ffffffffffffffffffffffffffffffffffffffff021916908373ffffffffffffffffffffffffffffffffffffffff160217905550808273ffffffffffffffffffffffffffffffffffffffff16610ea583610741565b73ffffffffffffffffffffffffffffffffffffffff167f8c5be1e5ebec7d5bd14f71427d1e84f3dd0314c0f7b2291e5b200ac8c7c3b92560405160405180910390a45050565b6000610ef682610dbe565b610f35576040517f08c379a0000000000000000000000000000000000000000000000000000000008152600401610f2c906128cc565b60405180910390fd5b6000610f4083610741565b90508073ffffffffffffffffffffffffffffffffffffffff168473ffffffffffffffffffffffffffffffffffffffff161480610faf57508373ffffffffffffffffffffffffffffffffffffffff16610f978461051e565b73ffffffffffffffffffffffffffffffffffffffff16145b80610fc05750610fbf8185610bc8565b5b91505092915050565b8273ffffffffffffffffffffffffffffffffffffffff16610fe982610741565b73ffffffffffffffffffffffffffffffffffffffff161461103f576040517f08c379a00000000000000000000000000000000000000000000000000000000081526004016110369061295e565b60405180910390fd5b600073ffffffffffffffffffffffffffffffffffffffff168273ffffffffffffffffffffffffffffffffffffffff1614156110af576040517f08c379a00000000000000000000000000000000000000000000000000000000081526004016110a6906129f0565b60405180910390fd5b6110ba8383836116bc565b6110c5600082610e32565b6001600360008573ffffffffffffffffffffffffffffffffffffffff1673ffffffffffffffffffffffffffffffffffffffff16815260200190815260200160002060008282546111159190612a10565b925050819055506001600360008473ffffffffffffffffffffffffffffffffffffffff1673ffffffffffffffffffffffffffffffffffffffff168152602001908152602001600020600082825461116c9190612772565b92505081905550816002600083815260200190815260200160002060006101000a81548173ffffffffffffffffffffffffffffffffffffffff021916908373ffffffffffffffffffffffffffffffffffffffff160217905550808273ffffffffffffffffffffffffffffffffffffffff168473ffffffffffffffffffffffffffffffffffffffff167fddf252ad1be2c89b69c2b068fc378daa952ba7f163c4a11628f55a4df523b3ef60405160405180910390a4505050565b6000600760009054906101000a900473ffffffffffffffffffffffffffffffffffffffff16905081600760006101000a81548173ffffffffffffffffffffffffffffffffffffffff021916908373ffffffffffffffffffffffffffffffffffffffff1602179055508173ffffffffffffffffffffffffffffffffffffffff168173ffffffffffffffffffffffffffffffffffffffff167f8be0079c531659141344cd1fd0a4f28419497f9722a3daafe3b4186f6b6457e060405160405180910390a35050565b600081600001549050919050565b6001816000016000828254019250508190555050565b6113298282604051806020016040528060008152506116c1565b5050565b61133682610dbe565b611375576040517f08c379a000000000000000000000000000000000000000000000000000000000815260040161136c90612ab6565b60405180910390fd5b8060066000848152602001908152602001600020908051906020019061139c929190611ca4565b505050565b8173ffffffffffffffffffffffffffffffffffffffff168373ffffffffffffffffffffffffffffffffffffffff161415611410576040517f08c379a000000000000000000000000000000000000000000000000000000000815260040161140790612b22565b60405180910390fd5b80600560008573ffffffffffffffffffffffffffffffffffffffff1673ffffffffffffffffffffffffffffffffffffffff16815260200190815260200160002060008473ffffffffffffffffffffffffffffffffffffffff1673ffffffffffffffffffffffffffffffffffffffff16815260200190815260200160002060006101000a81548160ff0219169083151502179055508173ffffffffffffffffffffffffffffffffffffffff168373ffffffffffffffffffffffffffffffffffffffff167f17307eab39ab6107e8899845ad3d59bd9653f200f220920489ca2b5937696c31836040516115019190611dfb565b60405180910390a3505050565b611519848484610fc9565b6115258484848461171c565b611564576040517f08c379a000000000000000000000000000000000000000000000000000000000815260040161155b90612bb4565b60405180910390fd5b50505050565b606061157582610dbe565b6115b4576040517f08c379a00000000000000000000000000000000000000000000000000000000081526004016115ab90612c46565b60405180910390fd5b60006006600084815260200190815260200160002080546115d490612339565b80601f016020809104026020016040519081016040528092919081815260200182805461160090612339565b801561164d5780601f106116225761010080835404028352916020019161164d565b820191906000526020600020905b81548152906001019060200180831161163057829003601f168201915b50505050509050600061165e6118a4565b90506000815114156116745781925050506116b7565b6000825111156116a9578082604051602001611691929190612ca2565b604051602081830303815290604052925050506116b7565b6116b2846118bb565b925050505b919050565b505050565b6116cb8383611962565b6116d8600084848461171c565b611717576040517f08c379a000000000000000000000000000000000000000000000000000000000815260040161170e90612bb4565b60405180910390fd5b505050565b600061173d8473ffffffffffffffffffffffffffffffffffffffff16611b30565b15611897578373ffffffffffffffffffffffffffffffffffffffff1663150b7a02611766610e2a565b8786866040518563ffffffff1660e01b81526004016117889493929190612d1b565b6020604051808303816000875af19250505080156117c457506040513d601f19601f820116820180604052508101906117c19190612d7c565b60015b611847573d80600081146117f4576040519150601f19603f3d011682016040523d82523d6000602084013e6117f9565b606091505b5060008151141561183f576040517f08c379a000000000000000000000000000000000000000000000000000000000815260040161183690612bb4565b60405180910390fd5b805181602001fd5b63150b7a0260e01b7bffffffffffffffffffffffffffffffffffffffffffffffffffffffff1916817bffffffffffffffffffffffffffffffffffffffffffffffffffffffff19161491505061189c565b600190505b949350505050565b606060405180602001604052806000815250905090565b60606118c682610dbe565b611905576040517f08c379a00000000000000000000000000000000000000000000000000000000081526004016118fc90612e1b565b60405180910390fd5b600061190f6118a4565b9050600081511161192f576040518060200160405280600081525061195a565b8061193984611b43565b60405160200161194a929190612ca2565b6040516020818303038152906040525b915050919050565b600073ffffffffffffffffffffffffffffffffffffffff168273ffffffffffffffffffffffffffffffffffffffff1614156119d2576040517f08c379a00000000000000000000000000000000000000000000000000000000081526004016119c990612e87565b60405180910390fd5b6119db81610dbe565b15611a1b576040517f08c379a0000000000000000000000000000000000000000000000000000000008152600401611a1290612ef3565b60405180910390fd5b611a27600083836116bc565b6001600360008473ffffffffffffffffffffffffffffffffffffffff1673ffffffffffffffffffffffffffffffffffffffff1681526020019081526020016000206000828254611a779190612772565b92505081905550816002600083815260200190815260200160002060006101000a81548173ffffffffffffffffffffffffffffffffffffffff021916908373ffffffffffffffffffffffffffffffffffffffff160217905550808273ffffffffffffffffffffffffffffffffffffffff16600073ffffffffffffffffffffffffffffffffffffffff167fddf252ad1be2c89b69c2b068fc378daa952ba7f163c4a11628f55a4df523b3ef60405160405180910390a45050565b600080823b905060008111915050919050565b60606000821415611b8b576040518060400160405280600181526020017f30000000000000000000000000000000000000000000000000000000000000008152509050611c9f565b600082905060005b60008214611bbd578080611ba690612f13565b915050600a82611bb69190612f8b565b9150611b93565b60008167ffffffffffffffff811115611bd957611bd861211c565b5b6040519080825280601f01601f191660200182016040528015611c0b5781602001600182028036833780820191505090505b5090505b60008514611c9857600182611c249190612a10565b9150600a85611c339190612fbc565b6030611c3f9190612772565b60f81b818381518110611c5557611c54612fed565b5b60200101907effffffffffffffffffffffffffffffffffffffffffffffffffffffffffffff1916908160001a905350600a85611c919190612f8b565b9450611c0f565b8093505050505b919050565b828054611cb090612339565b90600052602060002090601f016020900481019282611cd25760008555611d19565b82601f10611ceb57805160ff1916838001178555611d19565b82800160010185558215611d19579182015b82811115611d18578251825591602001919060010190611cfd565b5b509050611d269190611d2a565b5090565b5b80821115611d43576000816000905550600101611d2b565b5090565b6000604051905090565b600080fd5b600080fd5b60007fffffffff0000000000000000000000000000000000000000000000000000000082169050919050565b611d9081611d5b565b8114611d9b57600080fd5b50565b600081359050611dad81611d87565b92915050565b600060208284031215611dc957611dc8611d51565b5b6000611dd784828501611d9e565b91505092915050565b60008115159050919050565b611df581611de0565b82525050565b6000602082019050611e106000830184611dec565b92915050565b600081519050919050565b600082825260208201905092915050565b60005b83811015611e50578082015181840152602081019050611e35565b83811115611e5f576000848401525b50505050565b6000601f19601f8301169050919050565b6000611e8182611e16565b611e8b8185611e21565b9350611e9b818560208601611e32565b611ea481611e65565b840191505092915050565b60006020820190508181036000830152611ec98184611e76565b905092915050565b6000819050919050565b611ee481611ed1565b8114611eef57600080fd5b50565b600081359050611f0181611edb565b92915050565b600060208284031215611f1d57611f1c611d51565b5b6000611f2b84828501611ef2565b91505092915050565b600073ffffffffffffffffffffffffffffffffffffffff82169050919050565b6000611f5f82611f34565b9050919050565b611f6f81611f54565b82525050565b6000602082019050611f8a6000830184611f66565b92915050565b611f9981611f54565b8114611fa457600080fd5b50565b600081359050611fb681611f90565b92915050565b60008060408385031215611fd357611fd2611d51565b5b6000611fe185828601611fa7565b9250506020611ff285828601611ef2565b9150509250929050565b61200581611ed1565b82525050565b60006020820190506120206000830184611ffc565b92915050565b60008060006060848603121561203f5761203e611d51565b5b600061204d86828701611fa7565b935050602061205e86828701611fa7565b925050604061206f86828701611ef2565b9150509250925092565b60006020828403121561208f5761208e611d51565b5b600061209d84828501611fa7565b91505092915050565b6120af81611de0565b81146120ba57600080fd5b50565b6000813590506120cc816120a6565b92915050565b600080604083850312156120e9576120e8611d51565b5b60006120f785828601611fa7565b9250506020612108858286016120bd565b9150509250929050565b600080fd5b600080fd5b7f4e487b7100000000000000000000000000000000000000000000000000000000600052604160045260246000fd5b61215482611e65565b810181811067ffffffffffffffff821117156121735761217261211c565b5b80604052505050565b6000612186611d47565b9050612192828261214b565b919050565b600067ffffffffffffffff8211156121b2576121b161211c565b5b6121bb82611e65565b9050602081019050919050565b82818337600083830152505050565b60006121ea6121e584612197565b61217c565b90508281526020810184848401111561220657612205612117565b5b6122118482856121c8565b509392505050565b600082601f83011261222e5761222d612112565b5b813561223e8482602086016121d7565b91505092915050565b6000806000806080858703121561226157612260611d51565b5b600061226f87828801611fa7565b945050602061228087828801611fa7565b935050604061229187828801611ef2565b925050606085013567ffffffffffffffff8111156122b2576122b1611d56565b5b6122be87828801612219565b91505092959194509250565b600080604083850312156122e1576122e0611d51565b5b60006122ef85828601611fa7565b925050602061230085828601611fa7565b9150509250929050565b7f4e487b7100000000000000000000000000000000000000000000000000000000600052602260045260246000fd5b6000600282049050600182168061235157607f821691505b602082108114156123655761236461230a565b5b50919050565b7f4552433732313a20617070726f76656420717565727920666f72206e6f6e657860008201527f697374656e7420746f6b656e0000000000000000000000000000000000000000602082015250565b60006123c7602c83611e21565b91506123d28261236b565b604082019050919050565b600060208201905081810360008301526123f6816123ba565b9050919050565b7f4552433732313a20617070726f76616c20746f2063757272656e74206f776e6560008201527f7200000000000000000000000000000000000000000000000000000000000000602082015250565b6000612459602183611e21565b9150612464826123fd565b604082019050919050565b600060208201905081810360008301526124888161244c565b9050919050565b7f4552433732313a20617070726f76652063616c6c6572206973206e6f74206f7760008201527f6e6572206e6f7220617070726f76656420666f7220616c6c0000000000000000602082015250565b60006124eb603883611e21565b91506124f68261248f565b604082019050919050565b6000602082019050818103600083015261251a816124de565b9050919050565b7f4552433732313a207472616e736665722063616c6c6572206973206e6f74206f60008201527f776e6572206e6f7220617070726f766564000000000000000000000000000000602082015250565b600061257d603183611e21565b915061258882612521565b604082019050919050565b600060208201905081810360008301526125ac81612570565b9050919050565b7f4552433732313a206f776e657220717565727920666f72206e6f6e657869737460008201527f656e7420746f6b656e0000000000000000000000000000000000000000000000602082015250565b600061260f602983611e21565b915061261a826125b3565b604082019050919050565b6000602082019050818103600083015261263e81612602565b9050919050565b7f4552433732313a2062616c616e636520717565727920666f7220746865207a6560008201527f726f206164647265737300000000000000000000000000000000000000000000602082015250565b60006126a1602a83611e21565b91506126ac82612645565b604082019050919050565b600060208201905081810360008301526126d081612694565b9050919050565b7f4f776e61626c653a2063616c6c6572206973206e6f7420746865206f776e6572600082015250565b600061270d602083611e21565b9150612718826126d7565b602082019050919050565b6000602082019050818103600083015261273c81612700565b9050919050565b7f4e487b7100000000000000000000000000000000000000000000000000000000600052601160045260246000fd5b600061277d82611ed1565b915061278883611ed1565b9250827fffffffffffffffffffffffffffffffffffffffffffffffffffffffffffffffff038211156127bd576127bc612743565b5b828201905092915050565b7f4f776e61626c653a206e6577206f776e657220697320746865207a65726f206160008201527f6464726573730000000000000000000000000000000000000000000000000000602082015250565b6000612824602683611e21565b915061282f826127c8565b604082019050919050565b6000602082019050818103600083015261285381612817565b9050919050565b7f4552433732313a206f70657261746f7220717565727920666f72206e6f6e657860008201527f697374656e7420746f6b656e0000000000000000000000000000000000000000602082015250565b60006128b6602c83611e21565b91506128c18261285a565b604082019050919050565b600060208201905081810360008301526128e5816128a9565b9050919050565b7f4552433732313a207472616e73666572206f6620746f6b656e2074686174206960008201527f73206e6f74206f776e0000000000000000000000000000000000000000000000602082015250565b6000612948602983611e21565b9150612953826128ec565b604082019050919050565b600060208201905081810360008301526129778161293b565b9050919050565b7f4552433732313a207472616e7366657220746f20746865207a65726f2061646460008201527f7265737300000000000000000000000000000000000000000000000000000000602082015250565b60006129da602483611e21565b91506129e58261297e565b604082019050919050565b60006020820190508181036000830152612a09816129cd565b9050919050565b6000612a1b82611ed1565b9150612a2683611ed1565b925082821015612a3957612a38612743565b5b828203905092915050565b7f45524337323155524953746f726167653a2055524920736574206f66206e6f6e60008201527f6578697374656e7420746f6b656e000000000000000000000000000000000000602082015250565b6000612aa0602e83611e21565b9150612aab82612a44565b604082019050919050565b60006020820190508181036000830152612acf81612a93565b9050919050565b7f4552433732313a20617070726f766520746f2063616c6c657200000000000000600082015250565b6000612b0c601983611e21565b9150612b1782612ad6565b602082019050919050565b60006020820190508181036000830152612b3b81612aff565b9050919050565b7f4552433732313a207472616e7366657220746f206e6f6e20455243373231526560008201527f63656976657220696d706c656d656e7465720000000000000000000000000000602082015250565b6000612b9e603283611e21565b9150612ba982612b42565b604082019050919050565b60006020820190508181036000830152612bcd81612b91565b9050919050565b7f45524337323155524953746f726167653a2055524920717565727920666f722060008201527f6e6f6e6578697374656e7420746f6b656e000000000000000000000000000000602082015250565b6000612c30603183611e21565b9150612c3b82612bd4565b604082019050919050565b60006020820190508181036000830152612c5f81612c23565b9050919050565b600081905092915050565b6000612c7c82611e16565b612c868185612c66565b9350612c96818560208601611e32565b80840191505092915050565b6000612cae8285612c71565b9150612cba8284612c71565b91508190509392505050565b600081519050919050565b600082825260208201905092915050565b6000612ced82612cc6565b612cf78185612cd1565b9350612d07818560208601611e32565b612d1081611e65565b840191505092915050565b6000608082019050612d306000830187611f66565b612d3d6020830186611f66565b612d4a6040830185611ffc565b8181036060830152612d5c8184612ce2565b905095945050505050565b600081519050612d7681611d87565b92915050565b600060208284031215612d9257612d91611d51565b5b6000612da084828501612d67565b91505092915050565b7f4552433732314d657461646174613a2055524920717565727920666f72206e6f60008201527f6e6578697374656e7420746f6b656e0000000000000000000000000000000000602082015250565b6000612e05602f83611e21565b9150612e1082612da9565b604082019050919050565b60006020820190508181036000830152612e3481612df8565b9050919050565b7f4552433732313a206d696e7420746f20746865207a65726f2061646472657373600082015250565b6000612e71602083611e21565b9150612e7c82612e3b565b602082019050919050565b60006020820190508181036000830152612ea081612e64565b9050919050565b7f4552433732313a20746f6b656e20616c7265616479206d696e74656400000000600082015250565b6000612edd601c83611e21565b9150612ee882612ea7565b602082019050919050565b60006020820190508181036000830152612f0c81612ed0565b9050919050565b6000612f1e82611ed1565b91507fffffffffffffffffffffffffffffffffffffffffffffffffffffffffffffffff821415612f5157612f50612743565b5b600182019050919050565b7f4e487b7100000000000000000000000000000000000000000000000000000000600052601260045260246000fd5b6000612f9682611ed1565b9150612fa183611ed1565b925082612fb157612fb0612f5c565b5b828204905092915050565b6000612fc782611ed1565b9150612fd283611ed1565b925082612fe257612fe1612f5c565b5b828206905092915050565b7f4e487b7100000000000000000000000000000000000000000000000000000000600052603260045260246000fdfea2646970667358221220b424a52b133033ad901f6a69a7b5feba9b536dfdfe4d6d1f878577c512e4fd0664736f6c634300080a003368747470733a2f2f6261666b726569676d333374767762643374366c656437746c746235666636377a7662686f6669686a3761786966746f35663766666e736d67686d2e697066732e647765622e6c696e6b2f",
  "immutableReferences": {},
  "source": "// SPDX-License-Identifier: MIT\npragma solidity >=0.4.22 <0.9.0;\n\nimport \"@openzeppelin/contracts/token/ERC721/ERC721.sol\";\nimport \"@openzeppelin/contracts/token/ERC721/extensions/ERC721URIStorage.sol\";\nimport \"@openzeppelin/contracts/access/Ownable.sol\";\nimport \"@openzeppelin/contracts/utils/Counters.sol\";\nimport \"@openzeppelin/contracts/access/Ownable.sol\";\ncontract TheGame is ERC721,ERC721URIStorage, Ownable {\n  uint public totalSupply = 2^256;\n  uint public totalLosses =0;\n  string private baseURI = \"https://bafkreigm33tvwbd3t6led7tltb5ff67zvbhofihj7axifto5f7ffnsmghm.ipfs.dweb.link/\";\n  mapping (address=>uint) LossTracker;\n  \n\n  using Counters for Counters.Counter;\n    Counters.Counter private _tokenIdCounter;\n\n    constructor() ERC721(\"TheGame\", \"LOST\") {\n    }\n\n    function safeMint(address to,uint amountOfLosses) public {\n        uint256 tokenId = _tokenIdCounter.current();\n        _tokenIdCounter.increment();\n        _safeMint(to, tokenId);\n        _setTokenURI(tokenId, baseURI);\n        LossTracker[msg.sender] = LossTracker[msg.sender] + amountOfLosses;\n\n    }\n\n    // The following functions are overrides required by Solidity.\n\n    function _burn(uint256 tokenId) internal override(ERC721, ERC721URIStorage) {\n        super._burn(tokenId);\n    }\n\n    function tokenURI(uint256 tokenId)\n        public\n        view\n        override(ERC721, ERC721URIStorage)\n        returns (string memory)\n    {\n        return super.tokenURI(tokenId);\n    }\n\n}\n",
  "sourcePath": "/Users/rubengarcia/consensys-blockchain-developer-bootcamp-2021/Consensys-final-project/contracts/TheGame.sol",
  "compiler": {
    "name": "solc",
    "version": "0.8.10+commit.fc410830.Emscripten.clang"
  },
  "schemaVersion": "3.4.3",
  "updatedAt": "2021-12-10T22:20:41.965Z",
  "networkType": "ethereum",
  "devdoc": {
    "kind": "dev",
    "methods": {
      "approve(address,uint256)": {
        "details": "See {IERC721-approve}."
      },
      "balanceOf(address)": {
        "details": "See {IERC721-balanceOf}."
      },
      "getApproved(uint256)": {
        "details": "See {IERC721-getApproved}."
      },
      "isApprovedForAll(address,address)": {
        "details": "See {IERC721-isApprovedForAll}."
      },
      "name()": {
        "details": "See {IERC721Metadata-name}."
      },
      "owner()": {
        "details": "Returns the address of the current owner."
      },
      "ownerOf(uint256)": {
        "details": "See {IERC721-ownerOf}."
      },
      "renounceOwnership()": {
        "details": "Leaves the contract without owner. It will not be possible to call `onlyOwner` functions anymore. Can only be called by the current owner. NOTE: Renouncing ownership will leave the contract without an owner, thereby removing any functionality that is only available to the owner."
      },
      "safeTransferFrom(address,address,uint256)": {
        "details": "See {IERC721-safeTransferFrom}."
      },
      "safeTransferFrom(address,address,uint256,bytes)": {
        "details": "See {IERC721-safeTransferFrom}."
      },
      "setApprovalForAll(address,bool)": {
        "details": "See {IERC721-setApprovalForAll}."
      },
      "supportsInterface(bytes4)": {
        "details": "See {IERC165-supportsInterface}."
      },
      "symbol()": {
        "details": "See {IERC721Metadata-symbol}."
      },
      "transferFrom(address,address,uint256)": {
        "details": "See {IERC721-transferFrom}."
      },
      "transferOwnership(address)": {
        "details": "Transfers ownership of the contract to a new account (`newOwner`). Can only be called by the current owner."
      }
    },
    "version": 1
  },
  "userdoc": {
    "kind": "user",
    "methods": {},
    "version": 1
  }
}